:100000000C94C3010C94DE010C94DE010C94DE010F
:100010000C94DE010C94DE010C94DE010C94DE01E4
:100020000C94DE010C94DE010C94DA060C94DE01D3
:100030000C94DE010C941A0C0C94DE010C94DE017D
:100040000C94DE010C94DE010C94B10E0C94E80EBD
:100050000C94DE010C94DE010C94DE010C94DE01A4
:100060000C94DE010C94DE01AB120200A0009D0195
:10007000AB02640008000000060000000000000061
:10008000E8030A0005000000000000000000000076
:10009000000000000000000054523D7878782043B2
:1000A000523D7878782043463D7878782050573D07
:1000B0007878782048533D787878782052543D7885
:1000C0007878782046423D78782042413D787878AB
:1000D0002041483D7878782E780D0A0070632D74A1
:1000E000696D65006261742D616D70732D6C696D51
:1000F000006D6F746F722D73632D616D707300707E
:10010000776D2D646561647A6F6E65006D6F746FD5
:10011000722D6F732D6474006D6F746F722D6F7319
:100120002D6674006D6F746F722D6F732D7468007F
:1001300070776D2D66696C746572007274642D70D1
:100140006572696F6400632D727200742D70776D33
:100150002D6761696E00742D706F732D6761696E14
:1001600000742D6661756C742D726300742D6D6161
:10017000782D726300742D6D696E2D7263006B694A
:10018000006B70006261747465727920616D70201B
:10019000686F7572732072657365740D0A007265FD
:1001A0007365742D616800726573746172740041C7
:1001B000565220787878252069646C650D0A0069AC
:1001C000646C6500636F6E66696775726174696FF0
:1001D0006E207772697474656E20746F2045450DCA
:1001E0000A007361766500636F6E666967007072FE
:1001F000656368617267655F74696D653D7878787D
:100200000D0A00626174746572795F616D70735F6D
:100210006C696D69743D7878780D0A006D6F746F44
:10022000725F73706565645F63616C635F616D705D
:10023000733D7878780D0A006D6F746F725F6F731D
:100240005F6474696D653D78782070776D5F646573
:1002500061647A6F6E653D78780D0A006D6F746F1A
:10026000725F6F735F7468726573686F6C643D78FA
:10027000787878206D6F746F725F6F735F667469E2
:100280006D653D787878780D0A0070776D5F6669E6
:100290006C7465723D780D0A007274645F706572EB
:1002A000696F643D78787878780D0A0063757272AA
:1002B000656E745F72616D705F726174653D7878B0
:1002C000780D0A007468726F74746C655F706F7378
:1002D0005F6761696E3D787878207468726F7474B6
:1002E0006C655F70776D5F6761696E3D7878780DDA
:1002F0000A007468726F74746C655F6661756C7403
:100300005F7261775F636F756E74733D787878782C
:100310000D0A007468726F74746C655F6D696E5F4E
:100320007261775F636F756E74733D78787878204B
:100330007468726F74746C655F6D61785F726177F9
:100340005F636F756E74733D787878780D0A004B33
:10035000703D787878204B693D7878780D0A0043B5
:100360006F75676172204F5320636F6E74726F6C8C
:100370006C6572206669726D776172652076312EC8
:100380003131620D0A0011241FBECFEFD4E0DEBF71
:10039000CDBF11E0A0E0B1E0E8E2F0E202C00590DC
:1003A0000D92A230B107D9F712E0A2E0B1E001C08E
:1003B0001D92AA37B107E1F70C94BA0C0C94000017
:1003C000FC0188279927E89421912223F1F020321B
:1003D000D9F32930C9F32A30B9F32C30A9F32D30E1
:1003E00099F3263789F32B3219F02D3221F46894D2
:1003F0002191222351F0203344F02A3334F4205346
:100400000E942702820F911DF3CF8115910521F0E3
:100410001EF48095909501960895FB01DC0102C0C1
:1004200005900D9241505040D8F70895FB01DC0132
:100430008D910590801911F40020D1F7990B089542
:10044000FB01DC0105900D920020E1F708957AE0B0
:10045000979F902D879F802D910D11240895AC01B9
:10046000892BD9F0E0E0F0E02FEF3FEF84912827CF
:10047000022E2295207F2025032E322F22952F70C9
:100480000226269532272327220F220F220F20250E
:1004900031964E175F0751F702C02FEF3FEFC901AA
:1004A0000895DC01892BE9F020E030E04FEF5FEFA9
:1004B000FB0181914827042E4295407F4025052E5F
:1004C000542F42954F700426469554274527440FD4
:1004D000440F440F40252F5F3F4FA217B30749F742
:1004E00002C04FEF5FEFCA010895F894A89584B752
:1004F000877F84BFE0E6F0E080818861808310829E
:1005000078940895F894A895E0E6F0E080818861F9
:1005100080838CE08083789408959B01542F415010
:100520004F3FA1F0FC01E50FF11D3197C9016AE0D1
:1005300070E00E94AD0F805D80833197C9016AE051
:1005400070E00E94AD0F9B01415080F70895242F69
:1005500021502F3FC9F0FC01E40FF11D31970CC071
:10056000895C808321502F3F79F031977295629595
:100570006F7067277F706727862F8F708A3080F7AC
:10058000805D8083215088F70895FC01F894609184
:100590000801709109017894F89480910801909174
:1005A00009017894861B970B8E179F07A0F420E013
:1005B00030E040E050E02F5F3F4F4F4F5F4FF894E7
:1005C00080910801909109017894861B970B8E17F2
:1005D0009F0788F304C020E030E040E050E0CA010B
:1005E000B90108956F927F928F929F92AF92BF92BE
:1005F000CF92DF92EF92FF920F931F93CF93DF93EF
:1006000040918A0150918B0160909C0170909D01F6
:10061000789421E04A39520728F4809100018260E1
:100620008093000120910C0130910D014217530776
:1006300008F0D5C0C0E0D0E0D0931B01C0931A01F0
:100640008090180190901901C4018C1B9D0B5C01D6
:10065000CC24B7FCC094DC2CA092A601B092A701D8
:10066000C092A801D092A9018114910409F0CEC0D2
:100670001092AE011092AF011092B0011092B10130
:10068000A092AA01B092AB01C092AC01D092AD0190
:1006900020E030E0F894309389002093880078942B
:1006A00030930B0120930A0180910A0190910B0174
:1006B000AA27BB278C01FF24EE248091C60181303C
:1006C00009F474C1813008F005C120911001309106
:1006D00011014091120150911301DA01C901880FF3
:1006E000991FAA1FBB1F880F991FAA1FBB1F880F26
:1006F000991FAA1FBB1F880F991FAA1FBB1F880F16
:10070000991FAA1FBB1F880F991FAA1FBB1F880F05
:10071000991FAA1FBB1F821B930BA40BB50B9C0137
:10072000AD012E0D3F1D401F511FE7E05695479527
:1007300037952795EA95D1F7209310013093110151
:100740004093120150931301CA01AA27BB27AC01A1
:1007500090930F0180930E01809131018F5F809300
:100760003101992783709070009709F0D1C0809172
:10077000BC019091BD018615970508F053C1809189
:100780002F0190913001009709F063C16091BA0187
:100790007091BB016615770508F468C18091B801B6
:1007A0009091B90193016816790608F49C017B01C8
:1007B000E81AF90A621B730B882799272FEF31E09B
:1007C00040E050E00E948E0F00271127A8019701FA
:1007D0000E94D40F3093170120931601DCC2421BF4
:1007E000530BCA01880F991FEC01CC0FDD1FCC0FF2
:1007F000DD1FCC0FDD1FC80FD91FC40FD51FD69525
:10080000C795D695C795D695C79516CF20919E01C9
:1008100030919F014091A0015091A101C601B50105
:100820000E948E0F7B018C016091A2017091A30147
:100830008091A4019091A5012091AA013091AB0172
:100840004091AC015091AD010E948E0F2091AE01FC
:100850003091AF014091B0015091B101260F371F87
:10086000481F591FE20EF31E041F151FE092AE0130
:10087000F092AF010093B0011093B101A092AA01D0
:10088000B092AB01C092AC01D092AD0161E0E6162E
:1008900060E0F6066EEF060761E0160774F180E08F
:1008A00090E0AEEFB1E08093AE019093AF01A093E2
:1008B000B001B093B1018091AE019091AF01A091D0
:1008C000B001B091B101CD01BB2797FDB095AB2F21
:1008D0009C01E0CE823009F492C1833009F4DBC080
:1008E00020E030E040E050E0109210011092110141
:1008F000109212011092130127CF17FFBDC0109262
:10090000AE011092AF011092B0011092B101D3CF9D
:100910008130910509F4F3C08230910509F4A7C133
:10092000039709F038C28091C8019091C901892BC1
:1009300009F431C28091000186FDF0C12091CE0101
:100940003091CF0180910A0190910B01281739074E
:1009500008F407C260E070E080E090E02091D401EC
:100960003091D5012C173D0708F0F4C19E014427B2
:1009700037FD4095542F0E94D40F8091260190910D
:100980002701A0912801B091290182179307A4079C
:10099000B50708F0DCC190912C018091CC0198172B
:1009A00008F0EAC19F5F90932C01F5C120911001DE
:1009B000309111014091120150911301DA01C901E6
:1009C000880F991FAA1FBB1F880F991FAA1FBB1F43
:1009D000880F991FAA1FBB1F880F991FAA1FBB1F33
:1009E000880F991FAA1FBB1F880F991FAA1FBB1F23
:1009F000821B930BA40BB50B9C01AD012E0D3F1D6B
:100A0000401F511FE6E05695479537952795EA9583
:100A1000D1F72093100130931101409312015093AC
:100A2000130192CE80912F0190913001883C910565
:100A300008F0B1C101969093300180932F01883C5A
:100A4000910508F4A8C180910001816080930001A4
:100A5000A2C101979093300180932F016091BA0158
:100A60007091BB016615770508F098CE9B018091C7
:100A7000B8019091B9019BCEC801BB2797FDB095F5
:100A8000AB2F9C01C70180709078892B09F402CEAE
:100A90002F5F3F4FFFCD2091100130911101409108
:100AA000120150911301DA01C901880F991FAA1F81
:100AB000BB1F880F991FAA1FBB1F880F991FAA1F52
:100AC000BB1F880F991FAA1FBB1F821B930BA40B70
:100AD000B50B9C01AD012E0D3F1D401F511F14E0B1
:100AE00056954795379527951A95D1F7209310017C
:100AF00030931101409312015093130125CE809140
:100B0000BE019091BF012091160130911701B901EA
:100B1000869F9001879F300D969F300D112436954A
:100B2000279536952795369527958091C001909108
:100B3000C101BC01469FC001479F900D569F900D7B
:100B40001124969587959695879596958795821702
:100B5000930708F0D9C0281B390BC9012091140153
:100B6000309115012817390708F4EDC08819990943
:100B70002091C2013091C301281739074CF0662734
:100B80007727621B730B9C01861797070CF4D9C05B
:100B9000E901C80DD91DD0931901C09318018091A6
:100BA000D0019091D101892B01F141155105E9F056
:100BB000CA019C01442755276091220170912301AD
:100BC00080912401909125010E94D40F2F3F91E044
:100BD000390790E0490790E0590738F42C173D0792
:100BE00020F430931901209318018091000188238B
:100BF00009F4D1C01092190110921801CCC02091B3
:100C00001001309111014091120150911301DA014C
:100C1000C901880F991FAA1FBB1F880F991FAA1F00
:100C2000BB1F880F991FAA1FBB1F880F991FAA1FE0
:100C3000BB1F880F991FAA1FBB1F821B930BA40BFE
:100C4000B50B9C01AD012E0D3F1D401F511FE5E06E
:100C50005695479537952795EA95D1F7209310013A
:100C60003093110140931201509313016DCD2091E7
:100C70000A0130910B01BE01882777FD8095982FDE
:100C8000442755270E948E0F672F782F892F992789
:100C90009B0170931D0160931C0160FF38C0369565
:100CA00027952F5F3F4F30931D0120931C018091AA
:100CB0001C0190911D01AA27BB2720911E01309194
:100CC0001F014091200150912101820F931FA41F09
:100CD000B51F80931E0190931F01A0932001B09334
:100CE000210181509842AB46BE4E08F454C080E0CA
:100CF00098E2ABE6BEEE80931E0190931F01A09395
:100D00002001B093210147C080E090E02FCF3695BD
:100D1000279530931D0120931C01C9CF80912A0192
:100D200090912B010097B9F1019790932B0180933B
:100D30002A01892B81F5809100018F7B809300012E
:100D40002AC09B0125CFC9018819990911CF10929A
:100D50002C0121C02F5F3F4F442755270E94D40FFD
:100D60000CCE80910A0190910B01821B930BAA2754
:100D7000BB2777276627F2CD80910001806480939E
:100D8000000110922C018091CA019091CB019093A7
:100D90002B0180932A01DF91CF911F910F91FF903A
:100DA000EF90DF90CF90BF90AF909F908F907F900B
:100DB0006F9008951F920F920FB60F9211248F9388
:100DC0009F938091080190910901019690930901E8
:100DD000809308019F918F910F900FBE0F901F90ED
:100DE000189540E020E030E062E457EC60937C002E
:100DF00080917C0080937C0050937A0080917A00EF
:100E000086FDFCCF8091780090917900280F391FE2
:100E10004F5F403159F7C901929582958F708927AC
:100E20009F70892790930D0180930C0120E08E5CC8
:100E300091408536910508F021E081E02827822F36
:100E400099270895CF93DF93CDB7DEB728970FB6D4
:100E5000F894DEBF0FBECDBF8091B4019091B50173
:100E6000AA2797FDA095BA2F3AE0880F991FAA1FCD
:100E7000BB1F3A95D1F789839A83AB83BC832981C1
:100E80003A814B815C818091B6019091B701AA278C
:100E900097FDA095BA2F821B930BA40BB50B8D83E6
:100EA0009E83AF83B887F89489819A81AB81BC8196
:100EB00080939E0190939F01A093A001B093A10104
:100EC0008D819E81AF81B8858093A2019093A3010B
:100ED000A093A401B093A501789428960FB6F89436
:100EE000DEBF0FBECDBFDF91CF910895F894809102
:100EF00016019091170190938D0180938C01789445
:100F00000000000000000000F8948091180190910A
:100F1000190190938F0180938E0178940000000056
:100F200000000000F89480911A0190911B019093A9
:100F3000910180939001789400000000000000006F
:100F4000F894809188019091890190939301809306
:100F5000920178940000000000000000F894809155
:100F60009C0190919D0190939501809394017894B8
:100F70000000000000000000F89480911C01909196
:100F80001D019093970180939601789400000000D2
:100F900000000000F89480911E0190911F01A09123
:100FA0002001B09121018093980190939901A09321
:100FB0009A01B0939B0178940000000000000000AB
:100FC0000895809192019091930122E08F399207C8
:100FD00020F19C012E59324036952795369527955C
:100FE0003695279527303105A8F487E090E0821BDD
:100FF000930B2FEF31E0AC01429FC001439F900D56
:10100000529F900D11249695879596958795969564
:10101000879505C080E090E002C08FEF91E0F894E2
:10102000909315018093140178940895CF93DF93E2
:10103000EC0180FD00C1C1FDE3C0C2FDCFC0C3FD16
:10104000B2C0C4FD9EC0C5FD8AC0C6FD76C0C7FD46
:1010500059C0D0FD3CC0D1FD28C0D2FD14C0D3FF83
:1010600005C16EEE71E084E391E00E942002609180
:10107000D2017091D30143E083E491E00E948D029C
:101080000E946E0FF3C063E072E084E391E00E947F
:1010900020026091D0017091D10143E087E491E09A
:1010A0000E948D020E946E0FDACF6CE172E084E341
:1010B00091E00E9420026091D4017091D50143E03B
:1010C0008AE491E00E948D020E946E0FC6CF68E311
:1010D00072E084E391E00E9420026091CC01709163
:1010E000CD0142E083E491E00E948D026091CE0147
:1010F0007091CF0142E083E591E00E948D020E9451
:101100006E0FA9CF6CE572E084E391E00E942002AB
:101110006091C8017091C90144E087E491E00E94A8
:101120008D026091CA017091CB0144E08BE591E0A2
:101130000E948D020E946E0F8CCF6AE872E084E3F9
:1011400091E00E9420026091C6017091C70141E0C8
:101150008FE391E00E948D020E946E0F78CF69E9C3
:1011600072E084E391E00E9420026091C4017091DA
:10117000C50145E08FE391E00E948D020E946E0F51
:1011800064CF6CEA72E084E391E00E9420026091F7
:10119000C2017091C30143E086E491E00E948D0298
:1011A0000E946E0F50CF64EC72E084E391E00E94E5
:1011B00020026091BE017091BF0143E086E491E09E
:1011C0000E948D026091C0017091C10143E08CE5E5
:1011D00091E00E948D020E946E0F33CF62EF72E0A9
:1011E00084E391E00E9420026091BC017091BD01F6
:1011F00044E08EE491E00E948D020E946E0F1FCFAA
:1012000063E173E084E391E00E9420026091B80101
:101210007091B90144E08CE491E00E948D026091EC
:10122000BA017091BB0144E089E691E00E948D0211
:101230000E946E0F02CF6FE473E084E391E00E949E
:1012400020026091B4017091B50143E087E391E021
:101250000E948D026091B6017091B70143E08EE368
:1012600091E00E948D020E946E0FE5CEDF91CF913A
:1012700008956FE573E084E391E00E9420020E94EC
:101280006E0F0895FF920F931F93CF93DF9302EB9E
:1012900011E0B8018EE290E00E9451029093E101CA
:1012A0008093E001C0E0D0E060E3F62E0E9475027A
:1012B000DE01F8011F2C0E94FB0F0E948202E096C3
:1012C000C03CD10599F7DF91CF911F910F91FF900D
:1012D00008950F931F93CF93DF938C01EB0167EE7B
:1012E00071E00E941602892B29F48FEF9FEF0E9474
:1012F0001608FCC162EE71E0C8010E941602892B3B
:1013000089F06FEB71E0C8010E941602892BA9F0E9
:1013100067EA71E0C8010E941602892B91F50E94CC
:101320008202FFCF0E94420964EC71E084E391E005
:101330000E9420020E946E0FD9C16FEA71E084E31F
:1013400091E00E94200284E690E00E94C50224E61B
:1013500030E040E050E00E948E0F209184013091F7
:10136000850140918601509187010E94D40FCA01E6
:10137000B90143E088E391E00E948D020E946E0F64
:10138000B5C16EE971E0C8010E941602892B99F47B
:10139000F89410921E0110921F01109220011092D9
:1013A0002101789464E871E084E391E00E942002D6
:1013B0000E946E0F9BC161E871E0C8010E94160295
:1013C000892B81F481E0C53FD80708F08FC1D09305
:1013D000B501C093B4010E94220781E090E00E9411
:1013E000160884C16EE771E0C8010E941602892BBD
:1013F00081F481E0C53FD80708F078C1D093B701E8
:10140000C093B6010E94220781E090E00E94160876
:101410006DC165E771E0C8010E941602892B81F455
:1014200084E0C030D80708F061C1F894D093B901C6
:10143000C093B801789482E090E00E94160856C1EB
:101440006CE671E0C8010E941602892B81F484E0E9
:10145000C030D80708F04AC1F894D093BB01C093BC
:10146000BA01789482E090E00E9416083FC161E6DC
:1014700071E0C8010E941602892B81F484E0C0301B
:10148000D80708F033C1F894D093BD01C093BC01D4
:10149000789484E090E00E94160828C166E571E027
:1014A000C8010E941602892B79F4C138D10508F0D1
:1014B0001DC1F894D093BF01C093BE01789488E019
:1014C00090E00E94160812C16BE471E0C8010E940E
:1014D0001602892B79F4C138D10508F007C1F894B8
:1014E000D093C101C093C001789488E090E00E943D
:1014F0001608FCC066E471E0C8010E941602892B40
:1015000079F4C536D10508F0F1C0F894D093C30141
:10151000C093C201789480E190E00E941608E6C072
:101520006BE371E0C8010E941602892BC1F48DE7BC
:10153000C130D80708F0DAC0D093C501C093C40108
:10154000F894809108019091090178949093330167
:101550008093320180E290E00E941608C7C060E3E9
:1015600071E0C8010E941602892B79F4C430D105BC
:1015700008F0BCC0F894D093C701C093C60178941A
:1015800080E490E00E941608B1C064E271E0C801F6
:101590000E941602892B01F587E2C031D80708F0B6
:1015A000A5C0D093C901C093C801CE01AA27BB270B
:1015B0007AE0880F991FAA1FBB1F7A95D1F78093F5
:1015C000260190932701A0932801B093290180E878
:1015D00090E00E9416088AC068E171E0C8010E948C
:1015E0001602892B71F487E2C031D80708F07EC05B
:1015F000D093CB01C093CA0180E890E00E94160806
:1016000075C06CE071E0C8010E941602892B69F474
:10161000C436D10508F06AC0D093CD01C093CC0187
:1016200080E091E00E94160861C06FEF70E0C80191
:101630000E941602892B69F4C436D10508F056C001
:10164000D093CF01C093CE0180E091E00E941608B4
:101650004DC061EF70E0C8010E941602892B71F441
:1016600082E0C030D80708F041C0D093D501C093C4
:10167000D40180E092E00E94160838C064EE70E069
:10168000C8010E941602892BF1F482E0C030D8070D
:1016900068F5D093D101C093D001BE018827992766
:1016A0002EEF31E040E050E00E948E0F6093220167
:1016B00070932301809324019093250180E094E0AE
:1016C0000E94160813C06CED70E0C8010E9416025B
:1016D000892B61F483E0C83ED80740F4D093D3014E
:1016E000C093D20180E098E00E941608DF91CF916C
:1016F0001F910F910895CF92DF92EF92FF920F9377
:101700001F93CF93DF93CDB7DEB7E0970FB6F89472
:10171000DEBF0FBECDBFDD2400E010E07E010894E7
:10172000E11CF11CDD0C80E3D801F701182E0E94AA
:10173000F60F005D1F4F89819A818B5A924129F1E2
:10174000003C110579F7DD2009F45DC000E010E0F0
:10175000F0E3CF2EE2EBEE2EE1E0FE2E06C00039E4
:10176000110509F458C0005D1F4FDD0CD4FCF7CF04
:101770000E947502D801F7011C2C0E94FB0F0E94E9
:1017800082020039110579F746C0B7018EE290E078
:101790000E9451022FA538A98217930789F621E0EC
:1017A000D22AA2EBB1E0F70180E301900D928150C3
:1017B000E1F78091C8019091C901AA27BB272AE0CF
:1017C000880F991FAA1FBB1F2A95D1F78093260166
:1017D00090932701A0932801B09329016091D00133
:1017E0007091D101882799272EEF31E040E050E039
:1017F0000E948E0F60932201709323018093240135
:10180000909325019DCF40E350E068E670E082EBC5
:1018100091E00E940D02E0960FB6F894DEBF0FBE75
:10182000CDBFDF91CF911F910F91FF90EF90DF908F
:10183000CF9008951F920F920FB60F9211242F93FD
:101840003F934F935F936F937F938F939F93AF9348
:10185000BF93EF93FF93809102018F5F809302010A
:1018600080FF77C0809103018F5F8093030180FD2B
:1018700022C0809178009091790090938B018093A1
:101880008A01809105018F5F80930501823018F0F5
:1018900080E010920501806480937C0080917C0040
:1018A00080937C0087EC80937A00809107018823E5
:1018B00009F04FC042C0209178003091790082E455
:1018C00080937C0080917C0080937C0087EC8093E7
:1018D0007A0080910501882349F530939D0120937A
:1018E0009C01809104018F5F80930401992783708C
:1018F0009070892B49F4809108019091090101961B
:101900009093090180930801189B20C080910601E3
:101910008F5F809306018430E0F0109206012A98D0
:1019200000000000000000002A9A13C08130C9F6B0
:101930003093890120938801D4CF81E080930701FF
:101940000E94F202F8941092070103C080910601F0
:10195000E2CFFF91EF91BF91AF919F918F917F91D6
:101960006F915F914F913F912F910F900FBE0F900C
:101970001F901895BF92CF92DF92EF92FF920F9334
:101980001F93CF93DF93CDB7DEB7A0970FB6F89430
:10199000DEBF0FBECDBF0AE210E2F801059114913F
:1019A0008AE290E20E942F020817190709F0FFCF80
:1019B0008FEB8BB980EC8AB988EF88B98DEF85B948
:1019C00086E084B987E080937E0080E480937C0089
:1019D00087E880937A0082E480937C0080917C0089
:1019E00080937C0087EC80937A0080917A0086FD5A
:1019F000FCCF109285001092840089E090E49093CF
:101A00008700809386001092800089E18093810096
:101A100080E280936F000E947B0B2091D201309175
:101A2000D3012115310559F0809100018062809326
:101A300000012B5F3F4F30932E0120932D010E9418
:101A4000220784E690E00E94C502609384017093AF
:101A5000850180938601909387010E9482020E94F3
:101A6000F106882329F480910001826080930001AF
:101A70002A9800000000000000002A9A10926F00CF
:101A800010928100109285001092840010928900BB
:101A90001092880082E88093800081E0809381002A
:101AA000109289001092880080936F000E94820F2C
:101AB0000E943909F894C0900801D09009017894E7
:101AC000D0923301C09232017E010894E11CF11CD6
:101AD00080E2F70111928A95E9F7BB24A8950E944C
:101AE0001F0F8C0197FD12C08D30910509F462C063
:101AF0000E94430FFEE1FB1548F0F701EB0DF11DCD
:101B00000083B394F701EB0DF11D10820E9476075C
:101B10000E94E1072091C4013091C50121153105D2
:101B200081F04091320150913301F8948091080185
:101B3000909109017894841B950B8217930708F004
:101B400069C0F894809108019091090178948C19EA
:101B50009D098436910508F4C1CFE4E6F0E0CE0E8D
:101B6000DF1E80910001882309F44FC08BB190E4FF
:101B700089278BB98091000187FDE0C08091000129
:101B800085FFACCF80912D0190912E01009709F037
:101B9000CBC0F894809100018F7D809300017894F0
:101BA000A8950E941F0F8C0197FDB0CF8D30910535
:101BB00009F09ECF8AE00E94430F8DE00E94430F00
:101BC000BB2029F12B2D3327C901019718161906BF
:101BD000A4F48981803209F4C0C0A0E0B0E007C05D
:101BE000F701EA0FFB1F8081803209F494C011963F
:101BF000C90101978A179B0799F76FEF7FEFC7011C
:101C00000E9469091982BB2481CF5E9A67CF0E9426
:101C10003909F8CF240F351F309333012093320157
:101C200068E970E084E391E00E94200260918C01F9
:101C300070918D0143E087E391E00E948D026091F5
:101C40008E0170918F0143E08EE391E00E948D023E
:101C5000609190017091910143E085E491E00E94D0
:101C60008D02F89460910A0170910B01789443E021
:101C70008CE491E00E948D02609192017091930139
:101C800044E083E591E00E948D026091940170919F
:101C9000950144E08BE591E00E948D026091000186
:101CA000772742E083E691E00E94A70260919601C7
:101CB0007091970143E089E691E00E948D02609166
:101CC00098017091990180919A0190919B012AE469
:101CD0003DE545E050E00E94D40F89012051374294
:101CE00014F00FE017E2C8016AE070E00E94C10F33
:101CF00043E080E791E00E948D02C8016AE070E055
:101D00000E94C10F41E0BC0184E791E00E948D0276
:101D10000E946E0F16CFCF01AE0DBF1D1C92019613
:101D20000E94E001BC016BCF8630910508F45F98FA
:101D3000019790932E0180932D01D0CE80918C013C
:101D400090918D0103970CF019CFF89480910001C8
:101D50008F7780930001789411CFA0E0B0E0C701A5
:101D6000DBCF1F920F920FB60F9211242F933F9348
:101D70004F938F939F93EF93FF934091C6002091D1
:101D80007202309173022F5F3F4F2031310510F006
:101D900020E030E080917402909175022817390795
:101DA00059F0E0917202F0917302EE51FE4F4083C0
:101DB0003093730220937202FF91EF919F918F9164
:101DC0004F913F912F910F900FBE0F901F9018953C
:101DD0001F920F920FB60F9211242F933F938F9360
:101DE0009F93EF93FF932091780230917902809135
:101DF0007602909177022817390799F0F901EE5190
:101E0000FE4F80898093C600F9013196E038F105D4
:101E100028F4F0937902E093780206C0E0E0F0E065
:101E2000F8CF88E98093C100FF91EF919F918F9146
:101E30003F912F910F900FBE0F901F9018952091FA
:101E4000740230917502F89480917202909173023D
:101E5000789428173907A1F0F901EE51FE4F8081DF
:101E6000F9013196E031F10540F4F894F0937502F0
:101E7000E0937402789499270895E0E0F0E0F5CFBC
:101E80008FEF9FEF0895482F2091760230917702CF
:101E90002F5F3F4F2038310510F020E030E0F894FC
:101EA000809178029091790278942817390799F0F7
:101EB000E0917602F0917702EE51FE4F408BF8945C
:101EC0003093770220937602789488EB8093C10058
:101ED00080E090E0089581E090E008951F93CF9313
:101EE000DF93C4E3D1E01991112341F0812F0E94C7
:101EF000430F8823D9F719911123C1F7DF91CF91AF
:101F00001F91089583E38093C4001092C50086E07A
:101F10008093C20088E98093C1000895629FD00138
:101F2000739FF001829FE00DF11D649FE00DF11D94
:101F3000929FF00D839FF00D749FF00D659FF00D43
:101F40009927729FB00DE11DF91F639FB00DE11D30
:101F5000F91FBD01CF0111240895AA1BBB1B51E13C
:101F600007C0AA1FBB1FA617B70710F0A61BB70B09
:101F7000881F991F5A95A9F780959095BC01CD01AE
:101F8000089597FB092E07260AD077FD04D0E5DFD8
:101F900006D000201AF4709561957F4F0895F6F7EA
:101FA000909581959F4F0895A1E21A2EAA1BBB1B05
:101FB000FD010DC0AA1FBB1FEE1FFF1FA217B30715
:101FC000E407F50720F0A21BB30BE40BF50B661F2B
:101FD000771F881F991F1A9469F7609570958095EF
:101FE00090959B01AC01BD01CF01089509D00192EC
:101FF0001A94E1F7089501900BD01A94E1F708952F
:10200000F999FECFB2BDA1BDF89A119600B408951A
:10201000F999FECFB2BDA1BD00BC11960FB6F894E0
:08202000FA9AF99A0FBE089527
:02202800800036
:00000001FF
