:100000000C948C010C94A7010C94A7010C94A701EB
:100010000C94A7010C94A7010C94A7010C94A701C0
:100020000C94A7010C94A7010C9473060C94A701DF
:100030000C94A7010C94FB0A0C94A7010C94A70143
:100040000C94A7010C94A7010C949B0D0C94D20D59
:100050000C94A7010C94A7010C94A7010C94A70180
:100060000C94A7010C94A701AB120200A0009D0103
:10007000AB02640008000000060000000000000061
:10008000000000000000000054523D7878782043C2
:10009000523D7878782043463D7878782050573D17
:1000A0007878782048533D787878782052543D7895
:1000B0007878782046423D78782042413D787878BB
:1000C0002041483D7878782E780D0A0070632D74B1
:1000D000696D65006261742D616D70732D6C696D61
:1000E000006D6F746F722D6F732D6674006D6F7479
:1000F0006F722D6F732D74680070776D2D66696C4B
:10010000746572007274642D706572696F64006347
:100110002D727200742D70776D2D6761696E007499
:100120002D706F732D6761696E00742D6661756C3B
:10013000742D726300742D6D61782D726300742DBF
:100140006D696E2D7263006B69006B700062617483
:100150007465727920616D7020686F75727320729A
:10016000657365740D0A0072657365742D616800AE
:1001700072657374617274004156522078787825E4
:100180002069646C650D0A0069646C6500636F6EBC
:1001900066696775726174696F6E207772697474CD
:1001A000656E20746F2045450D0A00736176650009
:1001B000636F6E6669670070726563686172676518
:1001C0005F74696D653D7878780D0A0062617474BA
:1001D0006572795F616D70735F6C696D69743D788C
:1001E00078780D0A006D6F746F725F6F735F66745D
:1001F000696D653D787878780D0A006D6F746F725F
:100200005F6F735F7468726573686F6C643D787854
:1002100078780D0A0070776D5F66696C7465723D61
:10022000780D0A007274645F706572696F643D785E
:10023000787878780D0A0063757272656E745F72F3
:10024000616D705F726174653D7878780D0A007435
:1002500068726F74746C655F706F735F6761696EED
:100260003D787878207468726F74746C655F70770D
:100270006D5F6761696E3D7878780D0A0074687209
:100280006F74746C655F6661756C745F7261775FC3
:10029000636F756E74733D787878780D0A007468B2
:1002A000726F74746C655F6D696E5F7261775F63A6
:1002B0006F756E74733D78787878207468726F7497
:1002C000746C655F6D61785F7261775F636F756E87
:1002D00074733D787878780D0A004B703D787878A3
:1002E000204B693D7878780D0A00436F756761721D
:1002F000204F5320636F6E74726F6C6C6572206652
:1003000069726D776172652076312E382028384BFE
:1003100050574D290D0A000011241FBECFEFD4E025
:10032000DEBFCDBF11E0A0E0B1E0ECEFFDE102C027
:1003300005900D92A230B107D9F712E0A2E0B1E02A
:1003400001C01D92AA36B107E1F70C949A0B0C94E8
:100350000000FC0188279927E89421912223F1F0DD
:100360002032D9F32930C9F32A30B9F32C30A9F35C
:100370002D3099F3263789F32B3219F02D3221F4E1
:1003800068942191222351F0203344F02A3334F42D
:1003900020530E94F001820F911DF3CF811591052A
:1003A00021F01EF48095909501960895FB01DC01E3
:1003B00002C005900D9241505040D8F70895FB01BE
:1003C000DC018D910590801911F40020D1F7990B73
:1003D0000895FB01DC0105900D920020E1F70895DE
:1003E0007AE0979F902D879F802D910D112408957D
:1003F000AC01892BD9F0E0E0F0E02FEF3FEF8491E2
:100400002827022E2295207F2025032E322F229589
:100410002F700226269532272327220F220F220F24
:10042000202531964E175F0751F702C02FEF3FEF9F
:10043000C9010895DC01892BE9F020E030E04FEF9D
:100440005FEFFB0181914827042E4295407F4025B4
:10045000052E542F42954F70042646955427452764
:10046000440F440F440F40252F5F3F4FA217B3079F
:1004700049F702C04FEF5FEFCA0108959B01542F67
:1004800041504F3FA1F0FC01E50FF11D3197C9012B
:100490006AE070E00E94970E805D80833197C90109
:1004A0006AE070E00E94970E9B01415080F708952A
:1004B000242F21502F3FC9F0FC01E40FF11D31978B
:1004C0000CC0895C808321502F3F79F03197729561
:1004D00062956F7067277F706727862F8F708A30CD
:1004E00080F7805D8083215088F70895FC01F8949F
:1004F00060910801709109017894F8948091080145
:10050000909109017894861B970B8E179F07A0F492
:1005100020E030E040E050E02F5F3F4F4F4F5F4F13
:10052000F89480910801909109017894861B970BAB
:100530008E179F0788F304C020E030E040E050E0D1
:10054000CA01B90108956F927F928F929F92AF92E4
:10055000BF92CF92DF92EF92FF920F931F93CF93B0
:10056000DF9340918A0150918B0160909C017090C3
:100570009D01789421E04A39520728F480910001C6
:1005800082608093000120910C0130910D0142178F
:10059000530708F0D8C0C0E0D0E0D0931B01C0934F
:1005A0001A018090180190901901C4018C1B9D0BB9
:1005B0005C01CC24B7FCC094DC2CA092A601B092C4
:1005C000A701C092A801D092A9018114910409F059
:1005D000D2C01092AE011092AF011092B0011092F1
:1005E000B101A092AA01B092AB01C092AC01D0922D
:1005F000AD0120E030E0F894C901880F991F909375
:10060000890080938800789430930B0120930A012D
:1006100080910A0190910B01AA27BB278C01FF242E
:10062000EE248091C601813009F46BC1813008F05D
:1006300006C1209110013091110140911201509199
:100640001301DA01C901880F991FAA1FBB1F880F68
:10065000991FAA1FBB1F880F991FAA1FBB1F880FB6
:10066000991FAA1FBB1F880F991FAA1FBB1F880FA6
:10067000991FAA1FBB1F880F991FAA1FBB1F821B90
:10068000930BA40BB50B9C01AD012E0D3F1D401F1C
:10069000511FE7E05695479537952795EA95D1F78D
:1006A00020931001309311014093120150931301D4
:1006B000CA01AA27BB27AC0190930F0180930E01BA
:1006C000809131018F5F8093310199278370907001
:1006D000009709F0D2C08091BC019091BD018615B0
:1006E000970508F04AC180912F0190913001009741
:1006F00009F05AC16091BA017091BB016615770586
:1007000008F45FC18091B8019091B9019301681616
:10071000790608F49C017B01E81AF90A621B730B45
:10072000882799272FEF31E040E050E00E94780EB3
:1007300000271127A80197010E94BE0E30931701D0
:1007400020931601C1C2421B530B9A01CA01880FA4
:10075000991FEC01CC0FDD1FCC0FDD1FCC0FDD1F6F
:10076000C80FD91FC20FD31FD695C795D695C79569
:10077000D695C79512CF20919E0130919F0140914F
:10078000A0015091A101C601B5010E94780E7B0124
:100790008C016091A2017091A3018091A4019091BC
:1007A000A5012091AA013091AB014091AC0150917B
:1007B000AD010E94780E2091AE013091AF014091C1
:1007C000B0015091B101260F371F481F591FE20E8B
:1007D000F31E041F151FE092AE01F092AF010093CB
:1007E000B0011093B101A092AA01B092AB01C092E6
:1007F000AC01D092AD0161E0E61660E0F6066EEF66
:10080000060761E0160774F180E090E0AEEFB1E01A
:100810008093AE019093AF01A093B001B093B1016A
:100820008091AE019091AF01A091B001B091B10162
:10083000CD01BB2797FDB095AB2F9C01DCCE82305C
:1008400009F488C1833009F4D1C020E030E040E0F1
:1008500050E01092100110921101109212011092AA
:10086000130126CF17FFB3C01092AE011092AF0153
:100870001092B0011092B101D3CF8130910509F4EB
:10088000E9C08230910509F49DC1039709F01CC2AB
:100890008091C8019091C901892B09F415C28091FA
:1008A000000186FDE6C180910A0190910B01AA2703
:1008B000BB278C01FF24EE241C161D065CF49E0150
:1008C000442737FD4095542FC801B7010E94BE0E42
:1008D00079018A018091260190912701A091280138
:1008E000B09129018E159F05A007B10708F0DAC164
:1008F00080912C01853008F0D8C18F5F80932C0146
:10090000E3C12091100130911101409112015091E9
:100910001301DA01C901880F991FAA1FBB1F880F95
:10092000991FAA1FBB1F880F991FAA1FBB1F880FE3
:10093000991FAA1FBB1F880F991FAA1FBB1F880FD3
:10094000991FAA1FBB1F821B930BA40BB50B9C0105
:10095000AD012E0D3F1D401F511FE6E056954795F6
:1009600037952795EA95D1F720931001309311011F
:1009700040931201509313019BCE80912F019091CF
:100980003001883C910508F09FC101969093300199
:1009900080932F01883C910508F496C18091000155
:1009A00081608093000190C1019790933001809302
:1009B0002F016091BA017091BB016615770508F0AF
:1009C000A1CE9B018091B8019091B901A4CEC8013C
:1009D000BB2797FDB095AB2F9C01C7018070907825
:1009E000892B09F408CE2F5F3F4F05CE20911001CF
:1009F000309111014091120150911301DA01C901A6
:100A0000880F991FAA1FBB1F880F991FAA1FBB1F02
:100A1000880F991FAA1FBB1F880F991FAA1FBB1FF2
:100A2000821B930BA40BB50B9C01AD012E0D3F1D3A
:100A3000401F511F14E056954795379527951A95F5
:100A4000D1F720931001309311014093120150937C
:100A500013012ECE8091BE019091BF01209116010D
:100A600030911701B901869F9001879F300D969FA5
:100A7000300D11243695279536952795369527956F
:100A80008091C0019091C101BC01469FC001479F68
:100A9000900D569F900D1124969587959695879564
:100AA000969587958217930708F0D9C0281B390BB4
:100AB000C90120911401309115012817390708F454
:100AC000EDC0881999092091C2013091C3012817FE
:100AD00039074CF066277727621B730B9C0186173A
:100AE00097070CF4D9C0E901C80DD91DD09319019D
:100AF000C09318018091CC019091CD01892B01F117
:100B000041155105E9F0CA019C0144275527609120
:100B100022017091230180912401909125010E946E
:100B2000BE0E2F3F91E0390790E0490790E059074A
:100B300038F42C173D0720F4309319012093180145
:100B400080910001882309F4BFC01092190110920E
:100B50001801BAC020911001309111014091120189
:100B600050911301DA01C901880F991FAA1FBB1FF9
:100B7000880F991FAA1FBB1F880F991FAA1FBB1F91
:100B8000880F991FAA1FBB1F880F991FAA1FBB1F81
:100B9000821B930BA40BB50B9C01AD012E0D3F1DC9
:100BA000401F511FE5E05695479537952795EA95E3
:100BB000D1F720931001309311014093120150930B
:100BC000130176CD20910A0130910B01BE018827D7
:100BD00077FD8095982F442755270E94780E672F20
:100BE000782F892F99279B0170931D0160931C0119
:100BF00060FF38C0369527952F5F3F4F30931D011A
:100C000020931C0180911C0190911D01AA27BB27F4
:100C100020911E0130911F0140912001509121012E
:100C2000820F931FA41FB51F80931E0190931F0175
:100C3000A0932001B093210181509842AB46BE4E53
:100C400008F442C080E098E2ABE6BEEE80931E015D
:100C500090931F01A0932001B093210135C080E043
:100C600090E02FCF3695279530931D0120931C01DE
:100C7000C9CF80912A0190912B01009729F101970A
:100C800090932B0180932A01892BF1F4809100012C
:100C90008F7B8093000118C09B0125CFC901881963
:100CA000990911CF10922C010FC08091000180642E
:100CB0008093000110922C018091CA019091CB0188
:100CC00090932B0180932A01DF91CF911F910F9177
:100CD000FF90EF90DF90CF90BF90AF909F908F905C
:100CE0007F906F9008951F920F920FB60F9211246C
:100CF0008F939F93809108019091090101969093A1
:100D00000901809308019F918F910F900FBE0F9062
:100D10001F90189540E020E030E062E457EC6093CB
:100D20007C0080917C0080937C0050937A008091BD
:100D30007A0086FDFCCF8091780090917900280F91
:100D4000391F4F5F403159F7C901929582958F70D5
:100D500089279F70892790930D0180930C0120E0D3
:100D60008E5C91408536910508F021E081E02827CE
:100D7000822F99270895CF93DF93CDB7DEB72897B9
:100D80000FB6F894DEBF0FBECDBF8091B401909135
:100D9000B501AA2797FDA095BA2F6AE0880F991F81
:100DA000AA1FBB1F6A95D1F789839A83AB83BC8343
:100DB00029813A814B815C818091B6019091B70184
:100DC000AA2797FDA095BA2F821B930BA40BB50BF6
:100DD0008D839E83AF83B887F89489819A81AB8194
:100DE000BC8180939E0190939F01A093A001B0933A
:100DF000A1018D819E81AF81B8858093A2019093DE
:100E0000A301A093A401B093A501789428960FB6EE
:100E1000F894DEBF0FBECDBFDF91CF910895F89457
:100E2000809116019091170190938D0180938C0110
:100E300078940000000000000000F89480911801F0
:100E40009091190190938F0180938E017894000006
:100E5000000000000000F89480911A0190911B019D
:100E6000909391018093900178940000000000001D
:100E70000000F894809188019091890190939301EA
:100E80008093920178940000000000000000F89424
:100E900080919C0190919D01909395018093940184
:100EA00078940000000000000000F89480911C017C
:100EB00090911D0190939701809396017894000082
:100EC000000000000000F89480911E0190911F0125
:100ED000A0912001B09121018093980190939901F4
:100EE000A0939A01B0939B01789400000000000049
:100EF00000000895809192019091930122E08F3932
:100F0000920720F19C012E5932403695279536954F
:100F100027953695279527303105A8F487E090E08E
:100F2000821B930B2FEF31E0AC01429FC001439F26
:100F3000900D529F900D11249695879596958795C3
:100F40009695879505C080E090E002C08FEF91E014
:100F5000F894909315018093140178940895CF929A
:100F6000DF92EF92FF920F931F9304E311E06AED7B
:100F700072E0C8010E94E9016091B4017091B5016D
:100F800043E0C80103960E943E026091B601709151
:100F9000B70143E0C8010A960E943E020E94580E23
:100FA0006EE972E0C8010E94E9016091B801709198
:100FB000B90144E0C80148960E943E026091BA011E
:100FC0007091BB0144E0C801C5960E943E020E9498
:100FD000580E6DE772E0C8010E94E9016091BC0102
:100FE0007091BD0144E0C8014A960E943E020E94F1
:100FF000580E6FE472E0C8010E94E9016091BE01E1
:101000007091BF0182E1E82EF12CE00EF11E43E069
:10101000C7010E943E026091C0017091C10143E08E
:10102000C80188960E943E020E94580E67E372E053
:10103000C8010E94E9016091C2017091C30143E0BF
:10104000C7010E943E020E94580E64E272E0C8018D
:101050000E94E9016091C4017091C501BBE0EB2ED3
:10106000F12CE00EF11E45E0C7010E943E020E94F5
:10107000580E65E172E0C8010E94E9016091C60165
:101080007091C70141E0C7010E943E020E94580EC4
:101090006BEF71E0C8010E94E9016091C801709195
:1010A000C901A3E1CA2ED12CC00ED11E44E0C60155
:1010B0000E943E020E94580E65EE71E0C8010E9437
:1010C000E9016091CA017091CB01FFE0EF2EF12C94
:1010D000E00EF11E44E0C7010E943E020E94580E3D
:1010E0006CEC71E0C8010E94E9016091CC01709143
:1010F000CD0143E0C6010E943E020E94580E67EBFC
:1011000071E0C8010E94E9016091CE017091CF01A8
:1011100043E0C7010E943E020E94580E1F910F91AA
:10112000FF90EF90DF90CF9008956AEE72E084E335
:1011300091E00E94E9010E94580E0895CF93DF9339
:10114000C2EBD1E0BE018EE190E00E941A029093C2
:10115000D1018093D00120E030E0A89580E2D90150
:10116000FE01182E0E94E50E205E3F4F203831050B
:10117000A1F7DF91CF9108950F931F93CF93DF9342
:10118000EC018B0160EB71E00E94DF01892B09F417
:1011900045C06BEA71E0CE010E94DF01892B09F4A2
:1011A00040C068E871E0CE010E94DF01892B09F0A0
:1011B00043C068E771E084E391E00E94E90184E6BE
:1011C00090E00E94760224E630E040E050E00E9489
:1011D000780E2091840130918501409186015091D3
:1011E00087010E94BE0ECA01B90143E088E391E085
:1011F0000E943E020E94580E7AC16CEC70E0CE0153
:101200000E94DF01892B09F072C183E0083E1807B4
:1012100008F06DC11093CF010093CE010E94AF077B
:1012200066C10E949E086DE871E084E391E00E942F
:10123000E9010E94580E5BC160E771E0CE010E9497
:10124000DF01892B61F488E190E028E00FB6F89483
:10125000A895809360000FBE20936000FFCF67E6E3
:1012600071E0CE010E94DF01892B99F4F89410926D
:101270001E0110921F0110922001109221017894FA
:101280006DE471E084E391E00E94E9010E94580E50
:101290002EC16AE471E0CE010E94DF01892B71F456
:1012A00081E0053F180708F022C11093B5010093B3
:1012B000B4010E94BB060E94AF0719C167E471E048
:1012C000CE010E94DF01892B71F481E0053F1807F0
:1012D00008F00DC11093B7010093B6010E94BB0640
:1012E0000E94AF0704C16EE371E0CE010E94DF01EE
:1012F000892B71F484E00030180708F0F8C0F894E6
:101300001093B9010093B80178940E94AF07EFC021
:1013100065E371E0CE010E94DF01892B71F484E066
:101320000030180708F0E3C0F8941093BB01009355
:10133000BA0178940E94AF07DAC06AE271E0CE0188
:101340000E94DF01892B71F484E00030180708F057
:10135000CEC0F8941093BD010093BC0178940E9414
:10136000AF07C5C06FE171E0CE010E94DF01892B9C
:1013700069F40138110508F0BAC0F8941093BF0160
:101380000093BE0178940E94AF07B1C064E171E0A0
:10139000CE010E94DF01892B69F40138110508F0A4
:1013A000A6C0F8941093C1010093C00178940E94E4
:1013B000AF079DC06FE071E0CE010E94DF01892B75
:1013C00069F40536110508F092C0F8941093C30132
:1013D0000093C20178940E94AF0789C064E071E075
:1013E000CE010E94DF01892BA1F48DE7013018079F
:1013F00008F07DC01093C5010093C401F89480915A
:1014000008019091090178949093330180933201FF
:101410006EC069EF70E0CE010E94DF01892B69F494
:101420000430110508F063C0F8941093C7010093CD
:10143000C60178940E94AF075AC06DEE70E0CE01ED
:101440000E94DF01892BF1F487E20031180708F0D0
:101450004EC01093C9010093C801C801AA27BB2739
:101460002AE0880F991FAA1FBB1F2A95D1F78093E6
:10147000260190932701A0932801B09329010E948F
:10148000AF0735C061EE70E0CE010E94DF01892B0D
:1014900059F487E20031180750F51093CB010093FF
:1014A000CA010E94AF0723C064ED70E0CE010E9424
:1014B000DF01892B09F0A1CE82E000301807B8F4D3
:1014C0001093CD010093CC01B801882799272EEF06
:1014D00031E040E050E00E94780E6093220170936A
:1014E000230180932401909325010E94AF07DF918F
:1014F000CF911F910F910895DF92EF92FF920F937A
:101500001F93CF93DF93CDB7DEB7A0970FB6F894B4
:10151000DEBF0FBECDBFDD2400E010E07E010894E9
:10152000E11CF11CA895DD0C80E2D801F701182E12
:101530000E94E00E005E1F4F89819A818B5A924172
:10154000D1F00038110571F7DD2009F43EC020E02C
:1015500030E002C0205E3F4FA895DD0CD4FC07C0F0
:1015600080E2E2EBF1E0D901182E0E94E50E203670
:10157000310581F732C0B7018EE190E00E941A0276
:101580002F8D38A182179307E1F621E0D22AA2EB32
:10159000B1E0F70180E201900D928150E1F7809176
:1015A000C8019091C901AA27BB273AE0880F991F6B
:1015B000AA1FBB1F3A95D1F780932601909327016C
:1015C000A0932801B0932901BCCF40E250E068E627
:1015D00070E082EB91E00E94D601A0960FB6F894DD
:1015E000DEBF0FBECDBFDF91CF911F910F91FF9056
:1015F000EF90DF9008951F920F920FB60F92112473
:101600002F933F934F935F936F937F938F939F930A
:10161000AF93BF93EF93FF93809102018E5F80930E
:101620000201809103018F5F8093030180FF3DC021
:10163000209178003091790082E480937C00809141
:101640007C0080937C0087EC80937A008091050178
:10165000882309F053C030939D0120939C01809111
:1016600004018F5F80930401992783709070892B08
:1016700049F4809108019091090101969093090124
:1016800080930801189B42C0809106018F5F809370
:101690000601843008F43DC0109206012A9800002B
:1016A0000000000000002A9A34C0809178009091D8
:1016B000790090938B0180938A01809105018F5F5F
:1016C00080930501823018F080E01092050180645B
:1016D00080937C0080917C0080937C0087EC8093D9
:1016E0007A00809107018823A1F481E080930701AB
:1016F0000E94A302F894109207010BC0813009F0F8
:10170000AECF3093890120938801A9CF8091060143
:10171000C0CFFF91EF91BF91AF919F918F917F913A
:101720006F915F914F913F912F910F900FBE0F904E
:101730001F901895BF92CF92DF92EF92FF920F9376
:101740001F93CF93DF93CDB7DEB7A0970FB6F89472
:10175000DEBF0FBECDBF0EEF1DE1F8010591149164
:101760008EEF9DE10E94F8010817190709F0FFCFDD
:1017700088E190E02EE00FB6F894A8958093600081
:101780000FBE209360008FEB8BB980EC8AB988EF95
:1017900088B98DEF85B986E084B987E080937E00B3
:1017A00080E480937C0087E880937A0082E48093D1
:1017B0007C0080917C0080937C0087EC80937A0091
:1017C00080917A0086FDFCCF1092850010928400F3
:1017D00089E090E4909387008093860010928000C7
:1017E00089E18093810080E280936F000E947C0AEF
:1017F0002091CE013091CF012115310559F0809112
:1018000000018062809300012B5F3F4F30932E01D7
:1018100020932D010E94BB0684E690E00E94760290
:101820006093840170938501809386019093870172
:10183000A8950E948A06882329F48091000182607D
:10184000809300012A9800000000000000002A9AFE
:1018500010926F0010928100109285001092840007
:10186000109289001092880083E88093800081E0C4
:1018700080938100109289001092880080936F00FD
:101880000E946C0E0E949508F894C0900801D090B8
:1018900009017894D0923301C09232017E010894FC
:1018A000E11CF11C80E2F70111928A95E9F7BB2453
:1018B000A8950E94090E8C0197FD12C08D309105EC
:1018C00009F462C00E942D0EFEE1FB1548F0F701FD
:1018D000EB0DF11D0083B394F701EB0DF11D1082A8
:1018E0000E940F070E947A072091C4013091C50120
:1018F0002115310581F04091320150913301F89466
:1019000080910801909109017894841B950B8217AE
:10191000930708F069C0F89480910801909109013B
:1019200078948C199D098436910508F4C1CFE4E6BA
:10193000F0E0CE0EDF1E80910001882309F44FC035
:101940008BB190E489278BB98091000187FDE0C0BD
:101950008091000185FFACCF80912D0190912E01E7
:10196000009709F0CBC0F894809100018F7D80939F
:1019700000017894A8950E94090E8C0197FDB0CFC4
:101980008D30910509F09ECF8AE00E942D0E8DE0EA
:101990000E942D0EBB2029F12B2D3327C901019761
:1019A00018161906A4F48981803209F4C0C0A0E099
:1019B000B0E007C0F701EA0FFB1F8081803209F415
:1019C00094C01196C90101978A179B0799F76FEF89
:1019D0007FEFC7010E94BC081982BB2481CF5E9AA9
:1019E00067CF0E949508F8CF240F351F309333013D
:1019F0002093320168E870E084E391E00E94E901FD
:101A000060918C0170918D0143E087E391E00E9429
:101A10003E0260918E0170918F0143E08EE391E070
:101A20000E943E02609190017091910143E085E433
:101A300091E00E943E02F89460910A0170910B01BE
:101A4000789443E08CE491E00E943E026091920120
:101A50007091930144E083E591E00E943E02609121
:101A600094017091950144E08BE591E00E943E0263
:101A700060910001772742E083E691E00E945802DE
:101A8000609196017091970143E089E691E00E9490
:101A90003E02609198017091990180919A01909114
:101AA0009B012AE43DE545E050E00E94BE0E89011D
:101AB0002051374214F00FE017E2C8016AE070E0ED
:101AC0000E94AB0E43E080E791E00E943E02C80115
:101AD0006AE070E00E94AB0E41E0BC0184E791E057
:101AE0000E943E020E94580E16CFCF01AE0DBF1DC0
:101AF0001C9201960E94A901BC016BCF8630910512
:101B000008F45F98019790932E0180932D01D0CE19
:101B100080918C0190918D0103970CF019CFF8946E
:101B2000809100018F7780930001789411CFA0E01D
:101B3000B0E0C701DBCF1F920F920FB60F921124B6
:101B40002F933F934F938F939F93EF93FF934091E6
:101B5000C60020916202309163022F5F3F4F203117
:101B6000310510F020E030E0809164029091650230
:101B70002817390759F0E0916202F0916302EE52A2
:101B8000FE4F40833093630220936202FF91EF91F6
:101B90009F918F914F913F912F910F900FBE0F907A
:101BA0001F9018951F920F920FB60F9211242F932A
:101BB0003F938F939F93EF93FF932091680230910F
:101BC000690280916602909167022817390799F09F
:101BD000F901EE52FE4F80898093C600F9013196DB
:101BE000E038F10528F4F0936902E093680206C03A
:101BF000E0E0F0E0F8CF88E98093C100FF91EF9139
:101C00009F918F913F912F910F900FBE0F901F903A
:101C100018952091640230916502F89480916202D7
:101C200090916302789428173907A1F0F901EE52D8
:101C3000FE4F8081F9013196E031F10540F4F894CE
:101C4000F0936502E0936402789499270895E0E0A8
:101C5000F0E0F5CF8FEF9FEF0895482F20916602B7
:101C6000309167022F5F3F4F2038310510F020E0A0
:101C700030E0F89480916802909169027894281776
:101C8000390799F0E0916602F0916702EE52FE4F3B
:101C9000408BF8943093670220936602789488EB27
:101CA0008093C10080E090E0089581E090E0089585
:101CB0001F93CF93DF93C4E3D1E01991112341F037
:101CC000812F0E942D0E8823D9F719911123C1F776
:101CD000DF91CF911F91089583E38093C400109208
:101CE000C50086E08093C20088E98093C100089512
:101CF000629FD001739FF001829FE00DF11D649FF0
:101D0000E00DF11D929FF00D839FF00D749FF00D7B
:101D1000659FF00D9927729FB00DE11DF91F639F1C
:101D2000B00DE11DF91FBD01CF0111240895AA1BBB
:101D3000BB1B51E107C0AA1FBB1FA617B70710F0B6
:101D4000A61BB70B881F991F5A95A9F780959095E8
:101D5000BC01CD01089597FB092E07260AD077FD17
:101D600004D0E5DF06D000201AF4709561957F4F0E
:101D70000895F6F7909581959F4F0895A1E21A2E48
:101D8000AA1BBB1BFD010DC0AA1FBB1FEE1FFF1F1F
:101D9000A217B307E407F50720F0A21BB30BE40B6F
:101DA000F50B661F771F881F991F1A9469F76095B6
:101DB0007095809590959B01AC01BD01CF01089570
:101DC00009D001921A94E1F7089501900BD01A946A
:101DD000E1F70895F999FECFB2BDA1BDF89A119629
:101DE00000B40895F999FECFB2BDA1BD00BC119613
:0C1DF0000FB6F894FA9AF99A0FBE089505
:021DFC00800065
:00000001FF
