:100000006AC183C182C181C180C128C67EC17DC150
:100010009DC57BC17AC1CACBFFCB77C176C175C103
:1000200074C173C172C1AB120200A0009D01AB028A
:10003000640008000000060000000000000000004E
:1000400000000000000054523D7878782043523D73
:100050007878782043463D7878782050573D7878F6
:10006000782048533D787878782052543D787878D5
:10007000782046423D78782042413D78787820418A
:10008000483D7878782E780D0A0070632D74696D7C
:1000900065006261742D616D70732D6C696D006D0A
:1000A0006F746F722D6F732D6674006D6F746F7245
:1000B0002D6F732D74680070776D2D66696C746593
:1000C00072007274642D706572696F6400632D72C2
:1000D0007200742D70776D2D6761696E00742D70DC
:1000E0006F732D6761696E00742D6661756C742D78
:1000F000726300742D6D61782D726300742D6D69CB
:100100006E2D7263006B69006B70006261747465C0
:10011000727920616D7020686F75727320726573DB
:1001200065740D0A0072657365742D6168007265EF
:100130007374617274004156522078787825206972
:10014000646C650D0A0069646C6500636F6E6669B6
:100150006775726174696F6E207772697474656E09
:1001600020746F2045450D0A007361766500636F4A
:100170006E666967007072656368617267655F7457
:10018000696D653D7878780D0A00626174746572F6
:10019000795F616D70735F6C696D69743D787878B3
:1001A0000D0A006D6F746F725F6F735F6674696DB7
:1001B000653D787878780D0A006D6F746F725F6FA7
:1001C000735F7468726573686F6C643D7878787873
:1001D0000D0A0070776D5F66696C7465723D780D0D
:1001E0000A007274645F706572696F643D78787834
:1001F00078780D0A0063757272656E745F72616D56
:10020000705F726174653D7878780D0A0074687269
:100210006F74746C655F706F735F6761696E3D7852
:100220007878207468726F74746C655F70776D5F36
:100230006761696E3D7878780D0A007468726F7432
:10024000746C655F6661756C745F7261775F636F14
:10025000756E74733D787878780D0A007468726FE3
:1002600074746C655F6D696E5F7261775F636F75E3
:100270006E74733D78787878207468726F74746CDB
:10028000655F6D61785F7261775F636F756E7473C0
:100290003D787878780D0A004B703D787878204B5F
:1002A000693D7878780D0A00436F75676172204F59
:1002B0005320636F6E74726F6C6C65722066697226
:1002C0006D776172652076312E382028384B505773
:1002D0004D290D0A000011241FBECFE5D4E0DEBF7A
:1002E000CDBF10E0A0E6B0E0E8E5FAE102C005907D
:1002F0000D92A236B107D9F711E0A2E6B0E001C035
:100300001D92AA3CB107E1F7B0C87ACEFC0188275C
:100310009927E89421912223E9F02032D9F329305A
:10032000C9F32A30B9F32C30A9F32D3099F32637CD
:1003300089F32B3219F02D3221F468942191222374
:1003400049F020333CF02A332CF4205325D0820F7F
:10035000911DF4CF8115910521F01EF480959095A3
:1003600001960895FB01DC0102C005900D924150F9
:100370005040D8F70895FB01DC018D91059080195C
:1003800011F40020D1F7990B0895FB01DC010590D1
:100390000D920020E1F708957AE0979F902D879FB6
:1003A000802D910D11240895AC01E0E0F0E02FEFD5
:1003B0003FEF13C084912827022E2295207F20250D
:1003C000032E322F22952F700226269532272327BF
:1003D000220F220F220F20253196E417F50751F73F
:1003E000C9010895DC0140E050E02FEF3FEFFB0131
:1003F00014C081912827022E2295207F2025032ECC
:10040000322F22952F700226269532272327220F7E
:10041000220F220F20254F5F5F4F4A175B0749F7D6
:10042000C90108959B01FC01E40FF11D0BC0C90136
:100430006AE070E0AADA805D8083C9016AE070E05A
:10044000A4DA9B01415031974F3F89F70895FC0191
:10045000E40FF11D31970EC0862F8F708A3010F097
:10046000895C01C0805D8083319784E076956795D3
:100470008A95E1F7415080F70895C2980000000086
:1004800000000000C29A0895FC01F8946091680091
:1004900070916900789420E030E040E050E004C0C2
:1004A0002F5F3F4F4F4F5F4FF894809168009091BE
:1004B00069007894861B970B8E179F0788F3CA01F3
:1004C000B90108956F927F928F929F92AF92BF92DF
:1004D000CF92DF92EF92FF920F931F93CF93DF9310
:1004E0002091EA003091EB006090FC007090FD00DC
:1004F000789461E02A39360728F4809160008260A0
:100500008093600080916C0090916D0028173907EE
:1005100018F420E030E002C0281B390B83E190E0A2
:10052000289FE001299FD00D389FD00D112413E0A2
:10053000D695C7951A95E1F7D0937B00C0937A00C2
:100540008090780090907900C4018C1B9D0B5C0119
:10055000CC24B7FCC094DC2CA0920601B092070119
:10056000C0920801D09209018114910499F410926B
:100570000E0110920F011092100110921101A09221
:100580000A01B0920B01C0920C01D0920D0120E043
:1005900030E06CC02091FE003091FF0040910001DE
:1005A00050910101C601B501D1D97B018C01609147
:1005B0000201709103018091040190910501209145
:1005C0000A0130910B0140910C0150910D01BED9EF
:1005D00020910E0130910F014091100150911101B5
:1005E000260F371F481F591FE20EF31E041F151F49
:1005F000E0920E01F0920F0100931001109311018F
:10060000A0920A01B0920B01C0920C01D0920D0190
:1006100071E0E71670E0F7067EEF070771E0170755
:100620006CF080E090E0AEEFB1E080930E0190932B
:100630000F01A0931001B09311016AC217FF09C006
:1006400010920E0110920F011092100110921101E0
:100650005FC2C801BB2797FDB095AB2F9C01C701B6
:1006600080709078892B11F02F5F3F4FF894C9016B
:10067000880F991F9BBD8ABD789430936B0020939F
:100680006A0080916A0090916B00AA27BB278C01B9
:10069000FF24EE2480912601813051F1813038F021
:1006A000823009F44EC0833009F08DC06BC02091B8
:1006B0007000309171004091720050917300DA0126
:1006C000C901E7E0880F991FAA1FBB1FEA95D1F760
:1006D000821B930BA40BB50B8E0D9F1DA01FB11F8A
:1006E00077E0B695A795979587957A95D1F720C02D
:1006F0002091700030917100409172005091730010
:10070000DA01C90166E0880F991FAA1FBB1F6A950D
:10071000D1F7821B930BA40BB50B8E0D9F1DA01F51
:10072000B11FF6E0B695A79597958795FA95D1F7FD
:100730008093700090937100A0937200B093730047
:100740004AC0209170003091710040917200509128
:100750007300DA01C901E5E0880F991FAA1FBB1FCA
:10076000EA95D1F7821B930BA40BB50B8E0D9F1D41
:10077000A01FB11F75E0B695A795979587957A95B7
:10078000D1F7D6CF20917000309171004091720066
:1007900050917300DA01C90164E0880F991FAA1F04
:1007A000BB1F6A95D1F7821B930BA40BB50B8E0D63
:1007B0009F1DA01FB11FF4E0B695A795979587954B
:1007C000FA95D1F7B5CF1092700010927100109287
:1007D0007200109273008091700090917100A0914E
:1007E0007200B0917300CD01AA27BB27AC01909392
:1007F0006F0080936E00809191008F5F80939100D5
:10080000992783709070009709F051C080911C0166
:1008100090911D0120918F003091900086159705D1
:10082000A0F52115310531F0215030403093900072
:1008300020938F0060911A0170911B016615770556
:1008400010F49B0108C02091180130911901261560
:10085000370508F4930180911801909119017B01EB
:10086000E81AF90A621B730B882799272FEF31E0EA
:1008700040E050E06BD800271127A8019701ACD8C1
:10088000309377002093760052C1283C310508F060
:100890004EC1C90101969093900080938F00883CCF
:1008A000910508F444C1809160008160F0C08130FE
:1008B000910509F07DC0809176009091770020919C
:1008C0001E0130911F01B901869F9001879F300D55
:1008D000969F300D112473E0369527957A95E1F7B0
:1008E0008091200190912101BC01469FC001479F4A
:1008F000900D569F900D112463E0969587956A950B
:10090000E1F78217930758F4281B390BC90120918E
:100910007400309175002817390718F403C080E07F
:1009200090E09C01281939098091220190912301BE
:10093000821793073CF0909581959F4F82179307FC
:100940000CF4C901E401C80FD91FD0937900C093FA
:10095000780080912C0190912D01892BF9F041159F
:100960005105E1F0CA019C0144275527609182009E
:100970007091830080918400909185002DD82F3F45
:1009800091E0390790E0490790E0590738F42C17B7
:100990003D0720F430937900209378008091600027
:1009A000882309F4C4C01092790010927800BFC067
:1009B0008230910509F04BC020916A0030916B00A4
:1009C000BE01882777FD8095982F44275527BED7ED
:1009D000672F782F892F99279B0170937D00609353
:1009E0007C00CB019695879520FD019690937D0024
:1009F00080937C0080917C0090917D00AA27BB278A
:100A000020917E0030917F004091800050918100C4
:100A1000820F931FA41FB51F80937E0090937F00C9
:100A2000A0938000B093810081509842AB46BE4EA7
:100A300008F47DC080E098E2ABE6BEEE80937E00D5
:100A400090937F00A0938000B093810070C00397C3
:100A500009F06DC08091280190912901892B09F43A
:100A600066C08091600086FF15C080918A009091D9
:100A70008B00009709F45BC0019790938B008093E3
:100A80008A00892B09F053C0809160008F7B80938E
:100A900060004DC080916A0090916B00AA27BB272F
:100AA0008C01FF24EE241C161D0654F49E014427DD
:100AB00037FD4095542FC801B7018ED779018A01BF
:100AC0008091860090918700A0918800B091890064
:100AD0008E159F05A007B107C0F480918C0085306A
:100AE00020F48F5F80938C0022C08091600080642E
:100AF0008093600010928C0080912A0190912B01CC
:100B000090938B0080938A0012C010928C000FC0CB
:100B100080910E0190910F01A0911001B0911101EF
:100B2000CD01BB2797FDB095AB2F9C019FCDDF91E9
:100B3000CF911F910F91FF90EF90DF90CF90BF90DA
:100B4000AF909F908F907F906F9008951F920F921B
:100B50000FB60F9211242F933F934F935F936F9390
:100B60007F938F939F93AF93BF93EF93FF93809166
:100B700062008E5F80936200809163008F5F80933C
:100B800063002091650080FF37C044B155B182E415
:100B900087B987B187B987EC86B9222329F45093A6
:100BA000FD004093FC0006C0213021F45093E90081
:100BB0004093E800809164008F5F809364009927E0
:100BC00083709070892B49F480916800909169003E
:100BD00001969093690080936800B09B05C0809156
:100BE00066008F5F8093660080916600843028F1F4
:100BF0001092660042DC21C084B195B19093EB0065
:100C00008093EA00822F8F5F80936500823010F01E
:100C10001092650080916500806487B987B187B9BB
:100C200087EC86B980916700882339F481E080934E
:100C3000670048DCF89410926700FF91EF91BF9134
:100C4000AF919F918F917F916F915F914F913F9164
:100C50002F910F900FBE0F901F9018951F920F921B
:100C60000FB60F9211248F939F93809168009091FB
:100C70006900019690936900809368009F918F911D
:100C80000F900FBE0F901F90189540E020E030E0CD
:100C900062E457EC67B987B187B956B93699FECF88
:100CA00084B195B1280F391F4F5F403199F7C901C1
:100CB00024E0969587952A95E1F790936D008093AF
:100CC0006C0020E08E5C91408536910508F021E0B3
:100CD00081E02827822F99270895CF93DF93CDB7FE
:100CE000DEB728970FB6F894DEBF0FBECDBF809158
:100CF000140190911501AA2797FDA095BA2F3AE00B
:100D0000880F991FAA1FBB1F3A95D1F789839A8331
:100D1000AB83BC8329813A814B815C818091160130
:100D200090911701AA2797FDA095BA2F821B930BCC
:100D3000A40BB50B8D839E83AF83B887F89489810C
:100D40009A81AB81BC818093FE009093FF00A093B9
:100D50000001B09301018D819E81AF81B8858093A0
:100D6000020190930301A0930401B09305017894CC
:100D700028960FB6F894DEBF0FBECDBFDF91CF919E
:100D80000895F89480917600909177009093ED000B
:100D90008093EC0078940000000000000000F894BC
:100DA00080917800909179009093EF008093EE000D
:100DB00078940000000000000000F89480917A0010
:100DC00090917B009093F1008093F0007894000064
:100DD000000000000000F8948091E8009091E90084
:100DE0009093F3008093F2007894000000000000DC
:100DF0000000F8948091FC009091FD009093F50024
:100E00008093F40078940000000000000000F89443
:100E100080917C0090917D009093F7008093F60084
:100E200078940000000000000000F89480917E009B
:100E300090917F00A0918000B09181008093F80094
:100E40009093F900A093FA00B093FB00789400000F
:100E500000000000000008958091F2009091F300DE
:100E600022E08F39920718F48FEF91E021C09C01A6
:100E70002E59324053E0369527955A95E1F72730A1
:100E8000310518F080E090E013C087E090E0821B0D
:100E9000930B2FEF31E0AC01429FC001439F900DB7
:100EA000529F900D112443E0969587954A95E1F75E
:100EB000F894909375008093740078940895CF927D
:100EC000DF92EF92FF920F931F9304E910E068E91D
:100ED00072E0C8015ADA609114017091150143E083
:100EE000C80103969FDA609116017091170143E0E3
:100EF000C8010A9697DA11D56CE572E0C80145DAA7
:100F0000609118017091190144E0C80148968ADA8D
:100F100060911A0170911B0144E0C801C59682DA04
:100F2000FCD46BE372E0C80130DA60911C0170916F
:100F30001D0144E0C8014A9675DAEFD46DE072E015
:100F4000C80123DA60911E0170911F01B2E1EB2EFE
:100F5000F12CE00EF11E43E0C70164DA609120013C
:100F60007091210143E0C80188965CDAD6D465EF20
:100F700071E0C8010ADA609122017091230143E017
:100F8000C70150DACAD462EE71E0C801FED960919F
:100F9000240170912501ABE0EA2EF12CE00EF11E48
:100FA00045E0C7013FDAB9D463ED71E0C801EDD97E
:100FB000609126017091270141E0C70133DAADD479
:100FC00069EB71E0C801E1D96091280170912901B4
:100FD000F3E1CF2ED12CC00ED11E44E0C60122DA9F
:100FE0009CD463EA71E0C801D0D960912A01709164
:100FF0002B01EFE0EE2EF12CE00EF11E44E0C701D4
:1010000011DA8BD46AE871E0C801BFD960912C0174
:1010100070912D0143E0C60105DA7FD465E771E0E8
:10102000C801B3D960912E0170912F0143E0C7012F
:10103000F9D973D41F910F91FF90EF90DF90CF906B
:10104000089568EA72E084E990E09FD966D4089533
:1010500062E171E08EE190E0C5D990933101809317
:10106000300120E030E0A89580E2E2E1F1E0D90132
:10107000182ED9D4205E3F4F20383105A1F70895AE
:101080000F931F93CF93DF93EC018B016EE671E01A
:1010900072D9892B09F467C169E671E0CE016BD979
:1010A000892B21F4D5DF6BE471E046C066E471E082
:1010B000CE0161D9892BF1F466E371E084E990E017
:1010C00064D984E690E0E0D924E630E040E050E0E6
:1010D0003DD42091E4003091E5004091E60050912C
:1010E000E7007AD4CA01B90143E088E990E09AD9CF
:1010F00014D43AC16EE271E0CE013DD9892B51F48E
:1011000088E190E028E00FB6F894A89581BD0FBE65
:1011100021BDFFCF65E271E0CE012DD9892B81F48D
:10112000F89410927E0010927F001092800010922E
:10113000810078946BE071E084E990E026D9D8CF03
:1011400068E071E0CE0117D9892B51F481E0053FA9
:10115000180708F009C110931501009314010FC07E
:1011600065E071E0CE0107D9892B59F481E0053F94
:10117000180708F0F9C01093170100931601ADDDB0
:10118000F2C06CEF70E0CE01F6D8892B61F484E0F8
:101190000030180708F0E8C0F89410931901009384
:1011A00018017894E0C063EF70E0CE01E4D8892B99
:1011B00061F484E00030180708F0D6C0F89410936A
:1011C0001B0100931A017894CEC068EE70E0CE0146
:1011D000D2D8892B61F484E00030180708F0C4C02D
:1011E000F89410931D0100931C017894BCC06DED20
:1011F00070E0CE01C0D8892B59F40138110508F0F0
:10120000B3C0F89410931F0100931E017894ABC0F3
:1012100062ED70E0CE01AFD8892B59F40138110589
:1012200008F0A2C0F8941093210100932001789453
:101230009AC06DEC70E0CE019ED8892B59F405362A
:10124000110508F091C0F894109323010093220136
:10125000789489C062EC70E0CE018DD8892BA1F41E
:101260008DE70130180708F07FC010932501009327
:101270002401F8948091680090916900789490938B
:1012800093008093920070C067EB70E0CE0173D83A
:10129000892B59F40430110508F066C0F8941093B6
:1012A00027010093260178945EC06BEA70E0CE01BE
:1012B00062D8892BE1F487E20031180708F054C0A6
:1012C0001093290100932801C801AA27BB271AE01F
:1012D000880F991FAA1FBB1F1A95D1F7809386000C
:1012E00090938700A0938800B09389003CC06FE979
:1012F00070E0CE0140D8892B49F487E2003118070D
:1013000098F510932B0100932A012DC062E970E03B
:10131000CE0131D8892BC9F482E00030180720F5BE
:1013200010932D0100932C01B801882799272EEFE7
:1013300031E040E050E00AD3609382007093830074
:1013400080938400909385000EC06AE870E0CE011F
:1013500012D8892B49F483E0083E180728F410932B
:101360002F0100932E01ABDDDF91CF911F910F91E3
:101370000895DF92EF92FF920F931F93CF93DF9325
:10138000CDB7DEB7A0970FB6F894DEBF0FBECDBFC6
:10139000DD24EE24FF24A895DD0C80E28E010F5F92
:1013A0001F4FD701F801182E39D380E290E0E80EE4
:1013B000F91E89819A818B5A924141F5B8018EE1DB
:1013C00090E010D82F8D38A182179307F9F4F1E03F
:1013D000DF2AA2E1B1E0F80180E201900D92815094
:1013E000E1F78091280190912901AA27BB270AE003
:1013F000880F991FAA1FBB1F0A95D1F780938600FB
:1014000090938700A0938800B093890020E8E216AB
:10141000F10409F0C0CFDD2041F440E250E066E283
:1014200070E082E191E09ED712C020E030E0A89504
:10143000DD0CD4FC06C080E2E2E1F1E0D901182E17
:10144000F2D22036310519F0205E3F4FF0CFA09642
:101450000FB6F894DEBF0FBECDBFDF91CF911F91C5
:101460000F91FF90EF90DF900895DF92EF92FF923F
:101470000F931F93CF93DF93CDB7DEB7A0970FB62F
:10148000F894DEBF0FBECDBF0AE51AE1F801059161
:1014900014918AE59AE188D70817190709F0FFCF58
:1014A00088E190E02EE00FB6F894A89581BD0FBEBC
:1014B00021BD8FEB82BB80EC81BB88EF85BB8DEFBC
:1014C00088BB86E087BB80E487B987E886B982E479
:1014D00087B987B187B987EC86B93699FECF1DBC2D
:1014E0001CBC89E090E497BD86BD1FBC89E18EBD20
:1014F00080E289BF3EDF20912E0130912F0121151E
:10150000310559F0809160008062809360002B5F0C
:101510003F4F30938E0020938D00DFDB84E690E018
:10152000B3D76093E4007093E5008093E600909356
:10153000E700A895AADB882329F4809160008260E7
:10154000809360009AD719BE1EBC1DBC1CBC1BBC7E
:101550001ABC83E88FBD81E08EBD1BBC1ABC84E041
:1015600089BFECD16EDDF894E0906800F0906900DE
:101570007894F0929300E092920080E2FE0131961E
:1015800011928A95E9F7DD24A8957AD18C0197FD0F
:1015900039C08D309105A1F096D18EE18D1590F175
:1015A000FE013196DF01AD0DB11D0C93D394ED0D0D
:1015B000F11D108227C01192CF01A8D6BC011DC019
:1015C0008AE081D18DE07FD1DD2009F4EDC040E0DB
:1015D00050E02D2D332721503040DE011196FD01C2
:1015E00007C08C91803239F34F5F5F4F319611966F
:1015F00042175307B1F76FEF7FEFCE01019640DD41
:101600001982DD24BEDB28DC4091240150912501A4
:101610004115510509F481C0209192003091930049
:10162000F89480916800909169007894821B930BE4
:101630008417950708F471C0240F351F3093930069
:101640002093920066E470E084E990E09ED6609179
:10165000EC007091ED0043E087E990E0E3D6609103
:10166000EE007091EF0043E08EE990E0DBD66091F0
:10167000F0007091F10043E085EA90E0D3D6F89451
:1016800060916A0070916B00789443E08CEA90E07E
:10169000C9D66091F2007091F30044E083EB90E0D2
:1016A000C1D66091F4007091F50044E08BEB90E0BE
:1016B000B9D660916000772742E083EC90E0C7D60E
:1016C0006091F6007091F70043E089EC90E0AAD6B3
:1016D0006091F8007091F9008091FA009091FB0000
:1016E0002AE43DE545E050E077D1890120513742B9
:1016F00014F00FE017E2C8016AE070E05AD143E04D
:1017000080ED90E08FD6C8016AE070E052D141E0F0
:10171000BC0184ED90E086D600D1F89480916800F9
:101720009091690078948E199F098436910508F488
:101730002BCF84E690E0E80EF91E809160008823AC
:1017400089F182B390E4892782BB8091600087FF92
:101750000DC08091EC009091ED0003973CF4F8945B
:10176000809160008F778093600078948091600012
:1017700085FF0ACF80918D0090918E00009741F4F3
:10178000F894809160008F7D809360007894FCCE07
:101790008630910508F49798019790938E00809376
:1017A0008D00F2CE969AF0CE4CDC2ACF1F920F928B
:1017B0000FB60F9211242F933F934F938F939F93C4
:1017C000EF93FF934CB12091C2013091C3012F5F81
:1017D0003F4F2031310510F020E030E08091C4010E
:1017E0009091C5012817390759F0E091C201F09195
:1017F000C301EE5CFE4F40833093C3012093C201CE
:10180000FF91EF919F918F914F913F912F910F9069
:101810000FBE0F901F9018951F920F920FB60F9248
:1018200011242F933F938F939F93EF93FF932091D6
:10183000C8013091C9018091C6019091C701281754
:10184000390789F0F901EE5CFE4F80898CB9F90106
:101850003196E038F10510F0E0E0F0E0F093C901D6
:10186000E093C80102C088E98AB9FF91EF919F9186
:101870008F913F912F910F900FBE0F901F90189551
:101880002091C4013091C501F8948091C2019091DA
:10189000C30178942817390719F48FEF9FEF089543
:1018A000F901EE5CFE4F8081F9013196E031F105DE
:1018B00010F0E0E0F0E0F894F093C501E093C4018B
:1018C000789499270895482F2091C6013091C70137
:1018D0002F5F3F4F2038310510F020E030E0F894C2
:1018E0008091C8019091C90178942817390719F49B
:1018F00081E090E00895E091C601F091C701EE5CAF
:10190000FE4F408BF8943093C7012093C601789422
:1019100088EB8AB980E090E008951F93CF93DF931E
:10192000C4E9D0E01991112329F0812FCCDF88235D
:10193000E1F7F8CFDF91CF911F91089583E389B943
:1019400010BC86E880BD88E98AB90895629FD001FD
:10195000739FF001829FE00DF11D649FE00DF11D6A
:10196000929FF00D839FF00D749FF00D659FF00D19
:101970009927729FB00DE11DF91F639FB00DE11D06
:10198000F91FBD01CF0111240895AA1BBB1B51E112
:1019900007C0AA1FBB1FA617B70710F0A61BB70BDF
:1019A000881F991F5A95A9F780959095BC01CD0184
:1019B000089597FB092E07260AD077FD04D0E5DFAE
:1019C00006D000201AF4709561957F4F0895F6F7C0
:1019D000909581959F4F0895A1E21A2EAA1BBB1BDB
:1019E000FD010DC0AA1FBB1FEE1FFF1FA217B307EB
:1019F000E407F50720F0A21BB30BE40BF50B661F01
:101A0000771F881F991F1A9469F7609570958095C4
:101A100090959B01AC01BD01CF01089509D00192C1
:101A20001A94E1F7089501900BD01A94E1F7089504
:101A3000E199FECFBFBBAEBBE09A11960DB20895FF
:101A4000E199FECFBFBBAEBB0DBA11960FB6F894AD
:101A5000E29AE19A0FBE089580006C80FFFFFFFFBD
:101A6000FFFFFFFFFFFFFFFFFFFFFFFFFFFFFFFF86
:101A7000FFFFFFFFFFFFFFFFFFFFFFFFFFFFFFFF76
:101A8000FFFFFFFFFFFFFFFFFFFFFFFFFFFFFFFF66
:101A9000FFFFFFFFFFFFFFFFFFFFFFFFFFFFFFFF56
:101AA000FFFFFFFFFFFFFFFFFFFFFFFFFFFFFFFF46
:101AB000FFFFFFFFFFFFFFFFFFFFFFFFFFFFFFFF36
:101AC000FFFFFFFFFFFFFFFFFFFFFFFFFFFFFFFF26
:101AD000FFFFFFFFFFFFFFFFFFFFFFFFFFFFFFFF16
:101AE000FFFFFFFFFFFFFFFFFFFFFFFFFFFFFFFF06
:101AF000FFFFFFFFFFFFFFFFFFFFFFFFFFFFFFFFF6
:101B0000FFFFFFFFFFFFFFFFFFFFFFFFFFFFFFFFE5
:101B1000FFFFFFFFFFFFFFFFFFFFFFFFFFFFFFFFD5
:101B2000FFFFFFFFFFFFFFFFFFFFFFFFFFFFFFFFC5
:101B3000FFFFFFFFFFFFFFFFFFFFFFFFFFFFFFFFB5
:101B4000FFFFFFFFFFFFFFFFFFFFFFFFFFFFFFFFA5
:101B5000FFFFFFFFFFFFFFFFFFFFFFFFFFFFFFFF95
:101B6000FFFFFFFFFFFFFFFFFFFFFFFFFFFFFFFF85
:101B7000FFFFFFFFFFFFFFFFFFFFFFFFFFFFFFFF75
:101B8000FFFFFFFFFFFFFFFFFFFFFFFFFFFFFFFF65
:101B9000FFFFFFFFFFFFFFFFFFFFFFFFFFFFFFFF55
:101BA000FFFFFFFFFFFFFFFFFFFFFFFFFFFFFFFF45
:101BB000FFFFFFFFFFFFFFFFFFFFFFFFFFFFFFFF35
:101BC000FFFFFFFFFFFFFFFFFFFFFFFFFFFFFFFF25
:101BD000FFFFFFFFFFFFFFFFFFFFFFFFFFFFFFFF15
:101BE000FFFFFFFFFFFFFFFFFFFFFFFFFFFFFFFF05
:101BF000FFFFFFFFFFFFFFFFFFFFFFFFFFFFFFFFF5
:101C000012C02BC02AC029C028C027C026C025C0AA
:101C100024C023C022C021C020C01FC01EC01DC0C0
:101C20001CC01BC01AC011241FBECFE5D4E0DEBF0C
:101C3000CDBF10E0A0E6B0E0E6EEFFE102C0059007
:101C40000D92A637B107D9F711E0A6E7B0E001C0C1
:101C50001D92AE37B107E1F71BC1D2CFAC01E0E076
:101C6000FCE12FEF3FEF13C084912827022E22952D
:101C7000207F2025032E322F22952F7002262695B5
:101C800032272327220F220F220F20253196E41717
:101C9000F50750F3C9010895FC0140E050E02FEF33
:101CA0003FEF14C081912827022E2295207F202506
:101CB000032E322F22952F700226269532272327B6
:101CC000220F220F220F20254F5F5F4F4617570725
:101CD00049F7C90108951F93CF93DF93DC01EB010E
:101CE00083E0FD0180935700E89507B600FCFDCF27
:101CF000E199FECF60E070E011E0AD01288133276B
:101D0000898122969927982F8827282B392B09011A
:101D1000FA0110935700E89511246E5F7F4F4E5FD4
:101D20005F4F6034710551F785E0FD0180935700E6
:101D3000E89507B600FCFDCF81E180935700E89558
:101D4000DF91CF911F910895EF92FF920F931F9310
:101D5000CF93DF938C017B01C0E0D0E007C0FBD0C4
:101D600097FD07C0F80181938F012196CE15DF05FD
:101D7000B1F7CE01DF91CF911F910F91FF90EF90BE
:101D80000895EF92FF920F931F93CF93DF938C01EF
:101D90007B01C0E0D0E005C0F80181918F01F1D056
:101DA0002196CE15DF05C1F7DF91CF911F910F91DD
:101DB000FF90EF900895CF93DF9368E071E086E79E
:101DC00090E0C2DFEC0188309105B8F3BC016250AD
:101DD000704086E790E060DFCC58DF4F2881398182
:101DE0002817390751F780917600823099F08330B7
:101DF00018F4813071F505C08430C9F0863049F59A
:101E000044C080E490E090937D0080937C00C2E029
:101E1000D0E021C0C0917A00D0917B006091780021
:101E200070917900AE018CE790E0CAD014C0809127
:101E30007A0090917B008034910559F4809178006C
:101E4000909179002BE1813C920718F46CE770E0E7
:101E500042DFC0E0D0E08091760090917700916001
:101E60009093770080937600BE016A5F7F4F86E78C
:101E700090E012DFFE01E458FF4F918380832896A3
:101E8000BE0186E790E07DDF98CFDF91CF91089586
:101E9000FF920F931F93CF93DF93CDB7DEB7A09739
:101EA0000FB6F894DEBF0FBECDBF0CEF1FE1F801F7
:101EB000059114918CEF9FE1D1DE0817190709F005
:101EC00046D040D011E047D0809721F0143159F12D
:101ED0001F5FF9CF6AE070E080E690E052DF3BD010
:101EE0003AD0FF246FE170E08E010F5F1F4FC801F1
:101EF0002BDF282F882359F0F801E80FF11D1082FD
:101F0000B8018BE690E065D0892B39F020E0F3949E
:101F100084E1F81639F7222331F064E070E081E7BC
:101F200090E02FDF48DF13D080E090E0A0960FB65E
:101F3000F894DEBF0FBECDBFDF91CF911F910F91FF
:101F4000FF9008958898919A899A919A089589980E
:101F5000EE27FF270994AFE1B8E6E9E0A150B040D1
:101F600071F08099FBCF1BD01AD019D0889480993A
:101F70000894EA9511F08795F7CF992708959FEF78
:101F80000895EAE08095089410F4919802C0919A1F
:101F9000000005D004D08695EA95B1F70895F7E8DA
:101FA000FA95F1F70895FC01809B04C03196E1F7A2
:101FB000CF010895809903C00196E1F7089508952F
:101FC000FB01DC0102C005900D9241505040D8F752
:101FD0000895FB01DC018D910190801911F400201E
:101FE000D1F7990B08954F534343414C3D300D0AAF
:101FF000004D4F4E0D0A004F4B0D0A00E315FFFF39
:00000001FF
