:1000000057C170C16FC16EC16DC107C66BC16AC1F6
:1000100002CA68C167C111CC46CC64C163C162C168
:1000200061C160C15FC1AB120200A0009D01AB02C3
:10003000640008000000060000000000000000004E
:1000400000000000000054523D7878782043523D73
:100050007878782043463D7878782050573D7878F6
:10006000782048533D787878782052543D787878D5
:10007000782046423D78782042413D78787820418A
:10008000483D7878782E780D0A006261742D616D94
:1000900070732D6C696D006D6F746F722D6F732DA1
:1000A0006674006D6F746F722D6F732D74680070BD
:1000B000776D2D66696C746572007274642D70655D
:1000C00072696F6400632D727200742D70776D2DEC
:1000D0006761696E00742D706F732D6761696E00C2
:1000E000742D6661756C742D726300742D6D61786A
:1000F0002D726300742D6D696E2D7263006B690043
:100100006B70006261747465727920616D70206833
:100110006F7572732072657365740D0A0072657372
:1001200065742D6168007265737461727400415664
:100130005220787878252069646C650D0A0069641E
:100140006C6500636F6E66696775726174696F6E66
:10015000207772697474656E20746F2045450D0AAE
:10016000007361766500636F6E6669670062617433
:10017000746572795F616D70735F6C696D69743DF0
:100180007878780D0A006D6F746F725F6F735F66B9
:1001900074696D653D787878780D0A006D6F746FBD
:1001A000725F6F735F7468726573686F6C643D78BB
:1001B0007878780D0A0070776D5F66696C74657287
:1001C0003D780D0A007274645F706572696F643DFA
:1001D00078787878780D0A0063757272656E745F4E
:1001E00072616D705F726174653D7878780D0A0098
:1001F0007468726F74746C655F706F735F67616948
:100200006E3D787878207468726F74746C655F7076
:10021000776D5F6761696E3D7878780D0A00746864
:10022000726F74746C655F6661756C745F72617710
:100230005F636F756E74733D787878780D0A00741B
:1002400068726F74746C655F6D696E5F7261775F01
:10025000636F756E74733D78787878207468726F08
:1002600074746C655F6D61785F7261775F636F75E1
:100270006E74733D787878780D0A004B703D78780D
:1002800078204B693D7878780D0A00436F75676177
:1002900072204F5320636F6E74726F6C6C657220A6
:1002A0006669726D776172652076312E370D0A00AE
:1002B00011241FBECFE5D4E0DEBFCDBF10E0A0E625
:1002C000B0E0EEEEFAE102C005900D92A236B10761
:1002D000D9F711E0A2E6B0E001C01D92A93CB10738
:1002E000E1F72CC98DCEFC0188279927E89421914C
:1002F0002223E9F02032D9F32930C9F32A30B9F3A7
:100300002C30A9F32D3099F3263789F32B3219F0CD
:100310002D3221F468942191222349F020333CF0BE
:100320002A332CF4205325D0820F911DF4CF811550
:10033000910521F01EF48095909501960895FB019A
:10034000DC0102C005900D9241505040D8F708954D
:10035000FB01DC018D910590801911F40020D1F78B
:10036000990B0895FB01DC0105900D920020E1F747
:1003700008957AE0979F902D879F802D910D1124ED
:100380000895DC01892BE9F020E030E04FEF5FEFCA
:10039000FB0181914827042E4295407F4025052E80
:1003A000542F42954F700426469554274527440FF5
:1003B000440F440F40252F5F3F4FA217B30749F763
:1003C00002C04FEF5FEFCA0108959B01542F4150C7
:1003D0004F3F91F0FC01E50FF11D3197C9016AE033
:1003E00070E01EDB805D80833197C9016AE070E0B8
:1003F00017DB9B01415090F70895242F21502F3F88
:10040000C9F0FC01E40FF11D31970CC0895C8083B9
:1004100021502F3F79F03197729562956F70672761
:100420007F706727862F8F708A3080F7805D80838A
:10043000215088F70895FC01F8946091690070914B
:100440006A007894F8948091690090916A00789499
:10045000861B970B8E179F07A0F420E030E040E04A
:1004600050E02F5F3F4F4F4F5F4FF89480916900EE
:1004700090916A007894861B970B8E179F0788F3DC
:1004800004C020E030E040E050E0CA01B901089526
:100490006F927F928F929F92AF92BF92CF92DF9294
:1004A000EF92FF920F931F93CF93DF934091E90058
:1004B0005091EA006090FB007090FC00789421E07D
:1004C0004A39520728F4809160008260809360006E
:1004D00020916D0030916E004217530708F0D1C093
:1004E000C0E0D0E0D0937C00C0937B008090790086
:1004F00090907A00C4018C1B9D0B5C01CC24B7FC4E
:10050000C094DC2CA0920501B0920601C0920701B4
:10051000D09208018114910409F0CAC010920D0113
:1005200010920E0110920F0110921001A092090179
:10053000B0920A01C0920B01D0920C0120E030E091
:10054000F8943BBD2ABD789430936C0020936B00E7
:1005500080916B0090916C00AA27BB278C01FF242F
:10056000EE2480912501813009F465C1813008F0C5
:1005700001C120917100309172004091730050913F
:100580007400DA01C901880F991FAA1FBB1F880FC9
:10059000991FAA1FBB1F880F991FAA1FBB1F880F77
:1005A000991FAA1FBB1F880F991FAA1FBB1F880F67
:1005B000991FAA1FBB1F880F991FAA1FBB1F821B51
:1005C000930BA40BB50B9C01AD012E0D3F1D401FDD
:1005D000511FE7E05695479537952795EA95D1F74E
:1005E0002093710030937200409373005093740015
:1005F000CA01AA27BB27AC019093700080936F00BB
:10060000809190008F5F8093900099278370907005
:10061000009709F0CDC080911B0190911C018615B7
:10062000970508F044C180918E0090918F0000974B
:1006300009F054C16091190170911A01661577058E
:1006400008F459C18091170190911801930168161F
:10065000790608F49C017B01E81AF90A621B730B06
:10066000882799272FEF31E040E050E0BAD90027E2
:100670001127A8019701FBD93093780020937700C8
:10068000BBC2421B530BCA01880F991FEC01CC0F50
:10069000DD1FCC0FDD1FCC0FDD1FC80FD91FC40F0E
:1006A000D51FD695C795D695C795D695C7951ACF18
:1006B0002091FD003091FE004091FF00509100011B
:1006C000C601B5018ED97B018C0160910101709149
:1006D0000201809103019091040120910901309160
:1006E0000A0140910B0150910C017BD920910D0121
:1006F00030910E0140910F0150911001260F371FCC
:10070000481F591FE20EF31E041F151FE0920D0132
:10071000F0920E0100930F0110931001A0920901B5
:10072000B0920A01C0920B01D0920C0161E0E61672
:1007300060E0F6066EEF060761E0160774F180E0F0
:1007400090E0AEEFB1E080930D0190930E01A09385
:100750000F01B093100180910D0190910E01A091B5
:100760000F01B0911001CD01BB2797FDB095AB2FC4
:100770009C01E6CE823009F486C1833009F4D0C0F2
:1007800020E030E040E050E01092710010927200E2
:1007900010927300109274002BCF17FFB2C010920A
:1007A0000D0110920E0110920F0110921001D3CF83
:1007B0008130910509F4E8C08230910509F49BC1AC
:1007C000039709F019C28091270190912801892B84
:1007D00009F412C28091600086FDE3C180916B0034
:1007E00090916C00AA27BB278C01FF24EE241C16D5
:1007F0001D0654F49E01442737FD4095542FC8012F
:10080000B70135D979018A018091870090918800DC
:10081000A0918900B0918A008E159F05A007B107AD
:1008200008F0D8C180918D00853008F0D6C18F5F67
:1008300080938D00E1C12091710030917200409150
:10084000730050917400DA01C901880F991FAA1F23
:10085000BB1F880F991FAA1FBB1F880F991FAA1FB4
:10086000BB1F880F991FAA1FBB1F880F991FAA1FA4
:10087000BB1F880F991FAA1FBB1F821B930BA40BC2
:10088000B50B9C01AD012E0D3F1D401F511FE6E031
:100890005695479537952795EA95D1F7209371009E
:1008A000309372004093730050937400A1CE8091F6
:1008B0008E0090918F00883C910508F09DC10196B3
:1008C00090938F0080938E00883C910508F494C12A
:1008D000809160008160809360008EC10197909349
:1008E0008F0080938E006091190170911A01661536
:1008F000770508F0A7CE9B01809117019091180110
:10090000AACEC801BB2797FDB095AB2F9C01C701AC
:1009100080709078892B09F413CE2F5F3F4F10CE53
:1009200020917100309172004091730050917400D9
:10093000DA01C901880F991FAA1FBB1F880F991FD1
:10094000AA1FBB1F880F991FAA1FBB1F880F991FC3
:10095000AA1FBB1F821B930BA40BB50B9C01AD01FF
:100960002E0D3F1D401F511F14E05695479537959A
:1009700027951A95D1F72093710030937200409318
:1009800073005093740034CE80911D0190911E012C
:100990002091770030917800B901869F9001879F60
:1009A000300D969F300D1124369527953695279555
:1009B0003695279580911F0190912001BC01469F9B
:1009C000C001479F900D569F900D112496958795D5
:1009D00096958795969587958217930708F0D7C0C7
:1009E000281B390BC901209175003091760028171A
:1009F000390708F4EBC08819990920912101309139
:100A00002201281739074CF066277727621B730BE2
:100A10009C01861797070CF4D7C0E901C80DD91DB2
:100A2000D0937A00C093790080912B0190912C0192
:100A3000892BF9F041155105E1F0CA019C014427C9
:100A4000552760918300709184008091850090917A
:100A500086000DD82F3F91E0390790E0490790E0DC
:100A6000590738F42C173D0720F430937A0020936F
:100A7000790080916000882309F4BEC010927A004A
:100A800010927900B9C020917100309172004091AC
:100A9000730050917400DA01C901880F991FAA1FD1
:100AA000BB1F880F991FAA1FBB1F880F991FAA1F62
:100AB000BB1F880F991FAA1FBB1F880F991FAA1F52
:100AC000BB1F821B930BA40BB50B9C01AD012E0D1C
:100AD0003F1D401F511FE5E05695479537952795D7
:100AE000EA95D1F720937100309372004093730020
:100AF000509374007DCD20916B0030916C00BE014D
:100B0000882777FD8095982F442755276AD7672F28
:100B1000782F892F99279B0170937E0060937D0029
:100B200060FF38C0369527952F5F3F4F30937E008A
:100B300020937D0080917D0090917E00AA27BB27A5
:100B400020917F003091800040918100509182007F
:100B5000820F931FA41FB51F80937F009093800086
:100B6000A0938100B093820081509842AB46BE4E64
:100B700008F442C080E098E2ABE6BEEE80937F00CE
:100B800090938000A0938100B093820035C080E0F4
:100B900090E031CF3695279530937E0020937D00ED
:100BA000C9CF80918B0090918C00009729F101971B
:100BB00090938C0080938B00892BF1F480916000DE
:100BC0008F7B8093600018C09B0127CFC9018819D3
:100BD000990913CF10928D000FC08091600080643E
:100BE0008093600010928D008091290190912A01DC
:100BF00090938C0080938B0080916800DF91CF915F
:100C00001F910F91FF90EF90DF90CF90BF90AF902A
:100C10009F908F907F906F9008951F920F920FB6C4
:100C20000F9211248F939F938091690090916A0095
:100C3000019690936A00809369009F918F910F9025
:100C40000FBE0F901F90189540E020E030E062E466
:100C500057EC67B987B187B956B93699FECF84B1D9
:100C600095B1280F391F4F5F403199F7C90192950F
:100C700082958F7089279F70892790936E0080934B
:100C80006D0020E08E5C91408536910508F021E0F2
:100C900081E02827822F99270895CF93DF93CDB73E
:100CA000DEB728970FB6F894DEBF0FBECDBF809198
:100CB000130190911401AA2797FDA095BA2F3AE04D
:100CC000880F991FAA1FBB1F3A95D1F789839A8372
:100CD000AB83BC8329813A814B815C818091150172
:100CE00090911601AA2797FDA095BA2F821B930B0E
:100CF000A40BB50B8D839E83AF83B887F89489814D
:100D00009A81AB81BC818093FD009093FE00A093FB
:100D1000FF00B09300018D819E81AF81B8858093E3
:100D2000010190930201A0930301B0930401789410
:100D300028960FB6F894DEBF0FBECDBFDF91CF91DE
:100D40000895F89480917700909178009093EC004A
:100D50008093EB0078940000000000000000F894FD
:100D60008091790090917A009093EE008093ED004D
:100D700078940000000000000000F89480917B004F
:100D800090917C009093F0008093EF0078940000A5
:100D9000000000000000F8948091E7009091E800C6
:100DA0009093F2008093F10078940000000000001E
:100DB0000000F8948091FB009091FC009093F40067
:100DC0008093F30078940000000000000000F89485
:100DD00080917D0090917E009093F6008093F500C5
:100DE00078940000000000000000F89480917F00DB
:100DF00090918000A0918100B09182008093F700D3
:100E00009093F800A093F900B093FA007894000052
:100E100000000000000008958091F1009091F20020
:100E200022E08F39920720F19C012E5932403695ED
:100E30002795369527953695279527303105A8F4BF
:100E400087E090E0821B930B2FEF31E0AC01429FD3
:100E5000C001439F900D529F900D11249695879548
:100E6000969587959695879505C080E090E002C09D
:100E70008FEF91E0F89490937600809375007894CA
:100E80000895EF92FF920F931F9303E910E06BE731
:100E900072E0C80167DA609113017091140143E0B8
:100EA000C801039692DA609115017091160143E032
:100EB000C8010A968ADA7AD56FE372E0C80152DA7D
:100EC000609117017091180144E0C80148967DDADD
:100ED0006091190170911A0144E0C801C59675DA54
:100EE00065D56EE172E0C8013DDA60911B01709139
:100EF0001C0144E0C8014A9668DA58D560EF71E0F9
:100F0000C80130DA60911D0170911E01A2E1EA2E44
:100F1000F12CE00EF11E43E0C70157DA60911F018A
:100F20007091200143E0C80188964FDA3FD568ED03
:100F300071E0C80117DA609121017091220143E04C
:100F4000C70143DA33D565EC71E0C8010BDA609173
:100F5000230170912401FBE0EF2EF12CE00EF11E35
:100F600045E0C70132DA22D566EB71E0C801FAD953
:100F7000609125017091260141E0C70126DA16D55E
:100F80006CE971E0C801EED96091270170912801E8
:100F9000E3E1EE2EF12CE00EF11E44E0C70115DA7C
:100FA00005D566E871E0C801DDD96091290170912D
:100FB0002A0144E0C8010F9608DAF8D46DE671E022
:100FC000C801D0D960912B0170912C0143E0C70179
:100FD000FCD9ECD41F910F91FF90EF9008956BE82E
:100FE00072E083E990E0BED9E1D40895CF93DF9316
:100FF000C1E1D1E0BE018EE190E0C3D99093300110
:1010000080932F0120E030E0A89580E2D901FE0115
:10101000182E54D5205E3F4F20383105A9F7DF91B7
:10102000CF9108950F931F93CF93DF93EC018B0122
:1010300066E671E08DD9892B09F44CC061E671E058
:10104000CE0186D9892B09F447C06EE371E0CE0149
:101050007FD9892B09F048C06EE271E083E990E006
:1010600081D984E690E0E7D924E630E040E050E022
:10107000B8D42091E3003091E4004091E500509114
:10108000E600F5D4CA01B90143E087E990E09DD9B3
:101090008DD441C16AE870E0CE015AD9892B09F09C
:1010A0003AC182E00030180708F035C110932C01D6
:1010B00000932B01B801882799272EEF31E040E0FB
:1010C00050E08FD4609383007093840080938500F8
:1010D00090938600D6DE1FC189DF63E471E083E967
:1010E00090E040D963D417C166E271E0CE0130D9F7
:1010F000892B51F488E190E028E00FB6F894A89588
:1011000081BD0FBE21BDFFCF6DE171E0CE0120D9C1
:10111000892B89F4F89410927F001092800010922D
:10112000810010928200789463E071E083E990E09E
:1011300019D93CD4F0C060E071E0CE0109D9892B07
:1011400061F481E0053F180708F0E5C01093140131
:1011500000931301A2DD95DEDEC06DEF70E0CE01DD
:10116000F7D8892B61F481E0053F180708F0D3C058
:10117000109316010093150190DD83DECCC064EF5F
:1011800070E0CE01E5D8892B69F484E000301807BF
:1011900008F0C1C0F89410931801009317017894D7
:1011A00070DEB9C06BEE70E0CE01D2D8892B69F445
:1011B00084E00030180708F0AEC0F89410931A01CC
:1011C0000093190178945DDEA6C060EE70E0CE0158
:1011D000BFD8892B69F484E00030180708F09BC061
:1011E000F89410931C0100931B0178944ADE93C07D
:1011F00065ED70E0CE01ACD8892B61F401381105A2
:1012000008F089C0F89410931E0100931D01789492
:1012100038DE81C06AEC70E0CE019AD8892B61F487
:101220000138110508F077C0F8941093200100935D
:101230001F01789426DE6FC065EC70E0CE0188D87F
:10124000892B61F40536110508F065C0F8941093F8
:10125000220100932101789414DE5DC06AEB70E0F6
:10126000CE0176D8892BA1F48DE70130180708F05C
:1012700052C01093240100932301F89480916900D7
:1012800090916A007894909392008093910043C06B
:101290006FEA70E0CE015CD8892B59F40430110557
:1012A000D0F5F89410932601009325017894E9DD98
:1012B00032C063EA70E0CE014BD8892BE1F487E2BB
:1012C0000031180740F51093280100932701C80149
:1012D000AA27BB271AE0880F991FAA1FBB1F1A95C0
:1012E000D1F78093870090938800A0938900B093F2
:1012F0008A00C7DD10C067E970E0CE0129D8892BCC
:1013000009F0C8CE87E20031180728F410932A01AB
:1013100000932901B6DDDF91CF911F910F910895C0
:10132000DF92EF92FF920F931F93CF93DF93CDB78E
:10133000DEB7A0970FB6F894DEBF0FBECDBFDD2499
:1013400000E010E07E010894E11CF11CA895DD0C82
:1013500080E2D801F701182EACD3005E1F4F8981BF
:101360009A818B5A9241C9F00038110579F7DD2036
:1013700009F43CC020E030E002C0205E3F4FA89559
:10138000DD0CD4FC06C080E2E1E1F1E0D901182EC9
:1013900095D32036310589F730C0B7018EE190E052
:1013A000F0D72F8D38A182179307F1F621E0D22ACA
:1013B000A1E1B1E0F70180E201900D928150E1F7E7
:1013C0008091270190912801AA27BB272AE0880F46
:1013D000991FAA1FBB1F2A95D1F78093870090936E
:1013E0008800A0938900B0938A00BECF40E250E00D
:1013F00066E270E081E191E0A2D7A0960FB6F89482
:10140000DEBF0FBECDBFDF91CF911F910F91FF9037
:10141000EF90DF9008951F920F920FB60F92112454
:101420002F933F934F935F936F937F938F939F93EC
:10143000AF93BF93EF93FF93809162008F5F809390
:10144000620080FF6AC0809163008F5F80936300B9
:1014500080FD1CC084B195B19093EA008093E900AF
:10146000809165008F5F80936500823018F080E086
:1014700010926500806487B987B187B987EC86B917
:1014800080916700882309F048C03CC024B135B181
:1014900082E487B987B187B987EC86B98091650006
:1014A000882349F53093FC002093FB008091640071
:1014B0008F5F80936400992783709070892B49F423
:1014C0008091690090916A00019690936A008093E0
:1014D0006900B09B1FC0809166008F5F809366009B
:1014E0008430D8F010926600C2980000000000001E
:1014F0000000C29A12C08130C9F63093E8002093F0
:10150000E700D4CF81E080936700C2D7F8941092AF
:10151000670003C080916600E3CFFF91EF91BF9118
:10152000AF919F918F917F916F915F914F913F917B
:101530002F910F900FBE0F901F901895BF92CF92D2
:10154000DF92EF92FF920F931F93CF93DF93CDB76C
:10155000DEB7A0970FB6F894DEBF0FBECDBF88E10F
:1015600090E02EE00FB6F894A89581BD0FBE21BD86
:101570008FE382BB80EC81BB88EF85BB8DEF88BB9E
:1015800086E087BB80E487B987E886B982E487B9BB
:1015900087B187B987EC86B93699FECF1DBC1CBCD4
:1015A00089E090E497BD86BD1FBC89E18EBD80E2D5
:1015B00089BFB6DE72DB84E690E03DD76093E3003E
:1015C0007093E4008093E5009093E600A8953CDBDF
:1015D000882329F480916000826080936000C29823
:1015E0000000000000000000C29A19BE1EBC1DBC15
:1015F0001CBC1BBC1ABC82E88FBD81E08EBD1BBC2D
:101600001ABC84E089BFE5D1EADCF894C090690097
:10161000D0906A007894D0929200C09291007E019E
:101620000894E11CF11C80E2F70111928A95E9F718
:10163000BB24A8956DD18C0197FD11C08D3091050B
:1016400009F451C089D1FEE1FB1548F0F701EB0D1B
:10165000F11D0083B394F701EB0DF11D108271DBD6
:10166000DBDB20912301309124012115310581F02C
:101670004091910050919200F8948091690090916E
:101680006A007894841B950B8217930708F057C063
:10169000F8948091690090916A0078948C199D0962
:1016A0008436910530F2E4E6F0E0CE0EDF1E809144
:1016B0006000882309F43FC082B390E4892782BB8D
:1016C0008091600087FFB5CF8091EB009091EC0096
:1016D00003970CF0AECFF894809160008F778093E1
:1016E00060007894A6CF8AE037D18DE035D1BB2059
:1016F00021F12B2D3327C901019718161906A4F4DF
:101700008981803209F495C0A0E0B0E007C0F701FC
:10171000EA0FFB1F8081803209F483C01196C90152
:101720000197A817B90799F76FEF7FEFC7017ADC28
:101730001982BB2494CF969A7CCF51DCF9CF240F29
:10174000351F309392002093910066E470E083E9A6
:1017500090E008D66091EB007091EC0043E086E9E0
:1017600090E033D66091ED007091EE0043E08DE99A
:1017700090E02BD66091EF007091F00043E084EA96
:1017800090E023D6F89460916B0070916C0078948F
:1017900043E08BEA90E019D66091F1007091F2007D
:1017A00044E082EB90E011D66091F3007091F40078
:1017B00044E08AEB90E009D660916000772742E030
:1017C00082EC90E01AD66091F5007091F60043E04B
:1017D00088EC90E0FAD56091F7007091F800809164
:1017E000F9009091FA002AE43DE545E050E03FD150
:1017F00089012051374214F00FE017E2C8016AE076
:1018000070E022D143E08FEC90E0DFD5C8016AE0C0
:1018100070E01AD141E0BC0183ED90E0D6D5C6D08E
:1018200037CFCF01AE0DBF1D1C9201965CD5BC0118
:101830007DCFA0E0B0E0C701F5CF1F920F920FB6A9
:101840000F9211242F933F934F938F939F93EF9376
:10185000FF934CB12091C1013091C2012F5F3F4FE6
:101860002031310510F020E030E08091C3019091EB
:10187000C4012817390759F0E091C101F091C20164
:10188000EF5CFE4F40833093C2012093C101FF9172
:10189000EF919F918F914F913F912F910F900FBE9C
:1018A0000F901F9018951F920F920FB60F92112450
:1018B0002F933F938F939F93EF93FF932091C701B3
:1018C0003091C8018091C5019091C6012817390750
:1018D00091F0F901EF5CFE4F80898CB9F9013196E6
:1018E000E038F10528F4F093C801E093C70105C082
:1018F000E0E0F0E0F8CF88E98AB9FF91EF919F919D
:101900008F913F912F910F900FBE0F901F901895C0
:101910002091C3013091C401F8948091C10190914C
:10192000C201789428173907A1F0F901EF5CFE4F46
:101930008081F9013196E031F10540F4F894F0939B
:10194000C401E093C301789499270895E0E0F0E0A2
:10195000F5CF8FEF9FEF0895482F2091C50130916B
:10196000C6012F5F3F4F2038310510F020E030E0F6
:10197000F8948091C7019091C8017894281739078D
:1019800091F0E091C501F091C601EF5CFE4F408BF4
:10199000F8943093C6012093C501789488EB8AB9F6
:1019A00080E090E0089581E090E008951F93CF9348
:1019B000DF93C3E9D0E01991112339F0812FCCDFF7
:1019C0008823E1F719911123C9F7DF91CF911F9176
:1019D000089583E389B910BC86E880BD88E98AB997
:1019E0000895629FD001739FF001829FE00DF11D69
:1019F000649FE00DF11D929FF00D839FF00D749F89
:101A0000F00D659FF00D9927729FB00DE11DF91F34
:101A1000639FB00DE11DF91FBD01CF011124089591
:101A2000AA1BBB1B51E107C0AA1FBB1FA617B70704
:101A300010F0A61BB70B881F991F5A95A9F7809520
:101A40009095BC01CD01089597FB092E07260AD079
:101A500077FD04D0E5DF06D000201AF4709561957B
:101A60007F4F0895F6F7909581959F4F0895A1E2D5
:101A70001A2EAA1BBB1BFD010DC0AA1FBB1FEE1F08
:101A8000FF1FA217B307E407F50720F0A21BB30B53
:101A9000E40BF50B661F771F881F991F1A9469F7CF
:101AA00060957095809590959B01AC01BD01CF012B
:101AB000089509D001921A94E1F7089501900BD08E
:101AC0001A94E1F70895E199FECFBFBBAEBBE09A4F
:101AD00011960DB20895E199FECFBFBBAEBB0DBA12
:0E1AE00011960FB6F894E29AE19A0FBE08959F
:021AEE00800076
:00000001FF
