:101C000012C02BC02AC029C028C027C026C025C0AA
:101C100024C023C022C021C020C01FC01EC01DC0C0
:101C20001CC01BC01AC011241FBECFE5D4E0DEBF0C
:101C3000CDBF10E0A0E6B0E0EEECFFE102C0059001
:101C40000D92A637B107D9F711E0A6E7B0E001C0C1
:101C50001D92AE37B107E1F71BC1D2CFAC01E0E076
:101C6000FCE12FEF3FEF13C084912827022E22952D
:101C7000207F2025032E322F22952F7002262695B5
:101C800032272327220F220F220F20253196E41717
:101C9000F50750F3C9010895FC0140E050E02FEF33
:101CA0003FEF14C081912827022E2295207F202506
:101CB000032E322F22952F700226269532272327B6
:101CC000220F220F220F20254F5F5F4F4617570725
:101CD00049F7C90108951F93CF93DF93DC01EB010E
:101CE00083E0FD0180935700E89507B600FCFDCF27
:101CF000E199FECF60E070E011E0AD01288133276B
:101D0000898122969927982F8827282B392B09011A
:101D1000FA0110935700E89511246E5F7F4F4E5FD4
:101D20005F4F6034710551F785E0FD0180935700E6
:101D3000E89507B600FCFDCF81E180935700E89558
:101D4000DF91CF911F910895EF92FF920F931F9310
:101D5000CF93DF938C017B01C0E0D0E007C0EFD0D0
:101D600097FD07C0F80181938F012196CE15DF05FD
:101D7000B1F7CE01DF91CF911F910F91FF90EF90BE
:101D80000895EF92FF920F931F93CF93DF938C01EF
:101D90007B01C0E0D0E005C0F80181918F01E5D062
:101DA0002196CE15DF05C1F7DF91CF911F910F91DD
:101DB000FF90EF900895CF93DF9368E071E086E79E
:101DC00090E0C2DFEC0188309105B8F3BC016250AD
:101DD000704086E790E060DFCC58DF4F2881398182
:101DE0002817390751F780917600823099F08330B7
:101DF00018F4813071F505C08430C9F0863049F59A
:101E000044C080E490E090937D0080937C00C2E029
:101E1000D0E021C0C0917A00D0917B006091780021
:101E200070917900AE018CE790E0BED014C0809133
:101E30007A0090917B008034910559F4809178006C
:101E4000909179002BE1813C920718F46CE770E0E7
:101E500042DFC0E0D0E08091760090917700916001
:101E60009093770080937600BE016A5F7F4F86E78C
:101E700090E012DFFE01E458FF4F918380832896A3
:101E8000BE0186E790E07DDF98CFDF91CF91089586
:101E9000FF920F931F93CF93DF93CDB7DEB7A09739
:101EA0000FB6F894DEBF0FBECDBF40D011E047D0D3
:101EB000809721F0143159F11F5FF9CF6AE070E08B
:101EC00080E690E05EDF3BD03AD0FF246FE170E027
:101ED0008E010F5F1F4FC80137DF282F882359F06D
:101EE000F801E80FF11D1082B8018BE690E065D093
:101EF000892B39F020E0F39484E1F81639F7222396
:101F000031F064E070E081E790E03BDF54DF13D014
:101F100080E090E0A0960FB6F894DEBF0FBECDBF74
:101F2000DF91CF911F910F91FF9008958898919A1A
:101F3000899A919A08958998EE27FF270994AFE12D
:101F4000B8E6E9E0A150B04071F08099FBCF1BD01A
:101F50001AD019D0889480990894EA9511F0879541
:101F6000F7CF992708959FEF0895EAE080950894A8
:101F700010F4919802C0919A000005D004D0869583
:101F8000EA95B1F70895F7E8FA95F1F70895FC019D
:101F9000809B04C03196E1F7CF010895809903C07A
:101FA0000196E1F708950895FB01DC0102C0059058
:101FB0000D9241505040D8F70895FB01DC018D91FE
:0E1FC0000190801911F40020D1F7990B0895BB
:101FCE004F534343414C3D300D0A004D4F4E0D0AC9
:061FDE00004F4B0D0A004C
:0400000300001C00DD
:00000001FF
