:100000000C94C7010C94E2010C94E2010C94E201FF
:100010000C94E2010C94E2010C94E2010C94E201D4
:100020000C94E2010C94E2010C94DD060C94E201C4
:100030000C94E2010C941D0C0C94E2010C94E2016E
:100040000C94E2010C94E2010C94B30E0C94EA0EB1
:100050000C94E2010C94E2010C94E2010C94E20194
:100060000C94E2010C94E201AB120200A0009D018D
:10007000AB02640008000000060000000000000061
:10008000E8030A0005000000000000000000000076
:10009000000000000000000054523D7878782043B2
:1000A000523D7878782043463D7878782050573D07
:1000B0007878782048533D787878782052543D7885
:1000C0007878782046423D78782042413D787878AB
:1000D0002041483D7878782E780D0A0070632D74A1
:1000E000696D65006261742D616D70732D6C696D51
:1000F000006D6F746F722D73632D616D707300707E
:10010000776D2D646561647A6F6E65006D6F746FD5
:10011000722D6F732D6474006D6F746F722D6F7319
:100120002D6674006D6F746F722D6F732D7468007F
:1001300070776D2D66696C746572007274642D70D1
:100140006572696F6400632D727200742D70776D33
:100150002D6761696E00742D706F732D6761696E14
:1001600000742D6661756C742D726300742D6D6161
:10017000782D726300742D6D696E2D7263006B694A
:10018000006B70006261747465727920616D70201B
:10019000686F7572732072657365740D0A007265FD
:1001A0007365742D616800726573746172740041C7
:1001B000565220787878252069646C650D0A0069AC
:1001C000646C6500636F6E66696775726174696FF0
:1001D0006E207772697474656E20746F2045450DCA
:1001E0000A007361766500636F6E666967007072FE
:1001F000656368617267655F74696D653D7878787D
:100200000D0A00626174746572795F616D70735F6D
:100210006C696D69743D7878780D0A006D6F746F44
:10022000725F73706565645F63616C635F616D705D
:10023000733D7878780D0A006D6F746F725F6F731D
:100240005F6474696D653D78782070776D5F646573
:1002500061647A6F6E653D78780D0A006D6F746F1A
:10026000725F6F735F7468726573686F6C643D78FA
:10027000787878206D6F746F725F6F735F667469E2
:100280006D653D787878780D0A0070776D5F6669E6
:100290006C7465723D780D0A007274645F706572EB
:1002A000696F643D78787878780D0A0063757272AA
:1002B000656E745F72616D705F726174653D7878B0
:1002C000780D0A007468726F74746C655F706F7378
:1002D0005F6761696E3D787878207468726F7474B6
:1002E0006C655F70776D5F6761696E3D7878780DDA
:1002F0000A007468726F74746C655F6661756C7403
:100300005F7261775F636F756E74733D787878782C
:100310000D0A007468726F74746C655F6D696E5F4E
:100320007261775F636F756E74733D78787878204B
:100330007468726F74746C655F6D61785F726177F9
:100340005F636F756E74733D787878780D0A004B33
:10035000703D787878204B693D7878780D0A0043B5
:100360006F75676172204F5320636F6E74726F6C8C
:100370006C6572206669726D776172652076312EC8
:1003800031312028384B50574D290D0A00001124D7
:100390001FBECFEFD4E0DEBFCDBF11E0A0E0B1E0E3
:1003A000ECE2F0E202C005900D92A230B107D9F75D
:1003B00012E0A2E0B1E001C01D92AA37B107E1F757
:1003C0000C94BC0C0C940000FC0188279927E8943D
:1003D00021912223F1F02032D9F32930C9F32A30B8
:1003E000B9F32C30A9F32D3099F3263789F32B324A
:1003F00019F02D3221F468942191222351F02033F9
:1004000044F02A3334F420530E942B02820F911DB2
:10041000F3CF8115910521F01EF4809590950196FA
:100420000895FB01DC0102C005900D92415050403F
:10043000D8F70895FB01DC018D910590801911F426
:100440000020D1F7990B0895FB01DC0105900D9276
:100450000020E1F708957AE0979F902D879F802DE7
:10046000910D11240895AC01892BD9F0E0E0F0E062
:100470002FEF3FEF84912827022E2295207F202501
:10048000032E322F22952F700226269532272327FE
:10049000220F220F220F202531964E175F0751F7AA
:1004A00002C02FEF3FEFC9010895DC01892BE9F06D
:1004B00020E030E04FEF5FEFFB0181914827042EF1
:1004C0004295407F4025052E542F42954F700426BB
:1004D000469554274527440F440F440F40252F5F6E
:1004E0003F4FA217B30749F702C04FEF5FEFCA01B2
:1004F0000895F894A89584B7877F84BFE0E6F0E07C
:10050000808188618083108278940895F894A895FA
:10051000E0E6F0E08081886180838CE080837894DD
:1005200008959B01542F41504F3FA1F0FC01E50F6E
:10053000F11D3197C9016AE070E00E94AF0F805D44
:1005400080833197C9016AE070E00E94AF0F9B0180
:10055000415080F70895242F21502F3FC9F0FC010E
:10056000E40FF11D31970CC0895C808321502F3F2F
:1005700079F03197729562956F7067277F70672762
:10058000862F8F708A3080F7805D8083215088F7B6
:100590000895FC01F8946091080170910901789424
:1005A000F89480910801909109017894861B970B2B
:1005B0008E179F07A0F420E030E040E050E02F5F6E
:1005C0003F4F4F4F5F4FF894809108019091090180
:1005D0007894861B970B8E179F0788F304C020E042
:1005E00030E040E050E0CA01B90108956F927F9277
:1005F0008F929F92AF92BF92CF92DF92EF92FF9233
:100600000F931F93CF93DF9340918A0150918B01F9
:1006100060909C0170909D01789421E04A395207C6
:1006200028F48091000182608093000120910C01E8
:1006300030910D014217530708F0D8C0C0E0D0E058
:10064000D0931B01C0931A0180901801909019015A
:10065000C4018C1B9D0B5C01CC24B7FCC094DC2C2A
:10066000A092A601B092A701C092A801D092A901C0
:100670008114910409F0D2C01092AE011092AF0122
:100680001092B0011092B101A092AA01B092AB01F8
:10069000C092AC01D092AD0120E030E0F894C901E5
:1006A000880F991F909389008093880078943093E5
:1006B0000B0120930A0180910A0190910B01AA2756
:1006C000BB278C01FF24EE248091C601813009F400
:1006D00076C1813008F006C12091100130911101DE
:1006E0004091120150911301DA01C901880F991F3D
:1006F000AA1FBB1F880F991FAA1FBB1F880F991F16
:10070000AA1FBB1F880F991FAA1FBB1F880F991F05
:10071000AA1FBB1F880F991FAA1FBB1F880F991FF5
:10072000AA1FBB1F821B930BA40BB50B9C01AD0131
:100730002E0D3F1D401F511FE7E0569547953795F9
:100740002795EA95D1F7209310013093110140933A
:10075000120150931301CA01AA27BB27AC01909341
:100760000F0180930E01809131018F5F80933101E1
:10077000992783709070009709F0D2C08091BC01D6
:100780009091BD018615970508F055C180912F0104
:1007900090913001009709F065C16091BA017091A4
:1007A000BB016615770508F46AC18091B801909184
:1007B000B90193016816790608F49C017B01E81AD7
:1007C000F90A621B730B882799272FEF31E040E06D
:1007D00050E00E94900F00271127A80197010E9466
:1007E000D60F3093170120931601D8C2421B530B2A
:1007F0009A01CA01880F991FEC01CC0FDD1FCC0FA5
:10080000DD1FCC0FDD1FC80FD91FC20FD31FD69518
:10081000C795D695C795D695C79512CF20919E01BD
:1008200030919F014091A0015091A101C601B501F5
:100830000E94900F7B018C016091A2017091A30135
:100840008091A4019091A5012091AA013091AB0162
:100850004091AC015091AD010E94900F2091AE01EA
:100860003091AF014091B0015091B101260F371F77
:10087000481F591FE20EF31E041F151FE092AE0120
:10088000F092AF010093B0011093B101A092AA01C0
:10089000B092AB01C092AC01D092AD0161E0E6161E
:1008A00060E0F6066EEF060761E0160774F180E07F
:1008B00090E0AEEFB1E08093AE019093AF01A093D2
:1008C000B001B093B1018091AE019091AF01A091C0
:1008D000B001B091B101CD01BB2797FDB095AB2F11
:1008E0009C01DCCE823009F493C1833009F4DCC072
:1008F00020E030E040E050E0109210011092110131
:10090000109212011092130126CF17FFBEC0109251
:10091000AE011092AF011092B0011092B101D3CF8D
:100920008130910509F4F4C08230910509F4A8C121
:10093000039709F033C28091C8019091C901892BB6
:1009400009F42CC28091000186FDF1C12091CE01F5
:100950003091CF0180910A0190910B01281739073E
:1009600008F401C2EE24FF2487018091D401909104
:10097000D5018C179D0708F0F3C19E01442737FD70
:100980004095542FC801B7010E94D60F80912601CF
:1009900090912701A0912801B09129018217930716
:1009A000A407B50708F0DCC190912C018091CC011F
:1009B000981708F0E4C19F5F90932C01EFC120913C
:1009C0001001309111014091120150911301DA018F
:1009D000C901880F991FAA1FBB1F880F991FAA1F43
:1009E000BB1F880F991FAA1FBB1F880F991FAA1F23
:1009F000BB1F880F991FAA1FBB1F880F991FAA1F13
:100A0000BB1F821B930BA40BB50B9C01AD012E0DDC
:100A10003F1D401F511FE6E0569547953795279596
:100A2000EA95D1F720931001309311014093120100
:100A30005093130190CE80912F0190913001883C0A
:100A4000910508F0ABC101969093300180932F017E
:100A5000883C910508F4A2C18091000181608093D7
:100A600000019CC101979093300180932F01609108
:100A7000BA017091BB016615770508F096CE9B010F
:100A80008091B8019091B90199CEC801BB2797FD1B
:100A9000B095AB2F9C01C70180709078892B09F429
:100AA000FDCD2F5F3F4FFACD209110013091110104
:100AB0004091120150911301DA01C901880F991F69
:100AC000AA1FBB1F880F991FAA1FBB1F880F991F42
:100AD000AA1FBB1F880F991FAA1FBB1F821B930B46
:100AE000A40BB50B9C01AD012E0D3F1D401F511FE6
:100AF00014E056954795379527951A95D1F7209389
:100B0000100130931101409312015093130123CE31
:100B10008091BE019091BF01209116013091170183
:100B2000B901869F9001879F300D969F300D11244B
:100B30003695279536952795369527958091C0014E
:100B40009091C101BC01469FC001479F900D569FE7
:100B5000900D1124969587959695879596958795EE
:100B60008217930708F0D9C0281B390BC9012091BF
:100B70001401309115012817390708F4EDC08819C0
:100B800099092091C2013091C301281739074CF00F
:100B900066277727621B730B9C01861797070CF457
:100BA000D9C0E901C80DD91DD0931901C09318010E
:100BB0008091D0019091D101892B01F1411551050E
:100BC000E9F0CA019C0144275527609122017091E8
:100BD000230180912401909125010E94D60F2F3F7F
:100BE00091E0390790E0490790E0590738F42C1755
:100BF0003D0720F4309319012093180180910001E2
:100C0000882309F4CBC01092190110921801C6C0B4
:100C10002091100130911101409112015091130166
:100C2000DA01C901880F991FAA1FBB1F880F991FDE
:100C3000AA1FBB1F880F991FAA1FBB1F880F991FD0
:100C4000AA1FBB1F880F991FAA1FBB1F821B930BD4
:100C5000A40BB50B9C01AD012E0D3F1D401F511F74
:100C6000E5E05695479537952795EA95D1F7209376
:100C700010013093110140931201509313016BCD79
:100C800020910A0130910B01BE01882777FD8095E4
:100C9000982F442755270E94900F672F782F892F70
:100CA00099279B0170931D0160931C0160FF38C060
:100CB000369527952F5F3F4F30931D0120931C01E0
:100CC00080911C0190911D01AA27BB2720911E0134
:100CD00030911F014091200150912101820F931FFB
:100CE000A41FB51F80931E0190931F01A0932001A4
:100CF000B093210181509842AB46BE4E08F44EC0DD
:100D000080E098E2ABE6BEEE80931E0190931F0157
:100D1000A0932001B093210141C080E090E02FCF4B
:100D20003695279530931D0120931C01C9CF8091E2
:100D30002A0190912B01009789F1019790932B0143
:100D400080932A01892B51F5809100018F7B80933C
:100D5000000124C09B0125CFC9018819990911CF31
:100D600010922C011BC080910A0190910B01821BF3
:100D7000930BAA27BB278C01FF24EE24F6CD80918C
:100D8000000180648093000110922C018091CA01BF
:100D90009091CB0190932B0180932A01DF91CF9109
:100DA0001F910F91FF90EF90DF90CF90BF90AF9089
:100DB0009F908F907F906F9008951F920F920FB623
:100DC0000F9211248F939F938091080190910901B4
:100DD000019690930901809308019F918F910F9044
:100DE0000FBE0F901F90189540E020E030E062E4C5
:100DF00057EC60937C0080917C0080937C00509342
:100E00007A0080917A0086FDFCCF809178009091E5
:100E10007900280F391F4F5F403159F7C90192956A
:100E200082958F7089279F70892790930D018093F9
:100E30000C0120E08E5C91408536910508F021E0A0
:100E400081E02827822F99270895CF93DF93CDB78C
:100E5000DEB728970FB6F894DEBF0FBECDBF8091E6
:100E6000B4019091B501AA2797FDA095BA2F6AE029
:100E7000880F991FAA1FBB1F6A95D1F789839A8390
:100E8000AB83BC8329813A814B815C818091B6011F
:100E90009091B701AA2797FDA095BA2F821B930BBB
:100EA000A40BB50B8D839E83AF83B887F89489819B
:100EB0009A81AB81BC8180939E0190939F01A09306
:100EC000A001B093A1018D819E81AF81B8858093EF
:100ED000A2019093A301A093A401B093A5017894DB
:100EE00028960FB6F894DEBF0FBECDBFDF91CF912D
:100EF0000895F894809116019091170190938D01B7
:100F000080938C0178940000000000000000F894A9
:100F1000809118019091190190938F0180938E0117
:100F200078940000000000000000F89480911A01FD
:100F300090911B019093910180939001789400000F
:100F4000000000000000F8948091880190918901D0
:100F50009093930180939201789400000000000028
:100F60000000F89480919C0190919D0190939501CF
:100F70008093940178940000000000000000F89431
:100F800080911C0190911D0190939701809396018F
:100F900078940000000000000000F89480911E0189
:100FA00090911F01A0912001B0912101809398019F
:100FB00090939901A0939A01B0939B0178940000BB
:100FC000000000000000089580919201909193012B
:100FD00022E08F39920720F19C012E59324036953C
:100FE0002795369527953695279527303105A8F40E
:100FF00087E090E0821B930B2FEF31E0AC01429F22
:10100000C001439F900D529F900D11249695879596
:10101000969587959695879505C080E090E002C0EB
:101020008FEF91E0F89490931501809314017894D8
:101030000895CF93DF93EC0180FD00C1C1FDE3C0B3
:10104000C2FDCFC0C3FDB2C0C4FD9EC0C5FD8AC0F5
:10105000C6FD76C0C7FD59C0D0FD3CC0D1FD28C03B
:10106000D2FD14C0D3FF05C16EEE71E084E391E0C0
:101070000E9424026091D2017091D30143E083E485
:1010800091E00E9491020E94700FF3C063E072E051
:1010900084E391E00E9424026091D0017091D1011B
:1010A00043E087E491E00E9491020E94700FDACF42
:1010B0006CE172E084E391E00E9424026091D4012B
:1010C0007091D50143E08AE491E00E9491020E9470
:1010D000700FC6CF68E372E084E391E00E942402BF
:1010E0006091CC017091CD0142E083E491E00E94D7
:1010F00091026091CE017091CF0142E083E591E0D1
:101100000E9491020E94700FA9CF6CE572E084E307
:1011100091E00E9424026091C8017091C90144E0ED
:1011200087E491E00E9491026091CA017091CB0125
:1011300044E08BE591E00E9491020E94700F8CCFF9
:101140006AE872E084E391E00E9424026091C601A3
:101150007091C70141E08FE391E00E9491020E94EB
:10116000700F78CF69E972E084E391E00E94240275
:101170006091C4017091C50145E08FE391E00E9448
:1011800091020E94700F64CF6CEA72E084E391E0F8
:101190000E9424026091C2017091C30143E086E481
:1011A00091E00E9491020E94700F50CF64EC72E0B7
:1011B00084E391E00E9424026091BE017091BF011E
:1011C00043E086E491E00E9491026091C001709139
:1011D000C10143E08CE591E00E9491020E94700FF2
:1011E00033CF62EF72E084E391E00E9424026091C9
:1011F000BC017091BD0144E08EE491E00E94910237
:101200000E94700F1FCF63E173E084E391E00E94BE
:1012100024026091B8017091B90144E08CE491E03E
:101220000E9491026091BA017091BB0144E089E68D
:1012300091E00E9491020E94700F02CF6FE473E070
:1012400084E391E00E9424026091B4017091B501A1
:1012500043E087E391E00E9491026091B6017091B2
:10126000B70143E08EE391E00E9491020E94700F6B
:10127000E5CEDF91CF9108956FE573E084E391E0CF
:101280000E9424020E94700F0895FF920F931F93F3
:10129000CF93DF9302EB11E0B8018EE290E00E9461
:1012A00055029093E1018093E001C0E0D0E0F0E3CB
:1012B000FF2E0E947902DE01F8011F2C0E94FD0F13
:1012C0000E948602E096C03CD10599F7DF91CF914C
:1012D0001F910F91FF9008950F931F93CF93DF936A
:1012E0008C01EB0167EE71E00E941A02892B29F450
:1012F0008FEF9FEF0E941908FCC162EE71E0C801F8
:101300000E941A02892B89F06FEB71E0C8010E94DC
:101310001A02892BA9F067EA71E0C8010E941A023B
:10132000892B91F50E948602FFCF0E94450964EC4B
:1013300071E084E391E00E9424020E94700FD9C101
:101340006FEA71E084E391E00E94240284E690E079
:101350000E94C90224E630E040E050E00E94900F75
:10136000209184013091850140918601509187013F
:101370000E94D60FCA01B90143E088E391E00E94C0
:1013800091020E94700FB5C16EE971E0C8010E9420
:101390001A02892B99F4F89410921E0110921F01E1
:1013A0001092200110922101789464E871E084E3A6
:1013B00091E00E9424020E94700F9BC161E871E0DD
:1013C000C8010E941A02892B81F481E0C53FD80729
:1013D00008F08FC1D093B501C093B4010E942507D6
:1013E00081E090E00E94190884C16EE771E0C801B5
:1013F0000E941A02892B81F481E0C53FD80708F0CA
:1014000078C1D093B701C093B6010E94250781E04F
:1014100090E00E9419086DC165E771E0C8010E9463
:101420001A02892B81F484E0C030D80708F061C12A
:10143000F894D093B901C093B801789482E090E019
:101440000E94190856C16CE671E0C8010E941A0298
:10145000892B81F484E0C030D80708F04AC1F894A1
:10146000D093BB01C093BA01789482E090E00E94CF
:1014700019083FC161E671E0C8010E941A02892B78
:1014800081F484E0C030D80708F033C1F894D093D9
:10149000BD01C093BC01789484E090E00E941908DB
:1014A00028C166E571E0C8010E941A02892B79F40F
:1014B000C138D10508F01DC1F894D093BF01C09385
:1014C000BE01789488E090E00E94190812C16BE494
:1014D00071E0C8010E941A02892B79F4C138D10544
:1014E00008F007C1F894D093C101C093C00178946B
:1014F00088E090E00E941908FCC066E471E0C80131
:101500000E941A02892B79F4C536D10508F0F1C082
:10151000F894D093C301C093C201789480E190E025
:101520000E941908E6C06BE371E0C8010E941A022C
:10153000892BC1F48DE7C130D80708F0DAC0D09309
:10154000C501C093C401F8948091080190910901EC
:101550007894909333018093320180E290E00E946E
:101560001908C7C060E371E0C8010E941A02892B04
:1015700079F4C430D10508F0BCC0F894D093C70109
:10158000C093C601789480E490E00E941908B1C02D
:1015900064E271E0C8010E941A02892B01F587E21A
:1015A000C031D80708F0A5C0D093C901C093C801C5
:1015B000CE01AA27BB271AE0880F991FAA1FBB1FBD
:1015C0001A95D1F78093260190932701A0932801C3
:1015D000B093290180E890E00E9419088AC068E170
:1015E00071E0C8010E941A02892B71F487E2C031B0
:1015F000D80708F07EC0D093CB01C093CA0180E821
:1016000090E00E94190875C06CE071E0C8010E946A
:101610001A02892B69F4C436D10508F06AC0D09348
:10162000CD01C093CC0180E091E00E94190861C017
:101630006FEF70E0C8010E941A02892B69F4C4366A
:10164000D10508F056C0D093CF01C093CE0180E001
:1016500091E00E9419084DC061EF70E0C8010E943E
:101660001A02892B71F482E0C030D80708F041C01B
:10167000D093D501C093D40180E092E00E94190874
:1016800038C064EE70E0C8010E941A02892BF1F4A0
:1016900082E0C030D80768F5D093D101C093D00163
:1016A000BE01882799272EEF31E040E050E00E94EC
:1016B000900F6093220170932301809324019093F3
:1016C000250180E094E00E94190813C06CED70E0E1
:1016D000C8010E941A02892B61F483E0C83ED80732
:1016E00040F4D093D301C093D20180E098E00E94EF
:1016F0001908DF91CF911F910F910895CF92DF923A
:10170000EF92FF920F931F93CF93DF93CDB7DEB786
:10171000E0970FB6F894DEBF0FBECDBFDD2400E02A
:1017200010E07E010894E11CF11CDD0C80E3D8017F
:10173000F701182E0E94F80F005D1F4F89819A81D2
:101740008B5A924129F1003C110579F7DD2009F40B
:101750005DC000E010E090E3C92E82EBE82E81E04E
:10176000F82E06C00039110509F458C0005D1F4F5E
:10177000DD0CD4FCF7CF0E947902D801F7011C2CB4
:101780000E94FD0F0E9486020039110579F746C0BC
:10179000B7018EE290E00E9455022FA538A982176A
:1017A000930789F621E0D22AA2EBB1E0F70180E3AA
:1017B00001900D928150E1F78091C8019091C9018B
:1017C000AA27BB272AE0880F991FAA1FBB1F2A95AB
:1017D000D1F78093260190932701A0932801B0931D
:1017E00029016091D0017091D101882799272EEFAE
:1017F00031E040E050E00E94900F6093220170932E
:10180000230180932401909325019DCF40E350E074
:1018100068E670E082EB91E00E941102E0960FB65C
:10182000F894DEBF0FBECDBFDF91CF911F910F9116
:10183000FF90EF90DF90CF9008951F920F920FB618
:101840000F9211242F933F934F935F936F937F9346
:101850008F939F93AF93BF93EF93FF938091020178
:101860008E5F80930201809103018F5F809303015B
:1018700080FF3DC0209178003091790082E4809310
:101880007C0080917C0080937C0087EC80937A00C0
:1018900080910501882309F053C030939D01209366
:1018A0009C01809104018F5F8093040199278370CC
:1018B0009070892B49F4809108019091090101965B
:1018C0009093090180930801189B42C08091060102
:1018D0008F5F80930601843008F43DC010920601AA
:1018E0002A9800000000000000002A9A34C080916D
:1018F00078009091790090938B0180938A01809178
:1019000005018F5F80930501823018F080E010920E
:101910000501806480937C0080917C0080937C0032
:1019200087EC80937A00809107018823A1F481E0FD
:10193000809307010E94F602F894109207010BC0F1
:10194000813009F0AECF3093890120938801A9CF6F
:1019500080910601C0CFFF91EF91BF91AF919F9110
:101960008F917F916F915F914F913F912F910F9048
:101970000FBE0F901F901895BF92CF92DF92EF92FB
:10198000FF920F931F93CF93DF93CDB7DEB7A0974E
:101990000FB6F894DEBF0FBECDBF0EE210E2F80125
:1019A000059114918EE290E20E9433020817190704
:1019B00009F0FFCF8FEB8BB980EC8AB988EF88B93B
:1019C0008DEF85B986E084B987E080937E0080E45E
:1019D00080937C0087E880937A0082E480937C0087
:1019E00080917C0080937C0087EC80937A008091CA
:1019F0007A0086FDFCCF109285001092840089E069
:101A000090E490938700809386001092800089E193
:101A10008093810080E280936F000E947E0B209172
:101A2000D2013091D3012115310559F08091000187
:101A30008062809300012B5F3F4F30932E012093F3
:101A40002D010E94250784E690E00E94C902609360
:101A500084017093850180938601909387010E9491
:101A600086020E94F406882329F480910001826096
:101A7000809300012A9800000000000000002A9ACC
:101A800010926F00109281001092850010928400D5
:101A9000109289001092880083E88093800081E092
:101AA00080938100109289001092880080936F00CB
:101AB0000E94840F0E943C09F894C0900801D090C5
:101AC00009017894D0923301C09232017E010894CA
:101AD000E11CF11C80E2F70111928A95E9F7BB2421
:101AE000A8950E94210F8C0197FD12C08D309105A1
:101AF00009F462C00E94450FFEE1FB1548F0F701B2
:101B0000EB0DF11D0083B394F701EB0DF11D108275
:101B10000E9479070E94E4072091C4013091C50119
:101B20002115310581F04091320150913301F89433
:101B300080910801909109017894841B950B82177C
:101B4000930708F069C0F894809108019091090109
:101B500078948C199D098436910508F4C1CFE4E688
:101B6000F0E0CE0EDF1E80910001882309F44FC003
:101B70008BB190E489278BB98091000187FDE0C08B
:101B80008091000185FFACCF80912D0190912E01B5
:101B9000009709F0CBC0F894809100018F7D80936D
:101BA00000017894A8950E94210F8C0197FDB0CF79
:101BB0008D30910509F09ECF8AE00E94450F8DE09F
:101BC0000E94450FBB2029F12B2D3327C901019716
:101BD00018161906A4F48981803209F4C0C0A0E067
:101BE000B0E007C0F701EA0FFB1F8081803209F4E3
:101BF00094C01196C90101978A179B0799F76FEF57
:101C00007FEFC7010E946C091982BB2481CF5E9AC5
:101C100067CF0E943C09F8CF240F351F3093330162
:101C20002093320168E970E084E391E00E9424028D
:101C300060918C0170918D0143E087E391E00E94F7
:101C4000910260918E0170918F0143E08EE391E0EB
:101C50000E949102609190017091910143E085E4AE
:101C600091E00E949102F89460910A0170910B0139
:101C7000789443E08CE491E00E949102609192019B
:101C80007091930144E083E591E00E94910260919C
:101C900094017091950144E08BE591E00E949102DE
:101CA00060910001772742E083E691E00E94AB0259
:101CB000609196017091970143E089E691E00E945E
:101CC0009102609198017091990180919A0190918F
:101CD0009B012AE43DE545E050E00E94D60F8901D2
:101CE0002051374214F00FE017E2C8016AE070E0BB
:101CF0000E94C30F43E080E791E00E949102C80177
:101D00006AE070E00E94C30F41E0BC0184E791E00B
:101D10000E9491020E94700F16CFCF01AE0DBF1D21
:101D20001C9201960E94E401BC016BCF86309105A4
:101D300008F45F98019790932E0180932D01D0CEE7
:101D400080918C0190918D0103970CF019CFF8943C
:101D5000809100018F7780930001789411CFA0E0EB
:101D6000B0E0C701DBCF1F920F920FB60F92112484
:101D70002F933F934F938F939F93EF93FF934091B4
:101D8000C60020917202309173022F5F3F4F2031C5
:101D9000310510F020E030E08091740290917502DE
:101DA0002817390759F0E0917202F0917302EE5151
:101DB000FE4F40833093730220937202FF91EF91A4
:101DC0009F918F914F913F912F910F900FBE0F9048
:101DD0001F9018951F920F920FB60F9211242F93F8
:101DE0003F938F939F93EF93FF93209178023091CD
:101DF000790280917602909177022817390799F03D
:101E0000F901EE51FE4F80898093C600F9013196A9
:101E1000E038F10528F4F0937902E093780206C0E7
:101E2000E0E0F0E0F8CF88E98093C100FF91EF9106
:101E30009F918F913F912F910F900FBE0F901F9008
:101E400018952091740230917502F8948091720275
:101E500090917302789428173907A1F0F901EE5197
:101E6000FE4F8081F9013196E031F10540F4F8949C
:101E7000F0937502E0937402789499270895E0E056
:101E8000F0E0F5CF8FEF9FEF0895482F2091760275
:101E9000309177022F5F3F4F2038310510F020E05E
:101EA00030E0F89480917802909179027894281724
:101EB000390799F0E0917602F0917702EE51FE4FEA
:101EC000408BF8943093770220937602789488EBD5
:101ED0008093C10080E090E0089581E090E0089553
:101EE0001F93CF93DF93C4E3D1E01991112341F005
:101EF000812F0E94450F8823D9F719911123C1F72B
:101F0000DF91CF911F91089583E38093C4001092D5
:101F1000C50086E08093C20088E98093C1000895DF
:101F2000629FD001739FF001829FE00DF11D649FBD
:101F3000E00DF11D929FF00D839FF00D749FF00D49
:101F4000659FF00D9927729FB00DE11DF91F639FEA
:101F5000B00DE11DF91FBD01CF0111240895AA1B89
:101F6000BB1B51E107C0AA1FBB1FA617B70710F084
:101F7000A61BB70B881F991F5A95A9F780959095B6
:101F8000BC01CD01089597FB092E07260AD077FDE5
:101F900004D0E5DF06D000201AF4709561957F4FDC
:101FA0000895F6F7909581959F4F0895A1E21A2E16
:101FB000AA1BBB1BFD010DC0AA1FBB1FEE1FFF1FED
:101FC000A217B307E407F50720F0A21BB30BE40B3D
:101FD000F50B661F771F881F991F1A9469F7609584
:101FE0007095809590959B01AC01BD01CF0108953E
:101FF00009D001921A94E1F7089501900BD01A9438
:10200000E1F70895F999FECFB2BDA1BDF89A1196F6
:1020100000B40895F999FECFB2BDA1BD00BC1196E0
:102020000FB6F894FA9AF99A0FBE089580002EDA46
:10203000FFFFFFFFFFFFFFFFFFFFFFFFFFFFFFFFB0
:10204000FFFFFFFFFFFFFFFFFFFFFFFFFFFFFFFFA0
:10205000FFFFFFFFFFFFFFFFFFFFFFFFFFFFFFFF90
:10206000FFFFFFFFFFFFFFFFFFFFFFFFFFFFFFFF80
:103800000C94341C0C944F1C0C944F1C0C944F1CA7
:103810000C944F1C0C944F1C0C944F1C0C944F1C7C
:103820000C944F1C0C944F1C0C944F1C0C944F1C6C
:103830000C944F1C0C944F1C0C944F1C0C944F1C5C
:103840000C944F1C0C944F1C0C944F1C0C944F1C4C
:103850000C944F1C0C944F1C0C944F1C0C944F1C3C
:103860000C944F1C0C944F1C11241FBECFEFD4E0BE
:10387000DEBFCDBF11E0A0E0B1E0EAEEFCE302C0A4
:1038800005900D92A631B107D9F712E0A6E1B1E09B
:1038900001C01D92AE31B107E1F70C94EF1D0C94FD
:1038A000001C5098599A519A599A08955198EE27A8
:1038B000FF270994AFE1B8E6E9E0A150B04071F00C
:1038C0004899FBCF1BD01AD019D0889448990894F6
:1038D000EA9511F08795F7CF992708959FEF0895FE
:1038E000EAE08095089410F4599802C0599A0000B3
:1038F00005D004D08695EA95B1F70895F7E8FA95D2
:10390000F1F70895FC01489B04C03196E1F7CF011F
:103910000895489903C00196E1F708950895FB01C1
:10392000DC0102C005900D9241505040D8F7089537
:10393000FB01DC018D910190801911F40020D1F779
:10394000990B0895AC01E0E0F8E32FEF3FEF13C0CF
:1039500084912827022E2295207F2025032E322FA6
:1039600022952F700226269532272327220F220F19
:10397000220F20253196E417F50750F3C901089569
:10398000FC0140E050E02FEF3FEF14C08191282769
:10399000022E2295207F2025032E322F22952F7074
:1039A0000226269532272327220F220F220F2025B9
:1039B0004F5F5F4F4617570749F7C90108951F9397
:1039C000CF93DF93DC01EB0183E0FD01809357008F
:1039D000E89507B600FCFDCFF999FECF60E070E0F6
:1039E00011E0AD0128813327898122969927982FEC
:1039F0008827282B392B0901FA0110935700E895E5
:103A000011246E5F7F4F4E5F5F4F6038710551F735
:103A100085E0FD0180935700E89507B600FCFDCFD7
:103A200081E180935700E895DF91CF911F91089530
:103A3000EF92FF920F931F93CF93DF938C017B0143
:103A4000C0E0D0E008C00E945A1C97FD07C0F801F2
:103A500081938F012196CE15DF05A9F7CE01DF9165
:103A6000CF911F910F91FF90EF900895EF92FF92E9
:103A70000F931F93CF93DF938C017B01C0E0D0E0C5
:103A800006C0F80181918F010E94701C2196CE150D
:103A9000DF05B9F7DF91CF911F910F91FF90EF9064
:103AA0000895CF93DF9368E071E086E191E00E9492
:103AB000181DEC0188309105B0F3BC0162507040D4
:103AC00086E191E00E94C01CCC5EDE4F28813981E6
:103AD0002817390741F7809116018330E9F18430C6
:103AE00030F4813069F0823009F058C012C085305E
:103AF00009F444C08530D8F0863009F04FC06CC05E
:103B000080E890E090931D0180931C01C2E0D0E01A
:103B100047C0C0911A01D0911B01609118017091AA
:103B20001901AE018CE191E00E948F1C39C0809197
:103B30001A0190911B018038910509F02FC08091E6
:103B400018019091190127E38138920738F56CE14B
:103B500071E00E94DF1C22C0C0911A01D0911B01AC
:103B6000A0911801B0911901ECE1F1E0CE010197AB
:103B700024F00E94611E0192FACF12C0A091180198
:103B8000B0911901ECE1F1E080911A0190911B01D3
:103B9000019724F001900E94691EFACFC0E0D0E0A6
:103BA0008091160190911701916090931701809375
:103BB0001601BE016A5F7F4F86E191E00E94C01C42
:103BC000FE01E45EFE4F918380832896BE0186E16C
:103BD00091E00E94361D67CFDF91CF910895FF924B
:103BE0000F931F93CF93DF93CDB7DEB7A0970FB698
:103BF000F894DEBF0FBECDBFF894A89584B7877F39
:103C000084BF8091600088618093600010926000A2
:103C100000E01DE3F8010591149180E09DE30E940E
:103C2000A21C0817190711F00E94561C0E94511C73
:103C300011E00E945A1C809721F0143191F11F5F0E
:103C4000F8CF6AE070E080E091E00E94361D0E94AB
:103C50005A1C0E945A1CFF246FE170E08E010F5F16
:103C60001F4FC8010E94181D282F882361F0F801FA
:103C7000E80FF11D1082B8018BE091E00E94981CC2
:103C8000892B39F020E0F39484E1F81629F72223F8
:103C900041F064E070E081E191E00E94361D0E94F5
:103CA000511D0E94561C80E090E0A0960FB6F8943B
:103CB000DEBF0FBECDBFDF91CF911F910F91FF905F
:103CC0000895F999FECFB2BDA1BDF89A119600B43E
:103CD0000895F999FECFB2BDA1BD00BC11960FB6F3
:103CE000F894FA9AF99A0FBE08954F534343414C02
:103CF0003D300D0A004D4F4E0D0A004F4B0D0A008E
:103D00000A06FFFFFFFFFFFFFFFFFFFFFFFFFFFFB1
:103D1000FFFFFFFFFFFFFFFFFFFFFFFFFFFFFFFFB3
:103D2000FFFFFFFFFFFFFFFFFFFFFFFFFFFFFFFFA3
:103D3000FFFFFFFFFFFFFFFFFFFFFFFFFFFFFFFF93
:103D4000FFFFFFFFFFFFFFFFFFFFFFFFFFFFFFFF83
:00000001FF
