:1000000053C16CC16BC16AC169C1F1C467C166C12A
:10001000D0CA64C163C160CB95CB60C15FC15EC112
:100020005DC15CC15BC1AB120200A0009D01AB02CF
:10003000640008000000060000000000000000004E
:1000400000000000000054523D7878782043523D73
:100050007878782043463D7878782050573D7878F6
:10006000782048533D787878782052543D787878D5
:10007000782046423D78782042413D78787820418A
:10008000483D7878782E780D0A006261742D616D94
:1000900070732D6C696D006D6F746F722D6F732DA1
:1000A0006674006D6F746F722D6F732D74680070BD
:1000B000776D2D66696C746572007274642D70655D
:1000C00072696F6400632D727200742D70776D2DEC
:1000D0006761696E00742D706F732D6761696E00C2
:1000E000742D6661756C742D726300742D6D61786A
:1000F0002D726300742D6D696E2D7263006B690043
:100100006B70006261747465727920616D70206833
:100110006F7572732072657365740D0A0072657372
:1001200065742D61680041565220787878252069E1
:10013000646C650D0A0069646C6500636F6E6669C6
:100140006775726174696F6E207772697474656E19
:1001500020746F2045450D0A007361766500636F5A
:100160006E66696700626174746572795F616D7053
:10017000735F6C696D69743D7878780D0A006D6FF6
:10018000746F725F6F735F6674696D653D787878C0
:10019000780D0A006D6F746F725F6F735F746872B1
:1001A0006573686F6C643D787878780D0A007077B5
:1001B0006D5F66696C7465723D780D0A00727464D7
:1001C0005F706572696F643D78787878780D0A00A1
:1001D00063757272656E745F72616D705F72617467
:1001E000653D7878780D0A007468726F74746C6578
:1001F0005F706F735F6761696E3D787878207468AF
:10020000726F74746C655F70776D5F6761696E3D66
:100210007878780D0A007468726F74746C655F6624
:1002200061756C745F7261775F636F756E74733D37
:10023000787878780D0A007468726F74746C655FF2
:100240006D696E5F7261775F636F756E74733D7811
:10025000787878207468726F74746C655F6D6178FB
:100260005F7261775F636F756E74733D78787878CD
:100270000D0A004B703D787878204B693D7878788E
:100280000D0A00436F75676172204F5320636F6ED4
:1002900074726F6C6C6572206669726D77617265DD
:1002A0002076312E330D0A0011241FBECFE5D4E095
:1002B000DEBFCDBF10E0A0E6B0E0E8E2FAE102C0A8
:1002C00005900D92A236B107D9F711E0A2E6B0E091
:1002D00001C01D92AF3BB107E1F765C791CEAC01FC
:1002E000892BD9F0E0E0F0E02FEF3FEF8491282751
:1002F000022E2295207F2025032E322F22952F704B
:100300000226269532272327220F220F220F20258F
:1003100031964E175F0751F702C02FEF3FEFC9012B
:100320000895DC01892BE9F020E030E04FEF5FEF2A
:10033000FB0181914827042E4295407F4025052EE0
:10034000542F42954F700426469554274527440F55
:10035000440F440F40252F5F3F4FA217B30749F7C3
:1003600002C04FEF5FEFCA0108959B01542F415027
:100370004F3F91F0FC01E50FF11D3197C9016AE093
:1003800070E0EBDA805D80833197C9016AE070E04C
:10039000E4DA9B01415090F70895242F21502F3F1C
:1003A000C9F0FC01E40FF11D31970CC0895C80831A
:1003B00021502F3F79F03197729562956F706727C2
:1003C0007F706727862F8F708A3080F7805D8083EB
:1003D000215088F70895C298000000000000000036
:1003E000C29A0895F8948091690090916A00789477
:1003F00008959C01F8948091690090916A00789426
:10040000821B930B0895FC01F89460916900709130
:100410006A007894F8948091690090916A007894C9
:10042000861B970B8E179F07A0F420E030E040E07A
:1004300050E02F5F3F4F4F4F5F4FF894809169001E
:1004400090916A007894861B970B8E179F0788F30C
:1004500004C020E030E040E050E0CA01B901089556
:100460006F927F928F929F92AF92BF92CF92DF92C4
:10047000EF92FF920F931F93CF93DF934091DF0092
:100480005091E0006090F1007090F200789421E0CB
:100490004A39520728F4809160008260809360009E
:1004A00020916B0030916C004217530708F080C018
:1004B000C0E0D0E0D0937600C093750080907300C8
:1004C00090907400C4018C1B9D0B5C01CC24B7FC84
:1004D000C094DC2CA092FB00B092FC00C092FD0006
:1004E000D092FE008114910409F079C010920301AA
:1004F000109204011092050110920601A092FF00D3
:10050000B0920001C0920101D092020140E050E09F
:10051000F8945BBD4ABD789480911B01813009F449
:10052000DEC0813008F0BDC020916D0030916E00BA
:10053000C9019695982F882797958795821B930BCD
:10054000840F951F880F892F881F990B9195909381
:100550006E0080936D00809186008F5F809386008F
:10056000992783709070009709F0B1C080911101B4
:10057000909112018615970508F0CFC080918400F4
:1005800090918500009709F044C160910F0170912E
:1005900010016615770508F421C180910D01909135
:1005A0000E0193016816790608F01DC19C011BC15C
:1005B000421B530BCA01880F991FEC01CC0FDD1FA2
:1005C000CC0FDD1FCC0FDD1FC80FD91FC40FD51FE7
:1005D000D695C795D695C795D695C7956BCF2091DB
:1005E000F3003091F4004091F5005091F600C601FF
:1005F000B50194D97B018C016091F7007091F800EE
:100600008091F9009091FA002091FF003091000153
:10061000409101015091020181D920910301309153
:1006200004014091050150910601260F371F481F14
:10063000591FE20EF31E041F151FE0920301F092F2
:1006400004010093050110930601A092FF00B092EF
:100650000001C0920101D092020141E0E41640E0A5
:10066000F4064EEF040741E0140734F180E090E017
:10067000AEEFB1E08093030190930401A0930501D4
:10068000B09306018091030190910401A0910501AE
:10069000B0910601CD01BB2797FDB095AB2FAC0102
:1006A00037CF823009F457C1833009F4CFC010929C
:1006B0006E0010926D004FCF17FFB9C0109203016A
:1006C000109204011092050110920601DBCF8130D7
:1006D000910509F4D8C0029709F078C135C020917E
:1006E0006D0030916E008FE390E0BC01269FC00149
:1006F000279F900D369F900D1124840F951F002485
:10070000880F991F001C880F991F001C892F902D9E
:1007100090936E0080936D001ECF80918400909125
:100720008500883C910508F051C1019690938500A1
:1007300080938400883C910508F448C18091600052
:1007400081608093600042C1BE01882777FD80955B
:10075000982FFA019F0144275527E0D8672F782F5B
:10076000892F99279B01709378006093770060FF31
:100770000FC1369527952F5F3F4F30937800209318
:1007800077008091770090917800AA27BB2720916D
:10079000790030917A0040917B0050917C00820F6B
:1007A000931FA41FB51F8093790090937A00A093A4
:1007B0007B00B0937C0081509842AB46BE4E08F45B
:1007C00005C180E098E2ABE6BEEE8093790090939D
:1007D0007A00A0937B00B0937C00F8C09B018091CD
:1007E0000D0190910E017B01E81AF90A621B730B4F
:1007F000882799272FEF31E040E050E08FD800277D
:100800001127A8019701D0D830937200209371006E
:10081000DDC00197909385008093840060910F0163
:10082000709110016615770508F0B7CED7CFC801D3
:10083000BB2797FDB095AB2FAC01C70180709078B6
:10084000892B09F465CE4F5F5F4F62CE80916D00BA
:1008500090916E009C01220F331F280F391FC90190
:10086000880F991F880F991F280F391F240F351FD4
:10087000329522952F7023273F70232730936E00E7
:1008800020936D0068CE8091130190911401209106
:10089000710030917200A901849F9001859F300DF5
:1008A000949F300D112436952795369527953695CA
:1008B000279560916D0070916E0080911501909167
:1008C0001601FC016E9FC0016F9F900D7E9F900DE1
:1008D0001124969587959695879596958795821775
:1008E000930708F05CC0281B390BC90120916F00E9
:1008F000309170002817390708F464C088199909E5
:100900002091170130911801281739074CF044271E
:100910005527421B530B9C01841795070CF450C0BC
:10092000C901880D991D90937400809373002091E4
:100930002101309122012115310519F026173707C1
:1009400088F180916000882309F440C010927400FF
:10095000109273003BC020916D0030916E008FE1CA
:1009600090E0FC012E9FC0012F9F900D3E9F900DA7
:100970001124840F951F96958795929582958F7077
:1009800089279F70892790936E0080936D00E3CD37
:10099000369527953093780020937700F2CE80E04B
:1009A00090E0ACCF621B730B2FEF31E0261B370BAF
:1009B0002817390730F63093740020937300C1CFA5
:1009C0009A01AECFC901881999099ACF8091680020
:1009D000DF91CF911F910F91FF90EF90DF90CF901B
:1009E000BF90AF909F908F907F906F9008951F92CF
:1009F0000F920FB60F9211248F939F9380916900ED
:100A000090916A00019690936A00809369009F918B
:100A10008F910F900FBE0F901F90189540E020E02F
:100A200030E062E457EC67B987B187B956B93699B7
:100A3000FECF84B195B1280F391F4F5F403199F730
:100A4000C901929582958F7089279F70892790930D
:100A50006C0080936B0020E08E5C914085369105A0
:100A600008F021E081E02827822F99270895CF936D
:100A7000DF93CDB7DEB728970FB6F894DEBF0FBE71
:100A8000CDBF8091090190910A01AA2797FDA095F9
:100A9000BA2F3AE0880F991FAA1FBB1F3A95D1F7CA
:100AA00089839A83AB83BC8329813A814B815C81A2
:100AB00080910B0190910C01AA2797FDA095BA2F68
:100AC000821B930BA40BB50B8D839E83AF83B887DA
:100AD000F89489819A81AB81BC818093F3009093D3
:100AE000F400A093F500B093F6008D819E81AF8154
:100AF000B8858093F7009093F800A093F900B09325
:100B0000FA00789428960FB6F894DEBF0FBECDBFDA
:100B1000DF91CF910895F8948091710090917200C7
:100B20009093E2008093E1007894000000000000C0
:100B30000000F89480917300909174009093E40009
:100B40008093E30078940000000000000000F89417
:100B500080917500909176009093E6008093E50077
:100B600078940000000000000000F8948091DD00FF
:100B70009091DE009093E8008093E7007894000065
:100B8000000000000000F8948091F1009091F200C4
:100B90009093EA008093E900789400000000000040
:100BA0000000F89480917700909178009093EC0089
:100BB0008093EB0078940000000000000000F8949F
:100BC0008091790090917A00A0917B00B0917C0097
:100BD0008093ED009093EE00A093EF00B093F000AF
:100BE0007894000000000000000008958091E70064
:100BF0009091E80022E08F39920720F19C012E5954
:100C00003240369527953695279536952795273086
:100C10003105A8F487E090E0821B930B2FEF31E0C1
:100C2000AC01429FC001439F900D529F900D112433
:100C300096958795969587959695879505C080E0BA
:100C400090E002C08FEF91E0F89490937000809351
:100C50006F0078940895EF92FF920F931F9309E825
:100C600010E063E772E0C8014AD660910901709113
:100C70000A0143E0C801039678DB60910B01709193
:100C80000C0143E0C8010A9670DBDFD567E372E030
:100C9000C80135D660910D0170910E0144E0C80184
:100CA000489663DB60910F017091100144E0C80128
:100CB000C5965BDBCAD566E172E0C80120D66091BB
:100CC00011017091120144E0C8014A964EDBBDD576
:100CD00068EE71E0C80113D66091130170911401A0
:100CE000A2E1EA2EF12CE00EF11E43E0C7013DDB4C
:100CF000609115017091160143E0C801889635DBBB
:100D0000A4D560ED71E0C801FAD56091170170912A
:100D1000180143E0C70129DB98D56DEB71E0C801EC
:100D2000EED56091190170911A01FBE0EF2EF12CC4
:100D3000E00EF11E45E0C70118DB87D56EEA71E0D1
:100D4000C801DDD560911B0170911C0141E0C70114
:100D50000CDB7BD564E971E0C801D1D560911D0140
:100D600070911E01E3E1EE2EF12CE00EF11E44E045
:100D7000C701FBDA6AD56EE771E0C801C0D56091A2
:100D80001F017091200144E0C8010F96EEDA5DD595
:100D900065E671E0C801B3D560912101709122012F
:100DA00043E0C701E2DA51D51F910F91FF90EF9018
:100DB000089563E872E089E890E0A1D546D50895EA
:100DC000CF93DF93C7E0D1E0BE018EE190E0A9DAD6
:100DD000909326018093250120E030E0A89580E2E1
:100DE000D901FE01182E07D6205E3F4F203831056D
:100DF000A9F7DF91CF9108950F931F93CF93DF93BE
:100E0000EC018B016EE571E070D5892BA1F169E5EC
:100E100071E0CE016AD5892B81F166E371E0CE01E4
:100E200064D5892B91F16DE171E0CE015ED5892BFE
:100E300009F049C0F8941092790010927A0010924B
:100E40007B0010927C00789463E071E089E890E088
:100E500056D5FBD428C16AE870E0CE0146D5892B6F
:100E600009F021C182E00030180708F01CC110937E
:100E7000220100932101EFDE16C1A2DF6BE371E0D6
:100E800089E890E03CD5E1D40EC166E271E089E8E2
:100E900090E035D584E690E0B6DA24E630E040E034
:100EA00050E03CD52091D9003091DA004091DB0030
:100EB0005091DC0079D5CA01B90143E08DE890E09A
:100EC00054DAC3D4F0C060E071E0CE010ED5892BB6
:100ED00061F481E0053F180708F0E5C010930A01AE
:100EE00000930901C4DDB7DEDEC06DEF70E0CE0116
:100EF000FCD4892B61F481E0053F180708F0D3C0CA
:100F000010930C0100930B01B2DDA5DECCC064EFA1
:100F100070E0CE01EAD4892B69F484E00030180730
:100F200008F0C1C0F89410930E0100930D0178945D
:100F300092DEB9C06BEE70E0CE01D7D4892B69F494
:100F400084E00030180708F0AEC0F8941093100148
:100F500000930F0178947FDEA6C060EE70E0CE01B2
:100F6000C4D4892B69F484E00030180708F09BC0D2
:100F7000F894109312010093110178946CDE93C0E1
:100F800065ED70E0CE01B1D4892B61F40138110513
:100F900008F089C0F8941093140100931301789419
:100FA0005ADE81C06AEC70E0CE019FD4892B61F4D7
:100FB0000138110508F077C0F894109316010093DA
:100FC0001501789448DE6FC065EC70E0CE018DD4D9
:100FD000892B61F40536110508F065C0F89410936B
:100FE000180100931701789436DE5DC06AEB70E05B
:100FF000CE017BD4892BA1F48DE70130180708F0CE
:1010000052C010931A0100931901F894809169005D
:1010100090916A007894909388008093870043C0F1
:101020006FEA70E0CE0161D4892B59F404301105C8
:10103000D0F5F89410931C0100931B0178940BDEFB
:1010400032C063EA70E0CE0150D4892BE1F487E22C
:101050000031180740F510931E0100931D01C801CF
:10106000AA27BB271AE0880F991FAA1FBB1F1A9532
:10107000D1F780937D0090937E00A0937F00B09382
:101080008000E9DD10C067E970E0CE012ED4892B25
:1010900009F0E1CE87E20031180728F4109320010F
:1010A00000931F01D8DDDF91CF911F910F9108951B
:1010B000DF92EF92FF920F931F93CF93DF93CDB701
:1010C000DEB7A0970FB6F894DEBF0FBECDBFDD240C
:1010D00000E010E07E010894E11CF11CA895DD0CF5
:1010E00080E2D801F701182E81D4005E1F4F89815C
:1010F0009A818B5A9241C9F00038110579F7DD20A9
:1011000009F43CC020E030E002C0205E3F4FA895CB
:10111000DD0CD4FC06C080E2E7E0F1E0D901182E36
:101120006AD42036310589F730C0B7018EE190E0EE
:10113000F8D82F8D38A182179307F1F621E0D22A33
:10114000A7E0B1E0F70180E201900D928150E1F754
:1011500080911D0190911E01AA27BB272AE0880FCC
:10116000991FAA1FBB1F2A95D1F780937D009093EA
:101170007E00A0937F00B0938000BECF40E250E09D
:1011800066E270E087E091E0A7D3A0960FB6F894EE
:10119000DEBF0FBECDBFDF91CF911F910F91FF90AA
:1011A000EF90DF9008959F92AF92BF92CF92DF921F
:1011B000EF92FF920F931F93CF93DF93CDB7DEB7DC
:1011C000A0970FB6F894DEBF0FBECDBF0AE21AE1BA
:1011D000F801059114918AE29AE181D8081719075C
:1011E00009F0FFCF88E190E02EE00FB6F894A895C3
:1011F00081BD0FBE21BD8FE382BB80EC81BB88EF38
:1012000085BB8DEF88BB86E087BB80E487B987E824
:1012100086B982E487B987B187B987EC86B93699F0
:10122000FECF1DBC1CBC89E090E497BD86BD1FBCF1
:1012300089E18EBD80E289BF3BDF19DC84E690E066
:10124000E2D86093D9007093DA008093DB0090932A
:10125000DC00A895E3DB882329F48091600082609C
:1012600080936000C2980000000000000000C29A55
:1012700019BE1EBC1DBC1CBC1BBC1ABC82E88FBDA9
:1012800081E08EBD1BBC1ABC84E089BFF1D291DD28
:10129000F894E0906900F0906A007894F0928800E9
:1012A000E09287006E010894C11CD11C80E2F60117
:1012B00011928A95E9F757019924A89578D28C0163
:1012C00097FD11C08D30910509F47FC094D2FEE1E5
:1012D000F91548F0F601E90DF11D00839394F6012C
:1012E000E90DF11D108217DCF8940091690010914E
:1012F0006A007894E016F10611F180911D01909139
:101300001E01892B09F45FC08091600086FF89C0AF
:101310008091810090918200009709F454C0019758
:101320009093820080938100892B09F04CC0F8943F
:10133000809160008F7B809360007894780156DC08
:101340002091190130911A012115310581F0409148
:10135000870050918800F8948091690090916A000C
:101360007894841B950B8217930708F08AC0F89431
:101370008091690090916A0078948A199B0984365B
:10138000910508F49ACFE4E6F0E0AE0EBF1E80911E
:101390006000882309F441C082B390E4892782BBAE
:1013A0008091600087FF89CF8091E1009091E200F9
:1013B00003970CF082CFF894809160008F77809330
:1013C000600078947ACF7801BACF8AE014D28DE0A9
:1013D00012D2992021F1292D3327C901019718161E
:1013E0001906A4F48981803209F4DFC0A0E0B0E0DE
:1013F00007C0F601EA0FFB1F8081803209F4B1C0FB
:101400001196C90101978A179B0799F76FEF7FEF34
:10141000C601F2DC1982992466CF969A4ECFC9DCB8
:10142000F9CFF8946AB57BB578942091E5003091B6
:10143000E600121613060CF0B3C0442737FD4095A2
:10144000542F882777FD8095982FCB017727662723
:10145000ABD280917D0090917E00A0917F00B091F1
:10146000800082179307A407B50708F082C0809117
:101470008300853008F081C08F5F809383007801FE
:101480005ECF240F351F309388002093870066E4D9
:1014900070E089E890E033D26091E1007091E20061
:1014A00043E08CE890E061D76091E3007091E40044
:1014B00043E083E990E059D76091E5007091E60040
:1014C00043E08AE990E051D7F8946AB57BB5789407
:1014D00043E081EA90E049D76091E7007091E8002D
:1014E00044E088EA90E041D76091E9007091EA0019
:1014F00044E080EB90E039D760916000772742E0CC
:1015000088EB90E04AD76091EB007091EC0043E0EB
:101510008EEB90E02AD76091ED007091EE00809103
:10152000EF009091F0002AE43DE545E050E03CD228
:1015300089012051374214F00FE017E2C8016AE038
:1015400070E01FD243E085EC90E00FD7C8016AE05D
:1015500070E017D241E0BC0189EC90E006D775D16C
:1015600006CFCF01AC0DBD1D1C92019689D1BC01E7
:101570004FCF109283007801E2CEF8948091600002
:1015800080648093600078941092830080911F01A2
:101590009091200190938200809381007801CFCEBA
:1015A00021E030E040E050E04CCFA0E0B0E0C601E8
:1015B000D9CF1F920F920FB60F9211242F933F9302
:1015C0004F935F936F937F938F939F93AF93BF934B
:1015D000EF93FF93809162008F5F8093620080FFA2
:1015E0006AC0809163008F5F8093630080FD1CC0A0
:1015F00084B195B19093E0008093DF008091650005
:101600008F5F80936500823018F080E01092650053
:10161000806487B987B187B987EC86B98091670004
:10162000882309F048C03CC024B135B182E487B9B1
:1016300087B187B987EC86B980916500882349F521
:101640003093F2002093F100809164008F5F8093CB
:101650006400992783709070892B49F48091690008
:1016600090916A00019690936A0080936900B09B04
:101670001FC0809166008F5F809366008430D8F031
:1016800010926600C2980000000000000000C29A9C
:1016900012C08130C9F63093DE002093DD00D4CF34
:1016A00081E080936700DCD6F8941092670003C055
:1016B00080916600E3CFFF91EF91BF91AF919F9131
:1016C0008F917F916F915F914F913F912F910F90EB
:1016D0000FBE0F901F9018951F920F920FB60F928A
:1016E00011242F933F934F938F939F93EF93FF93E7
:1016F0004CB12091B7013091B8012F5F3F4F20319D
:10170000310510F020E030E08091B9019091BA01EC
:101710002817390759F0E091B701F091B801E95D58
:10172000FE4F40833093B8012093B701FF91EF91B2
:101730009F918F914F913F912F910F900FBE0F90DE
:101740001F9018951F920F920FB60F9211242F938E
:101750003F938F939F93EF93FF932091BD0130911F
:10176000BE018091BB019091BC012817390791F00F
:10177000F901E95DFE4F80898CB9F9013196E038B5
:10178000F10528F4F093BE01E093BD0105C0E0E04F
:10179000F0E0F8CF88E98AB9FF91EF919F918F919E
:1017A0003F912F910F900FBE0F901F901895209191
:1017B000B9013091BA01F8948091B7019091B801C4
:1017C000789428173907A1F0F901E95DFE4F80816F
:1017D000F9013196E031F10540F4F894F093BA0143
:1017E000E093B901789499270895E0E0F0E0F5CF0F
:1017F0008FEF9FEF0895482F2091BB013091BC01DE
:101800002F5F3F4F2038310510F020E030E0F89492
:101810008091BD019091BE0178942817390791F00D
:10182000E091BB01F091BC01E95DFE4F408BF89463
:101830003093BC012093BB01789488EB8AB980E097
:1018400090E0089581E090E008951F93CF93DF9397
:10185000C9E8D0E01991112339F0812FCCDF88231A
:10186000E1F719911123C9F7DF91CF911F910895E5
:1018700083E389B910BC86E880BD88E98AB90895F8
:10188000FC0188279927E89421912223E9F020324E
:10189000D9F32930C9F32A30B9F32C30A9F32D300C
:1018A00099F3263789F32B3219F02D3221F46894FD
:1018B0002191222349F020333CF02A332CF4205389
:1018C00025D0820F911DF4CF8115910521F01EF4D2
:1018D0008095909501960895FB01DC0102C005906A
:1018E0000D9241505040D8F70895FB01DC018D91D5
:1018F0000590801911F40020D1F7990B0895FB0190
:10190000DC0105900D920020E1F708957AE0979FA1
:10191000902D879F802D910D11240895629FD001F5
:10192000739FF001829FE00DF11D649FE00DF11D9A
:10193000929FF00D839FF00D749FF00D659FF00D49
:101940009927729FB00DE11DF91F639FB00DE11D36
:10195000F91FBD01CF0111240895AA1BBB1B51E142
:1019600007C0AA1FBB1FA617B70710F0A61BB70B0F
:10197000881F991F5A95A9F780959095BC01CD01B4
:10198000089597FB092E07260AD077FD04D0E5DFDE
:1019900006D000201AF4709561957F4F0895F6F7F0
:1019A000909581959F4F0895A1E21A2EAA1BBB1B0B
:1019B000FD010DC0AA1FBB1FEE1FFF1FA217B3071B
:1019C000E407F50720F0A21BB30BE40BF50B661F31
:1019D000771F881F991F1A9469F7609570958095F5
:1019E00090959B01AC01BD01CF01089509D00192F2
:1019F0001A94E1F7089501900BD01A94E1F7089535
:101A0000E199FECFBFBBAEBBE09A11960DB208952F
:101A1000E199FECFBFBBAEBB0DBA11960FB6F894DD
:081A2000E29AE19A0FBE08955D
:021A280080003C
:00000001FF
