:100000008CC1A5C1A4C1A3C1A2C15CC6A0C19FC12E
:10001000CFC59DC19CC183CCB8CC99C198C197C1B3
:1000200096C195C194C1AB120200A0009D01AB0224
:100030006400080000000600000000000000E80363
:100040000A000500000000000000000000000000A1
:1000500000000000000054523D7878782043523D63
:100060007878782043463D7878782050573D7878E6
:10007000782048533D787878782052543D787878C5
:10008000782046423D78782042413D78787820417A
:10009000483D7878782E780D0A0070632D74696D6C
:1000A00065006261742D616D70732D6C696D0070F7
:1000B000776D2D646561647A6F6E65006D6F746F26
:1000C000722D6F732D6474006D6F746F722D6F736A
:1000D0002D6674006D6F746F722D6F732D746800D0
:1000E00070776D2D66696C746572007274642D7022
:1000F0006572696F6400632D727200742D70776D84
:100100002D6761696E00742D706F732D6761696E64
:1001100000742D6661756C742D726300742D6D61B1
:10012000782D726300742D6D696E2D7263006B699A
:10013000006B70006261747465727920616D70206B
:10014000686F7572732072657365740D0A0072654D
:100150007365742D61680072657374617274004117
:10016000565220787878252069646C650D0A0069FC
:10017000646C6500636F6E66696775726174696F40
:100180006E207772697474656E20746F2045450D1A
:100190000A007361766500636F6E6669670070724E
:1001A000656368617267655F74696D653D787878CD
:1001B0000D0A00626174746572795F616D70735FBE
:1001C0006C696D69743D7878780D0A006D6F746F95
:1001D000725F6F735F6474696D653D7878207077C6
:1001E0006D5F646561647A6F6E653D78780D0A00B5
:1001F0006D6F746F725F6F735F7468726573686F31
:100200006C643D78787878206D6F746F725F6F736F
:100210005F6674696D653D787878780D0A0070774F
:100220006D5F66696C7465723D780D0A0072746466
:100230005F706572696F643D78787878780D0A0030
:1002400063757272656E745F72616D705F726174F6
:10025000653D7878780D0A007468726F74746C6507
:100260005F706F735F6761696E3D7878782074683E
:10027000726F74746C655F70776D5F6761696E3DF6
:100280007878780D0A007468726F74746C655F66B4
:1002900061756C745F7261775F636F756E74733DC7
:1002A000787878780D0A007468726F74746C655F82
:1002B0006D696E5F7261775F636F756E74733D78A1
:1002C000787878207468726F74746C655F6D61788B
:1002D0005F7261775F636F756E74733D787878785D
:1002E0000D0A004B703D787878204B693D7878781E
:1002F0000D0A00436F75676172204F5320636F6E64
:1003000074726F6C6C6572206669726D776172656C
:100310002076312E31300D0A000011241FBECFE5AA
:10032000D4E0DEBFCDBF10E0A0E6B0E0EAECFBE138
:1003300002C005900D92A236B107D9F711E0A2E6EE
:10034000B0E001C01D92AA3DB107E1F747C958CE00
:10035000FC0188279927E89421912223E9F0203293
:10036000D9F32930C9F32A30B9F32C30A9F32D3051
:1003700099F3263789F32B3219F02D3221F4689442
:100380002191222349F020333CF02A332CF42053CE
:1003900025D0820F911DF4CF8115910521F01EF417
:1003A0008095909501960895FB01DC0102C00590AF
:1003B0000D9241505040D8F70895FB01DC018D911A
:1003C0000590801911F40020D1F7990B0895FB01D5
:1003D000DC0105900D920020E1F708957AE0979FE7
:1003E000902D879F802D910D11240895AC01E0E0A0
:1003F000F0E02FEF3FEF13C084912827022E2295C3
:10040000207F2025032E322F22952F70022626953D
:1004100032272327220F220F220F20253196E4179F
:10042000F50751F7C9010895DC0140E050E02FEFD6
:100430003FEFFB0114C081912827022E2295207FD7
:100440002025032E322F22952F7002262695322743
:100450002327220F220F220F20254F5F5F4F4A17BD
:100460005B0749F7C90108959B01FC01E40FF11DE9
:100470000BC0C9016AE070E041DB805D8083C90187
:100480006AE070E03BDB9B01415031974F3F89F7B9
:100490000895FC01E40FF11D31970EC0862F8F7077
:1004A0008A3010F0895C01C0805D8083319784E0E0
:1004B000769567958A95E1F7415080F70895C2983F
:1004C0000000000000000000C29A0895FC01F894AA
:1004D0006091680070916900789420E030E040E01D
:1004E00050E004C02F5F3F4F4F4F5F4FF894809113
:1004F0006800909169007894861B970B8E179F0770
:1005000088F3CA01B90108956F927F928F929F92EA
:10051000AF92BF92CF92DF92EF92FF920F931F9311
:10052000CF93DF932091EA003091EB006090FC00C4
:100530007090FD00789461E02A39360728F48091A4
:10054000600082608093600080916C0090916D00EB
:100550002817390718F420E030E002C0281B390BB7
:1005600083E190E0289FE001299FD00D389FD00DB6
:100570001124B3E0D695C795BA95E1F7D0937B00E7
:10058000C0937A008090780090907900C4018C1B11
:100590009D0B5C01CC24B7FCC094DC2CA09206011E
:1005A000B0920701C0920801D09209018114910410
:1005B00099F410920E0110920F01109210011092F6
:1005C0001101A0920A01B0920B01C0920C01D092CD
:1005D0000D0120E030E06CC02091FE003091FF0062
:1005E0004091000150910101C601B50168DA7B011B
:1005F0008C0160910201709103018091040190913E
:10060000050120910A0130910B0140910C0150919C
:100610000D0155DA20910E0130910F01409110012A
:1006200050911101260F371F481F591FE20EF31E6C
:10063000041F151FE0920E01F0920F0100931001AC
:1006400010931101A0920A01B0920B01C0920C010B
:10065000D0920D0171E0E71670E0F7067EEF070714
:1006600071E017076CF080E090E0AEEFB1E08093AE
:100670000E0190930F01A0931001B09311017AC263
:1006800017FF09C010920E0110920F011092100175
:10069000109211016FC2C801BB2797FDB095AB2F17
:1006A0009C01C70180709078892B11F02F5F3F4F1C
:1006B000F8943BBD2ABD789430936B0020936A0078
:1006C00080916A0090916B00AA27BB278C01FF24C0
:1006D000EE2480912601813051F1813038F0823052
:1006E00009F44EC0833009F08DC06BC020917000BA
:1006F000309171004091720050917300DA01C9018C
:10070000E7E0880F991FAA1FBB1FEA95D1F7821B4C
:10071000930BA40BB50B8E0D9F1DA01FB11F77E08F
:10072000B695A795979587957A95D1F720C0209192
:100730007000309171004091720050917300DA01A5
:10074000C90166E0880F991FAA1FBB1F6A95D1F7E0
:10075000821B930BA40BB50B8E0D9F1DA01FB11F09
:10076000F6E0B695A79597958795FA95D1F780937A
:10077000700090937100A0937200B09373004AC010
:10078000209170003091710040917200509173007F
:10079000DA01C901E5E0880F991FAA1FBB1FEA957E
:1007A000D1F7821B930BA40BB50B8E0D9F1DA01FC1
:1007B000B11F75E0B695A795979587957A95D1F76E
:1007C000D6CF20917000309171004091720050910D
:1007D0007300DA01C90164E0880F991FAA1FBB1FCB
:1007E0006A95D1F7821B930BA40BB50B8E0D9F1D41
:1007F000A01FB11FF4E0B695A79597958795FA9538
:10080000D1F7B5CF10927000109271001092720063
:10081000109273008091700090917100A09172000D
:10082000B0917300CD01AA27BB27AC0190936F0054
:1008300080936E00809191008F5F80939100992743
:1008400083709070009709F051C080911C019091C5
:100850001D0120918F003091900086159705A0F51D
:100860002115310531F02150304030939000209314
:100870008F0060911A0170911B016615770510F4C5
:100880009B0108C0209118013091190126153705E8
:1008900008F4930180911801909119017B01E81AE5
:1008A000F90A621B730B882799272FEF31E040E08C
:1008B00050E005D900271127A801970146D93093A8
:1008C00077002093760065C1283C310508F061C1AE
:1008D000C90101969093900080938F00883C910508
:1008E00008F457C1809160008160F0C081309105AB
:1008F00009F07DC0809176009091770020911E01D3
:1009000030911F01B901869F9001879F300D969FFE
:10091000300D112473E0369527957A95E1F7809193
:10092000200190912101BC01469FC001479F900D7D
:10093000569F900D112463E0969587956A95E1F78F
:100940008217930758F4281B390BC90120917400B2
:10095000309175002817390718F403C080E090E043
:100960009C01281939098091220190912301821755
:1009700093073CF0909581959F4F821793070CF455
:10098000C9018401080F191F1093790000937800A2
:100990008091300190913101892BF9F04115510579
:1009A000E1F0CA019C0144275527609182007091B3
:1009B00083008091840090918500C7D82F3F91E0FB
:1009C000390790E0490790E0590738F420173107BC
:1009D00020F4309379002093780080916000882380
:1009E00009F4D7C01092790010927800D2C08230FA
:1009F000910509F04BC020916A0030916B00BE0157
:100A0000882777FD8095982F4427552758D8672F3A
:100A1000782F892F99279B0170937D0060937C002C
:100A2000CB019695879520FD019690937D0080934C
:100A30007C0080917C0090917D00AA27BB272091AB
:100A40007E0030917F004091800050918100820FA4
:100A5000931FA41FB51F80937E0090937F00A093E7
:100A60008000B093810081509842AB46BE4E08F49E
:100A700090C080E098E2ABE6BEEE80937E0090935B
:100A80007F00A0938000B093810083C0039709F09A
:100A900080C08091280190912901892B09F479C0A7
:100AA0008091600086FF15C080918A0090918B0034
:100AB000009709F46EC0019790938B0080938A0091
:100AC000892B09F066C0809160008F7B8093600065
:100AD00060C080916A0090916B0020912E0130914E
:100AE0002F012817390720F0EE24FF2487010BC0BF
:100AF00080916A0090916B00821B930BAA27BB2701
:100B00008C01FF24EE241C161D0654F49E0144277C
:100B100037FD4095542FC801B70117D879018A01D4
:100B20008091860090918700A0918800B091890003
:100B30008E159F05A007B107D0F490918C0080918D
:100B40002C01981720F49F5F90938C0022C0809115
:100B5000600080648093600010928C0080912A0174
:100B600090912B0190938B0080938A0012C0109279
:100B70008C000FC080910E0190910F01A091100187
:100B8000B0911101CD01BB2797FDB095AB2F9C0112
:100B90008FCDDF91CF911F910F91FF90EF90DF905C
:100BA000CF90BF90AF909F908F907F906F9008955F
:100BB0001F920F920FB60F9211242F933F934F93D2
:100BC0005F936F937F938F939F93AF93BF93EF93B5
:100BD000FF93809162008F5F8093620080FF61C00D
:100BE000809163008F5F809363002091650080FF98
:100BF00037C044B155B182E487B987B187B987EC72
:100C000086B9222329F45093FD004093FC0006C0CE
:100C1000213021F45093E9004093E8008091640072
:100C20008F5F80936400992783709070892B49F4BB
:100C3000809168009091690001969093690080937B
:100C40006800B09B05C0809166008F5F809366004E
:100C500080916600843028F11092660030DC21C05B
:100C600084B195B19093EB008093EA00822F8F5F5F
:100C700080936500823010F01092650080916500CD
:100C8000806487B987B187B987EC86B9809167009E
:100C9000882339F481E08093670036DCF894109261
:100CA0006700FF91EF91BF91AF919F918F917F91DD
:100CB0006F915F914F913F912F910F900FBE0F90C9
:100CC0001F9018951F920F920FB60F9211248F93B9
:100CD0009F938091680090916900019690936900BC
:100CE000809368009F918F910F900FBE0F901F907F
:100CF000189540E020E030E062E457EC67B987B136
:100D000087B956B93699FECF84B195B1280F391FEE
:100D10004F5F403199F7C90124E0969587952A9550
:100D2000E1F790936D0080936C0020E08E5C914021
:100D30008536910508F021E081E02827822F992748
:100D40000895CF93DF93CDB7DEB728970FB6F89409
:100D5000DEBF0FBECDBF8091140190911501AA276F
:100D600097FDA095BA2F3AE0880F991FAA1FBB1FC5
:100D70003A95D1F789839A83AB83BC8329813A81E1
:100D80004B815C818091160190911701AA2797FDF4
:100D9000A095BA2F821B930BA40BB50B8D839E835A
:100DA000AF83B887F89489819A81AB81BC818093A5
:100DB000FE009093FF00A0930001B09301018D818C
:100DC0009E81AF81B8858093020190930301A09327
:100DD0000401B0930501789428960FB6F894DEBF0D
:100DE0000FBECDBFDF91CF910895F894809176002A
:100DF000909177009093ED008093EC007894000040
:100E0000000000000000F894809178009091790033
:100E10009093EF008093EE007894000000000000B3
:100E20000000F89480917A0090917B009093F100FB
:100E30008093F00078940000000000000000F89417
:100E40008091E8009091E9009093F3008093F20084
:100E500078940000000000000000F8948091FC00ED
:100E60009091FD009093F5008093F4007894000039
:100E7000000000000000F89480917C0090917D00BB
:100E80009093F7008093F600789400000000000033
:100E90000000F89480917E0090917F00A0918000E6
:100EA000B09181008093F8009093F900A093FA002C
:100EB000B093FB007894000000000000000008954B
:100EC0008091F2009091F30022E08F39920718F49C
:100ED0008FEF91E021C09C012E59324053E03695AE
:100EE00027955A95E1F72730310518F080E090E01A
:100EF00013C087E090E0821B930B2FEF31E0AC0131
:100F0000429FC001439F900D529F900D112443E0DA
:100F1000969587954A95E1F7F8949093750080939C
:100F2000740078940895CF93DF93EC0180FF16C08E
:100F300063EE72E084E990E04ADA60911401709106
:100F4000150143E087E990E08FDA60911601709116
:100F5000170143E08EE990E087DA98D5C1FF16C00B
:100F600067EA72E084E990E032DA609118017091EA
:100F7000190144E08CEA90E077DA60911A017091EF
:100F80001B0144E089EC90E06FDA80D5C2FF0EC00F
:100F900066E872E084E990E01ADA60911C017091D1
:100FA0001D0144E08EEA90E05FDA70D5C3FF16C001
:100FB00068E572E084E990E00ADA60911E017091C0
:100FC0001F0143E086EA90E04FDA609120017091C2
:100FD000210143E08CEB90E047DA58D5C4FF0EC006
:100FE00060E472E084E990E0F2D9609122017091AE
:100FF000230143E086EA90E037DA48D5C5FF0EC00A
:101000006DE272E084E990E0E2D960912401709190
:10101000250145E08FE990E027DA38D5C6FF0EC0FC
:101020006EE172E084E990E0D2D96091260170917E
:10103000270141E08FE990E017DA28D5C7FF16C0F5
:1010400060EF71E084E990E0C2D96091280170916D
:10105000290144E087EA90E007DA60912A01709163
:101060002B0144E08BEB90E0FFD910D5D0FF16C0E8
:101070006CEC71E084E990E0AAD960912C01709148
:101080002D0142E083EA90E0EFD960912E0170914A
:101090002F0142E083EB90E0E7D9F8D4D1FF0EC0F6
:1010A00063EB71E084E990E092D960913001709136
:1010B000310143E087EA90E0D7D9E8D4D2FF0EC0EF
:1010C0006EE971E084E990E082D96091320170911B
:1010D000330143E083EA90E0C7D9D8D4DF91CF91C0
:1010E000089563EF72E084E990E071D9CFD4089558
:1010F00062E171E08EE290E097D990934101809394
:10110000400140E050E0A89588E10FB6F89481BD19
:1011100011BC0FBE80E3E2E1F1E0DA01182E3CD50C
:10112000A89588E190E02CE00FB6F894A89581BDD1
:101130000FBE21BD405D5F4F403C510521F7089532
:101140000F931F93CF93DF938C01EB0167E971E05D
:1011500034D9892B19F48FEF9FEF9CC162E971E0BC
:10116000C8012BD9892B21F4C3DF64E771E047C0A4
:101170006FE671E0C80121D9892BF1F46FE571E0C8
:1011800084E990E024D984E690E0A0D924E630E018
:1011900040E050E094D42091E4003091E50040918B
:1011A000E6005091E700D1D4CA01B90143E088E9D3
:1011B00090E05AD96BD46FC167E571E0C801FDD8E2
:1011C000892B59F4A89588E190E02CE00FB6F894AB
:1011D000A89581BD0FBE21BDFFCF6EE471E0C801AF
:1011E000ECD8892B81F4F89410927E0010927F0045
:1011F0001092800010928100789464E371E084E999
:1012000090E0E5D8D7CF61E371E0C801D6D8892B4B
:1012100051F481E0C53FD80708F03DC1D0931501D6
:10122000C09314010FC06EE271E0C801C6D8892BCB
:1012300069F481E0C53FD80708F02DC1D0931701AC
:10124000C09316017EDD81E090E024C165E271E08B
:10125000C801B3D8892B61F484E0C030D80708F006
:101260001AC1F894D0931901C0931801789411C051
:101270006CE171E0C801A1D8892B71F484E0C03021
:10128000D80708F008C1F894D0931B01C0931A0145
:10129000789482E090E0FEC061E171E0C8018DD8F1
:1012A000892B71F484E0C030D80708F0F4C0F894BA
:1012B000D0931D01C0931C01789484E090E0EAC0B3
:1012C00066E071E0C80179D8892B59F4C138D1059D
:1012D00008F0E1C0F894D0931F01C0931E017894E8
:1012E00010C06BEF70E0C80168D8892B69F4C13871
:1012F000D10508F0D0C0F894D0932101C09320010B
:10130000789488E090E0C6C066EF70E0C80155D8D8
:10131000892B69F4C536D10508F0BDC0F894D09387
:101320002301C0932201789480E190E0B3C06BEE7A
:1013300070E0C80142D8892BB1F48DE7C130D807DD
:1013400008F0A9C0D0932501C0932401F89480919E
:101350006800909169007894909393008093920034
:1013600080E290E097C060EE70E0C80126D8892B3B
:1013700069F4C430D10508F08EC0F894D0932701E9
:10138000C0932601789480E490E084C064ED70E01E
:10139000C80113D8892BE1F487E2C031D80708F0DF
:1013A0007AC0D0932901C0932801CE01AA27BB2778
:1013B0006AE0880F991FAA1FBB1F6A95D1F7809317
:1013C000860090938700A0938800B09389000FC097
:1013D00068EC70E0C801F1D7892B61F487E2C03175
:1013E000D80708F058C0D0932B01C0932A0180E899
:1013F00090E050C06CEB70E0C801DFD7892B49F456
:10140000C436D10508F047C0D0932D01C0932C01FC
:101410000DC06FEA70E0C801D0D7892B51F4C436F3
:10142000D105C8F5D0932F01C0932E0180E091E043
:1014300031C062EA70E0C801C0D7892BD9F482E0DC
:10144000C030D80740F5D0933101C0933001BE01C0
:10145000882799272EEF31E040E050E030D36093A9
:10146000820070938300809384009093850080E0D5
:1014700092E010C06AE970E0C8019FD7892B59F447
:1014800083E0C83ED80738F4D0933301C0933201CB
:1014900080E094E048DDDF91CF911F910F91089596
:1014A000DF92EF92FF920F931F93CF93DF93CDB70D
:1014B000DEB7E0970FB6F894DEBF0FBECDBFDD24D8
:1014C000EE24FF24DD0C80E38E010F5F1F4FD70158
:1014D000F801182E5CD380E390E0E80EF91E8981B4
:1014E0009A818B5A9241D9F5B8018EE290E09CD74F
:1014F0002FA538A98217930791F5F1E0DF2AA2E121
:10150000B1E0F80180E301900D928150E1F7809104
:10151000280190912901AA27BB277AE0880F991FFB
:10152000AA1FBB1F7A95D1F78093860090938700FE
:10153000A0938800B09389006091300170913101CF
:10154000882799272EEF31E040E050E0B8D2609331
:10155000820070938300809384009093850020EC38
:10156000E216F10409F0AECFDD2041F440E350E093
:1015700066E270E082E191E017D722C040E050E0DF
:10158000DD0CD4FC17C0A89588E10FB6F89481BD96
:1015900011BC0FBE80E3E2E1F1E0DA01182EFCD2CB
:1015A000A89588E190E02CE00FB6F894A89581BD4D
:1015B0000FBE21BD4039510519F0405D5F4FE0CFAE
:1015C000E0960FB6F894DEBF0FBECDBFDF91CF918E
:1015D0001F910F91FF90EF90DF900895DF92EF92AF
:1015E000FF920F931F93CF93DF93CDB7DEB7A097F2
:1015F0000FB6F894DEBF0FBECDBF0CEC1BE1F801B7
:10160000059114918CEC9BE1F1D60817190709F0AC
:10161000FFCF8FEB82BB80EC81BB88EF85BB8DEF6A
:1016200088BB86E087BB80E487B987E886B982E417
:1016300087B987B187B987EC86B93699FECF1DBCCB
:101640001CBC89E090E497BD86BD1FBC89E18EBDBE
:1016500080E289BF25DF20913201309133012115CD
:10166000310559F0809160008062809360002B5FAB
:101670003F4F30938E0020938D0063DB84E690E033
:1016800025D76093E4007093E5008093E600909383
:10169000E700A89588E190E02CE00FB6F894A895B3
:1016A00081BD0FBE21BD25DB882329F48091600018
:1016B00082608093600003D719BE1EBC1DBC1CBC99
:1016C0001BBC1ABC82E88FBD81E08EBD1BBC1ABC5E
:1016D00084E089BFECD105DDF894E0906800F090DB
:1016E00069007894F0929300E092920080E2FE010B
:1016F000319611928A95E9F7DD24A8957AD18C016B
:1017000097FD39C08D309105A1F096D18EE18D15F0
:1017100090F1FE013196DF01AD0DB11D0C93D39414
:10172000ED0DF11D108227C01192CF0111D6BC0121
:101730001DC08AE081D18DE07FD1DD2009F4EDC0AC
:1017400040E050E02D2D332721503040DE0111962E
:10175000FD0107C08C91803239F34F5F5F4F3196A6
:10176000119642175307B1F76FEF7FEFCE01019645
:10177000E7DC1982DD2439DBA3DB409124015091A1
:1017800025014115510509F481C020919200309145
:101790009300F89480916800909169007894821B7E
:1017A000930B8417950708F471C0240F351F3093ED
:1017B00093002093920066E570E084E990E007D6FC
:1017C0006091EC007091ED0043E087E990E04CD629
:1017D0006091EE007091EF0043E08EE990E044D616
:1017E0006091F0007091F10043E085EA90E03CD612
:1017F000F89460916A0070916B00789443E08CEAF1
:1018000090E032D66091F2007091F30044E083EBF7
:1018100090E02AD66091F4007091F50044E08BEBE3
:1018200090E022D660916000772742E083EC90E060
:1018300030D66091F6007091F70043E089EC90E0BB
:1018400013D66091F8007091F9008091FA009091A0
:10185000FB002AE43DE545E050E077D189012051C5
:10186000374214F00FE017E2C8016AE070E05AD185
:1018700043E080ED90E0F8D5C8016AE070E052D115
:1018800041E0BC0184ED90E0EFD500D1F894809167
:1018900068009091690078948E199F0984369105AB
:1018A00008F42BCF84E690E0E80EF91E80916000EA
:1018B000882389F182B390E4892782BB80916000FC
:1018C00087FF0DC08091EC009091ED0003973CF4F0
:1018D000F894809160008F77809360007894809175
:1018E000600085FF0ACF80918D0090918E00009757
:1018F00041F4F894809160008F7D8093600078942B
:10190000FCCE8630910508F49798019790938E004D
:1019100080938D00F2CE969AF0CEE3DB2ACF1F9211
:101920000F920FB60F9211242F933F934F938F93E3
:101930009F93EF93FF934CB12091D2013091D3014B
:101940002F5F3F4F2031310510F020E030E08091D3
:10195000D4019091D5012817390759F0E091D201AF
:10196000F091D301EE5BFE4F40833093D30120937F
:10197000D201FF91EF919F918F914F913F912F91C4
:101980000F900FBE0F901F9018951F920F920FB6D9
:101990000F9211242F933F938F939F93EF93FF9375
:1019A0002091D8013091D9018091D6019091D70131
:1019B0002817390789F0F901EE5BFE4F80898CB951
:1019C000F9013196E038F10510F0E0E0F0E0F09335
:1019D000D901E093D80102C088E98AB9FF91EF915B
:1019E0009F918F913F912F910F900FBE0F901F905D
:1019F00018952091D4013091D501F8948091D201AD
:101A00009091D30178942817390719F48FEF9FEF3D
:101A10000895F901EE5BFE4F8081F9013196E031C6
:101A2000F10510F0E0E0F0E0F894F093D501E093D8
:101A3000D401789499270895482F2091D6013091A8
:101A4000D7012F5F3F4F2038310510F020E030E004
:101A5000F8948091D8019091D9017894281739078A
:101A600019F481E090E00895E091D601F091D7015A
:101A7000EE5BFE4F408BF8943093D7012093D60154
:101A8000789488EB8AB980E090E008951F93CF9313
:101A9000DF93C4E9D0E01991112329F0812FCCDF25
:101AA0008823E1F7F8CFDF91CF911F91089583E369
:101AB00089B910BC86E880BD88E98AB90895629F1B
:101AC000D001739FF001829FE00DF11D649FE00D36
:101AD000F11D929FF00D839FF00D749FF00D659F97
:101AE000F00D9927729FB00DE11DF91F639FB00D96
:101AF000E11DF91FBD01CF0111240895AA1BBB1BD5
:101B000051E107C0AA1FBB1FA617B70710F0A61BFD
:101B1000B70B881F991F5A95A9F780959095BC011E
:101B2000CD01089597FB092E07260AD077FD04D032
:101B3000E5DF06D000201AF4709561957F4F089577
:101B4000F6F7909581959F4F0895A1E21A2EAA1B52
:101B5000BB1BFD010DC0AA1FBB1FEE1FFF1FA2175D
:101B6000B307E407F50720F0A21BB30BE40BF50B5A
:101B7000661F771F881F991F1A9469F760957095E3
:101B8000809590959B01AC01BD01CF01089509D0CE
:101B900001921A94E1F7089501900BD01A94E1F79D
:101BA0000895E199FECFBFBBAEBBE09A11960DB28E
:101BB0000895E199FECFBFBBAEBB0DBA11960FB62B
:0A1BC000F894E29AE19A0FBE08952E
:021BCA00800099
:00000001FF
