:1000000058C171C170C16FC16EC162C56CC16BC195
:1000100048CB69C168C1D8CB0DCC65C164C163C18F
:1000200062C161C160C1AB120200A0009D01AB02C0
:10003000640008000000060000000000000000004E
:1000400000000000000054523D7878782043523D73
:100050007878782043463D7878782050573D7878F6
:10006000782048533D787878782052543D787878D5
:10007000782046423D78782042413D78787820418A
:10008000483D7878782E780D0A006261742D616D94
:1000900070732D6C696D006D6F746F722D6F732DA1
:1000A0006674006D6F746F722D6F732D74680070BD
:1000B000776D2D66696C746572007274642D70655D
:1000C00072696F6400632D727200742D70776D2DEC
:1000D0006761696E00742D706F732D6761696E00C2
:1000E000742D6661756C742D726300742D6D61786A
:1000F0002D726300742D6D696E2D7263006B690043
:100100006B70006261747465727920616D70206833
:100110006F7572732072657365740D0A0072657372
:1001200065742D6168007265737461727400415664
:100130005220787878252069646C650D0A0069641E
:100140006C6500636F6E66696775726174696F6E66
:10015000207772697474656E20746F2045450D0AAE
:10016000007361766500636F6E6669670062617433
:10017000746572795F616D70735F6C696D69743DF0
:100180007878780D0A006D6F746F725F6F735F66B9
:1001900074696D653D787878780D0A006D6F746FBD
:1001A000725F6F735F7468726573686F6C643D78BB
:1001B0007878780D0A0070776D5F66696C74657287
:1001C0003D780D0A007274645F706572696F643DFA
:1001D00078787878780D0A0063757272656E745F4E
:1001E00072616D705F726174653D7878780D0A0098
:1001F0007468726F74746C655F706F735F67616948
:100200006E3D787878207468726F74746C655F7076
:10021000776D5F6761696E3D7878780D0A00746864
:10022000726F74746C655F6661756C745F72617710
:100230005F636F756E74733D787878780D0A00741B
:1002400068726F74746C655F6D696E5F7261775F01
:10025000636F756E74733D78787878207468726F08
:1002600074746C655F6D61785F7261775F636F75E1
:100270006E74733D787878780D0A004B703D78780D
:1002800078204B693D7878780D0A00436F75676177
:1002900072204F5320636F6E74726F6C6C657220A6
:1002A0006669726D776172652076312E31350D0A7F
:1002B000000011241FBECFE5D4E0DEBFCDBF10E0AB
:1002C000A0E6B0E0E8E1FBE102C005900D92A236A5
:1002D000B107D9F711E0A2E6B0E001C01D92A53C3C
:1002E000B107E1F7E0C78CCEDC01892BE9F020E013
:1002F00030E04FEF5FEFFB0181914827042E4295DC
:10030000407F4025052E542F42954F700426469578
:1003100054274527440F440F440F40252F5F3F4F7C
:10032000A217B30749F702C04FEF5FEFCA01089564
:100330009B01542F41504F3F91F0FC01E50FF11DFF
:100340003197C9016AE070E080DB805D808331977E
:10035000C9016AE070E079DB9B01415090F7089594
:10036000242F21502F3FC9F0FC01E40FF11D3197DC
:100370000CC0895C808321502F3F79F031977295B2
:1003800062956F7067277F706727862F8F708A301E
:1003900080F7805D8083215088F70895C29800001F
:1003A000000000000000C29A0895F894809169004E
:1003B00090916A00789408959C01F8948091690066
:1003C00090916A007894821B930B0895FC01F89435
:1003D0006091690070916A007894F8948091690046
:1003E00090916A007894861B970B8E179F07A0F454
:1003F00020E030E040E050E02F5F3F4F4F4F5F4F35
:10040000F8948091690090916A007894861B970B0C
:100410008E179F0788F304C020E030E040E050E0F2
:10042000CA01B90108956F927F928F929F92AF9205
:10043000BF92CF92DF92EF92FF920F931F93CF93D1
:10044000DF934091E5005091E6006090F7007090D6
:10045000F800789421E04A39520728F4809160002E
:1004600082608093600020916D0030916E00421791
:10047000530708F0BAC0C0E0D0E0D0937C00C0932E
:100480007B008090790090907A00C4018C1B9D0BBA
:100490005C01CC24B7FCC094DC2CA0920101B0928A
:1004A0000201C0920301D09204018114910409F069
:1004B000B3C01092090110920A0110920B01109220
:1004C0000C01A0920501B0920601C0920701D092E2
:1004D000080160E070E0F8947BBD6ABD7894709389
:1004E0006C0060936B005B01CC24DD248501FF244C
:1004F000EE2480912101813009F416C1813008F089
:10050000EDC02091710030917200409173005091C4
:100510007400DA01C901880F991FAA1FBB1F880F39
:10052000991FAA1FBB1F880F991FAA1FBB1F880FE7
:10053000991FAA1FBB1F880F991FAA1FBB1F880FD7
:10054000991FAA1FBB1F880F991FAA1FBB1F821BC1
:10055000930BA40BB50B9C01AD012E0D3F1D401F4D
:10056000511FE7E05695479537952795EA95D1F7BE
:100570002093710030937200409373005093740085
:10058000CA01AA27BB27AC019093700080936F002B
:1005900080918C008F5F80938C009927837090707E
:1005A000009709F0B9C08091170190911801861544
:1005B000970508F0F5C080918A0090918B00009714
:1005C00009F068C1609115017091160166157705F3
:1005D00008F445C1809113019091140193016816AC
:1005E000790608F041C19C013FC1421B530BCA016F
:1005F000880F991FEC01CC0FDD1FCC0FDD1FCC0F36
:10060000DD1FC80FD91FC40FD51FD695C795D69526
:10061000C795D695C79531CF2091F9003091FA0052
:100620004091FB005091FC00C601B501EFD97B0160
:100630008C016091FD007091FE008091FF0090910F
:100640000001209105013091060140910701509170
:100650000801DCD92091090130910A0140910B0178
:1006600050910C01260F371F481F591FE20EF31E31
:10067000041F151FE0920901F0920A0100930B017B
:1006800010930C01A0920501B0920601C0920701DF
:10069000D092080161E0E61660E0F6066EEF06070C
:1006A00061E0160774F180E090E0AEEFB1E0809376
:1006B000090190930A01A0930B01B0930C01809162
:1006C000090190910A01A0910B01B0910C01CD019B
:1006D000BB2797FDB095AB2FBC01FDCE823009F44E
:1006E0008FC1833009F4F3C01092700010926F0034
:1006F000209171003091720040917300509174000C
:100700003FCF17FFD5C01092090110920A01109235
:100710000B0110920C01D3CF8130910509F40BC16C
:10072000029709F0C4C153C020917100309172004A
:100730004091730050917400DA01C901880F991F2C
:10074000AA1FBB1F880F991FAA1FBB1F880F991FC5
:10075000AA1FBB1F880F991FAA1FBB1F880F991FB5
:10076000AA1FBB1F880F991FAA1FBB1F821B930BB9
:10077000A40BB50B9C01AD012E0D3F1D401F511F59
:10078000E6E05695479537952795EA95D1F720935A
:100790007100309372004093730050937400F0CE58
:1007A00080918A0090918B00883C910508F07FC170
:1007B000019690938B0080938A00883C910508F401
:1007C00076C18091600081608093600070C19E015D
:1007D000442737FD4095542FC601B50117D9672F1F
:1007E000782F892F99279B0170937E0060937D005D
:1007F00060FF3EC1369527952F5F3F4F30937E00B7
:1008000020937D0080917D0090917E00AA27BB27D8
:1008100020917F00309180004091810050918200B2
:10082000820F931FA41FB51F80937F0090938000B9
:10083000A0938100B093820081509842AB46BE4E97
:1008400008F435C180E098E2ABE6BEEE80937F000D
:1008500090938000A0938100B093820028C19B01F7
:1008600080911301909114017B01E81AF90A621B2F
:10087000730B882799272FEF31E040E050E0C6D86E
:1008800000271127A801970107D9309378002093FA
:1008900077000DC1019790938B0080938A0060913F
:1008A0001501709116016615770508F093CED7CF24
:1008B000C801BB2797FDB095AB2FBC01C701807065
:1008C0009078892B09F407CE6F5F7F4F04CE20917B
:1008D0007100309172004091730050917400DA0100
:1008E000C901880F991FAA1FBB1F880F991FAA1F34
:1008F000BB1F880F991FAA1FBB1F880F991FAA1F14
:10090000BB1F821B930BA40BB50B9C01AD012E0DDD
:100910003F1D401F511F14E0569547953795279569
:100920001A95D1F7209371003093720040937300B1
:100930005093740025CE8091190190911A01209155
:10094000770030917800B901869F9001879F300D24
:10095000969F300D11243695279536952795369517
:10096000279580911B0190911C01BC01469FC001FD
:10097000479F900D569F900D1124969587959695BB
:100980008795969587958217930708F078C0281B5E
:10099000390BC9012091750030917600281739076D
:1009A00008F481C08819990920911D0130911E0118
:1009B000281739074CF066277727621B730B9C01B9
:1009C000861797070CF46DC0C901880D991D909387
:1009D0007A00809379002091270130912801211518
:1009E000310521F02417350708F44CC080916000D0
:1009F000882309F45CC010927A001092790057C0E5
:100A000020917100309172004091730050917400F8
:100A1000DA01C901880F991FAA1FBB1F880F991FF0
:100A2000AA1FBB1F880F991FAA1FBB1F880F991FE2
:100A3000AA1FBB1F880F991FAA1FBB1F821B930BE6
:100A4000A40BB50B9C01AD012E0D3F1D401F511F86
:100A5000E5E05695479537952795EA95D1F7209388
:100A6000710030937200409373005093740088CDEE
:100A70003695279530937E0020937D00C3CE80E08D
:100A800090E090CF421B530B2FEF31E0241B350B2E
:100A90002817390708F0AACF30937A0020937900FD
:100AA000A5CF9B0191CFC901881999097DCF80916C
:100AB0006800DF91CF911F910F91FF90EF90DF9031
:100AC000CF90BF90AF909F908F907F906F90089540
:100AD0001F920F920FB60F9211248F939F938091C4
:100AE000690090916A00019690936A008093690072
:100AF0009F918F910F900FBE0F901F90189540E01F
:100B000020E030E062E457EC67B987B187B956B9A5
:100B10003699FECF84B195B1280F391F4F5F403110
:100B200099F7C901929582958F7089279F708927BF
:100B300090936E0080936D0020E08E5C914085362E
:100B4000910508F021E081E02827822F9927089558
:100B5000CF93DF93CDB7DEB728970FB6F894DEBFFB
:100B60000FBECDBF80910F0190911001AA2797FD74
:100B7000A095BA2F3AE0880F991FAA1FBB1F3A957C
:100B8000D1F789839A83AB83BC8329813A814B81D6
:100B90005C818091110190911201AA2797FDA09587
:100BA000BA2F821B930BA40BB50B8D839E83AF834F
:100BB000B887F89489819A81AB81BC818093F900D0
:100BC0009093FA00A093FB00B093FC008D819E816E
:100BD000AF81B8858093FD009093FE00A093FF0045
:100BE000B0930001789428960FB6F894DEBF0FBE3C
:100BF000CDBFDF91CF910895F894809177009091C7
:100C000078009093E8008093E7007894000000005B
:100C100000000000F8948091790090917A00909300
:100C2000EA008093E90078940000000000000000D2
:100C3000F89480917B0090917C009093EC008093DD
:100C4000EB0078940000000000000000F894809110
:100C5000E3009091E4009093EE008093ED0078948F
:100C60000000000000000000F8948091F7009091CF
:100C7000F8009093F0008093EF007894000000005B
:100C800000000000F89480917D0090917E00909388
:100C9000F2008093F1007894000000000000000052
:100CA000F89480917F0090918000A0918100B09194
:100CB00082008093F3009093F400A093F500B0932A
:100CC000F600789400000000000000000895809174
:100CD000ED009091EE0022E08F39920720F19C0107
:100CE0002E59324036952795369527953695279576
:100CF00027303105A8F487E090E0821B930B2FEF9B
:100D000031E0AC01429FC001439F900D529F900D76
:100D1000112496958795969587959695879505C004
:100D200080E090E002C08FEF91E0F894909376001D
:100D30008093750078940895EF92FF920F931F931C
:100D40000FE810E06BE772E0C80151D660910F0127
:100D50007091100143E0C8010396EADA6091110135
:100D60007091120143E0C8010A96E2DAE6D56FE31A
:100D700072E0C8013CD6609113017091140144E007
:100D8000C8014896D5DA609115017091160144E0CA
:100D9000C801C596CDDAD1D56EE172E0C80127D67B
:100DA000609117017091180144E0C8014A96C0DAB9
:100DB000C4D560EF71E0C8011AD660911901709135
:100DC0001A01A2E1EA2EF12CE00EF11E43E0C70168
:100DD000AFDA60911B0170911C0143E0C801889655
:100DE000A7DAABD568ED71E0C80101D660911D01AD
:100DF00070911E0143E0C7019BDA9FD565EC71E05D
:100E0000C801F5D560911F0170912001FBE0EF2E24
:100E1000F12CE00EF11E45E0C7018ADA8ED566EBB3
:100E200071E0C801E4D5609121017091220141E097
:100E3000C7017EDA82D56CE971E0C801D8D560912E
:100E4000230170912401E3E1EE2EF12CE00EF11E5E
:100E500044E0C7016DDA71D566E871E0C801C7D515
:100E6000609125017091260144E0C8010F9660DA77
:100E700064D56DE671E0C801BAD560912701709123
:100E8000280143E0C70154DA58D51F910F91FF9014
:100E9000EF9008956BE872E08FE890E0A8D54DD50B
:100EA0000895CF93DF93CDE0D1E0BE018EE190E0D5
:100EB0001BDA90932C0180932B0120E030E0A89561
:100EC00080E2D901FE01182E0ED6205E3F4F203859
:100ED0003105A9F7DF91CF9108950F931F93CF9319
:100EE000DF93EC018B0166E671E077D5892BD1F1B8
:100EF00061E671E0CE0171D5892BB1F16EE371E04D
:100F0000CE016BD5892BC1F56EE271E08FE890E0E0
:100F10006ED584E690E05ADA24E630E040E050E016
:100F200075D52091DF003091E0004091E1005091B3
:100F3000E200B2D5CA01B90143E083E990E0F8D9F3
:100F4000FCD431C16AE870E0CE0147D5892B09F0A5
:100F50002AC182E00030180708F025C1109328014B
:100F600000932701E9DE1FC19CDF63E471E08FE895
:100F700090E03DD5E2D417C166E271E0CE012DD5F7
:100F8000892B51F488E190E028E00FB6F894A895F9
:100F900081BD0FBE21BDFFCF6DE171E0CE011DD53A
:100FA000892B89F4F89410927F001092800010929F
:100FB000810010928200789463E071E08FE890E005
:100FC00016D5BBD4F0C060E071E0CE0106D5892B08
:100FD00061F481E0053F180708F0E5C010931001A7
:100FE00000930F01B5DDA8DEDEC06DEF70E0CE012D
:100FF000F4D4892B61F481E0053F180708F0D3C0D1
:101000001093120100931101A3DD96DECCC064EFB2
:1010100070E0CE01E2D4892B69F484E00030180737
:1010200008F0C1C0F8941093140100931301789450
:1010300083DEB9C06BEE70E0CE01CFD4892B69F4AA
:1010400084E00030180708F0AEC0F8941093160141
:1010500000931501789470DEA6C060EE70E0CE01BA
:10106000BCD4892B69F484E00030180708F09BC0D9
:10107000F894109318010093170178945DDE93C0E3
:1010800065ED70E0CE01A9D4892B61F4013811051A
:1010900008F089C0F89410931A010093190178940C
:1010A0004BDE81C06AEC70E0CE0197D4892B61F4ED
:1010B0000138110508F077C0F89410931C010093D3
:1010C0001B01789439DE6FC065EC70E0CE0185D4E9
:1010D000892B61F40536110508F065C0F89410936A
:1010E0001E0100931D01789427DE5DC06AEB70E05D
:1010F000CE0173D4892BA1F48DE70130180708F0D5
:1011000052C01093200100931F01F8948091690050
:1011100090916A00789490938E0080938D0043C0E4
:101120006FEA70E0CE0159D4892B59F404301105CF
:10113000D0F5F89410932201009321017894FCDDFE
:1011400032C063EA70E0CE0148D4892BE1F487E233
:101150000031180740F51093240100932301C801C2
:10116000AA27BB271AE0880F991FAA1FBB1F1A9531
:10117000D1F78093830090938400A0938500B0936F
:101180008600DADD10C067E970E0CE0126D4892B35
:1011900009F0D8CE87E20031180728F41093260111
:1011A00000932501C9DDDF91CF911F910F91089523
:1011B000DF92EF92FF920F931F93CF93DF93CDB700
:1011C000DEB7A0970FB6F894DEBF0FBECDBFDD240B
:1011D00000E010E07E010894E11CF11CA895DD0CF4
:1011E00080E2D801F701182E79D4005E1F4F898163
:1011F0009A818B5A9241C9F00038110579F7DD20A8
:1012000009F43CC020E030E002C0205E3F4FA895CA
:10121000DD0CD4FC06C080E2EDE0F1E0D901182E2F
:1012200062D42036310589F730C0B7018EE190E0F5
:101230005BD82F8D38A182179307F1F621E0D22ACF
:10124000ADE0B1E0F70180E201900D928150E1F74D
:101250008091230190912401AA27BB272AE0880FBF
:10126000991FAA1FBB1F2A95D1F7809383009093E3
:101270008400A0938500B0938600BECF40E250E08A
:1012800066E270E08DE091E09FD3A0960FB6F894EF
:10129000DEBF0FBECDBFDF91CF911F910F91FF90A9
:1012A000EF90DF9008959F92AF92BF92CF92DF921E
:1012B000EF92FF920F931F93CF93DF93CDB7DEB7DB
:1012C000A0970FB6F894DEBF0FBECDBF88E190E0C7
:1012D0002EE00FB6F894A89581BD0FBE21BD8FE317
:1012E00082BB80EC81BB88EF85BB8DEF88BB86E03D
:1012F00087BB80E487B987E886B982E487B987B17C
:1013000087B987EC86B93699FECF1DBC1CBC89E035
:1013100090E497BD86BD1FBC89E18EBD80E289BF88
:1013200047DF16DC84E690E051D86093DF007093CD
:10133000E0008093E1009093E200A895E0DB882331
:1013400029F480916000826080936000C298000060
:10135000000000000000C29A19BE1EBC1DBC1CBCCF
:101360001BBC1ABC82E88FBD81E08EBD1BBC1ABCC1
:1013700084E089BFF5D28EDDF894E0906900F090AA
:101380006A007894F0928E00E0928D006E010894CD
:10139000C11CD11C80E2F60111928A95E9F7570130
:1013A0009924A8957CD28C0197FD11C08D309105B0
:1013B00009F47FC098D2FEE1F91548F0F601E90D75
:1013C000F11D00839394F601E90DF11D108214DCE8
:1013D000F8940091690010916A007894E016F10683
:1013E00011F18091230190912401892B09F45FC0B0
:1013F0008091600086FF89C080918700909188006D
:10140000009709F454C00197909388008093870057
:10141000892B09F04CC0F894809160008F7B8093F9
:1014200060007894780153DC20911F0130912001F5
:101430002115310581F040918D0050918E00F89476
:101440008091690090916A007894841B950B8217B3
:10145000930708F08CC0F8948091690090916A001D
:1014600078948A199B098436910508F49ACFE4E6AA
:10147000F0E0AE0EBF1E80916000882309F441C0E9
:1014800082B390E4892782BB8091600087FF89CF77
:101490008091E7009091E80003970CF082CFF894D8
:1014A000809160008F778093600078947ACF780184
:1014B000BACF8AE018D28DE016D2992021F1292DD9
:1014C0003327C901019718161906A4F489818032BF
:1014D00009F4E3C0A0E0B0E007C0F601EA0FFB1F8B
:1014E0008081803209F4B5C01196C90101978A172D
:1014F0009B0799F76FEF7FEFC601EFDC1982992404
:1015000066CF969A4ECFC6DCF9CFF89460916B0007
:1015100070916C0078942091EB003091EC001216E1
:1015200013060CF0B5C0442737FD4095542F88278B
:1015300077FD8095982FCB0177276627ADD28091D4
:10154000830090918400A0918500B091860082175D
:101550009307A407B50708F084C0809189008530FF
:1015600008F083C08F5F8093890078015CCF240FDF
:10157000351F30938E0020938D0066E470E08FE875
:1015800090E035D26091E7007091E80043E082E995
:1015900090E0CED66091E9007091EA0043E089E9DD
:1015A00090E0C6D66091EB007091EC0043E080EAD9
:1015B00090E0BED6F89460916B0070916C007894C6
:1015C00043E087EA90E0B4D66091ED007091EE00C0
:1015D00044E08EEA90E0ACD66091EF007091F000AC
:1015E00044E086EB90E0A4D660916000772742E06B
:1015F0008EEB90E0B5D66091F1007091F20043E07F
:1016000084EC90E095D66091F3007091F4008091A5
:10161000F5009091F6002AE43DE545E050E03CD22B
:1016200089012051374214F00FE017E2C8016AE047
:1016300070E01FD243E08BEC90E07AD6C8016AE0FC
:1016400070E017D241E0BC018FEC90E071D675D10B
:1016500002CFCF01AC0DBD1D1C92019689D1BC01FA
:101660004BCF109289007801DECEF8948091600013
:1016700080648093600078941092890080912501A5
:101680009091260190938800809387007801CBCEBB
:1016900021E030E040E050E04ACFA0E0B0E0C601F9
:1016A000D9CF1F920F920FB60F9211242F933F9311
:1016B0004F935F936F937F938F939F93AF93BF935A
:1016C000EF93FF93809162008F5F8093620080FFB1
:1016D0006AC0809163008F5F8093630080FD1CC0AF
:1016E00084B195B19093E6008093E5008091650008
:1016F0008F5F80936500823018F080E01092650063
:10170000806487B987B187B987EC86B98091670013
:10171000882309F048C03CC024B135B182E487B9C0
:1017200087B187B987EC86B980916500882349F530
:101730003093F8002093F700809164008F5F8093CE
:101740006400992783709070892B49F48091690017
:1017500090916A00019690936A0080936900B09B13
:101760001FC0809166008F5F809366008430D8F040
:1017700010926600C2980000000000000000C29AAB
:1017800012C08130C9F63093E4002093E300D4CF37
:1017900081E08093670047D6F8941092670003C0F9
:1017A00080916600E3CFFF91EF91BF91AF919F9140
:1017B0008F917F916F915F914F913F912F910F90FA
:1017C0000FBE0F901F9018951F920F920FB60F9299
:1017D00011242F933F934F938F939F93EF93FF93F6
:1017E0004CB12091BD013091BE012F5F3F4F2031A0
:1017F000310510F020E030E08091BF019091C001F0
:101800002817390759F0E091BD01F091BE01E35D61
:10181000FE4F40833093BE012093BD01FF91EF91B5
:101820009F918F914F913F912F910F900FBE0F90ED
:101830001F9018951F920F920FB60F9211242F939D
:101840003F938F939F93EF93FF932091C301309128
:10185000C4018091C1019091C2012817390791F00C
:10186000F901E35DFE4F80898CB9F9013196E038CA
:10187000F10528F4F093C401E093C30105C0E0E052
:10188000F0E0F8CF88E98AB9FF91EF919F918F91AD
:101890003F912F910F900FBE0F901F9018952091A0
:1018A000BF013091C001F8948091BD019091BE01BB
:1018B000789428173907A1F0F901E35DFE4F808184
:1018C000F9013196E031F10540F4F894F093C0014C
:1018D000E093BF01789499270895E0E0F0E0F5CF18
:1018E0008FEF9FEF0895482F2091C1013091C201E1
:1018F0002F5F3F4F2038310510F020E030E0F894A2
:101900008091C3019091C40178942817390791F010
:10191000E091C101F091C201E35DFE4F408BF8946C
:101920003093C2012093C101789488EB8AB980E09A
:1019300090E0089581E090E008951F93CF93DF93A6
:10194000CFE8D0E01991112339F0812FCCDF882323
:10195000E1F719911123C9F7DF91CF911F910895F4
:1019600083E389B910BC86E880BD88E98AB9089507
:10197000FC0188279927E89421912223E9F020325D
:10198000D9F32930C9F32A30B9F32C30A9F32D301B
:1019900099F3263789F32B3219F02D3221F468940C
:1019A0002191222349F020333CF02A332CF4205398
:1019B00025D0820F911DF4CF8115910521F01EF4E1
:1019C0008095909501960895FB01DC0102C0059079
:1019D0000D9241505040D8F70895FB01DC018D91E4
:1019E0000590801911F40020D1F7990B0895FB019F
:1019F000DC0105900D920020E1F708957AE0979FB1
:101A0000902D879F802D910D11240895629FD00104
:101A1000739FF001829FE00DF11D649FE00DF11DA9
:101A2000929FF00D839FF00D749FF00D659FF00D58
:101A30009927729FB00DE11DF91F639FB00DE11D45
:101A4000F91FBD01CF0111240895AA1BBB1B51E151
:101A500007C0AA1FBB1FA617B70710F0A61BB70B1E
:101A6000881F991F5A95A9F780959095BC01CD01C3
:101A7000089597FB092E07260AD077FD04D0E5DFED
:101A800006D000201AF4709561957F4F0895F6F7FF
:101A9000909581959F4F0895A1E21A2EAA1BBB1B1A
:101AA000FD010DC0AA1FBB1FEE1FFF1FA217B3072A
:101AB000E407F50720F0A21BB30BE40BF50B661F40
:101AC000771F881F991F1A9469F760957095809504
:101AD00090959B01AC01BD01CF01089509D0019201
:101AE0001A94E1F7089501900BD01A94E1F7089544
:101AF000E199FECFBFBBAEBBE09A11960DB208953F
:101B0000E199FECFBFBBAEBB0DBA11960FB6F894EC
:081B1000E29AE19A0FBE08956C
:021B180080004B
:00000001FF
