:103800000C94341C0C944F1C0C944F1C0C944F1CA7
:103810000C944F1C0C944F1C0C944F1C0C944F1C7C
:103820000C944F1C0C944F1C0C944F1C0C944F1C6C
:103830000C944F1C0C944F1C0C944F1C0C944F1C5C
:103840000C944F1C0C944F1C0C944F1C0C944F1C4C
:103850000C944F1C0C944F1C0C944F1C0C944F1C3C
:103860000C944F1C0C944F1C11241FBECFEFD4E0BE
:10387000DEBFCDBF11E0A0E0B1E0EAE7FCE302C0AB
:1038800005900D92A631B107D9F712E0A6E1B1E09B
:1038900001C01D92AE31B107E1F70C94D11D0C941B
:1038A000001C8898919A899A919A08958998EE2790
:1038B000FF270994AFE1B8E6E9E0A150B04071F00C
:1038C0008099FBCF1BD01AD019D088948099089486
:1038D000EA9511F08795F7CF992708959FEF0895FE
:1038E000EAE08095089410F4919802C0919A000043
:1038F00005D004D08695EA95B1F70895F7E8FA95D2
:10390000F1F70895FC01809B04C03196E1F7CF01E7
:103910000895809903C00196E1F708950895FB0189
:10392000DC0102C005900D9241505040D8F7089537
:10393000FB01DC018D910190801911F40020D1F779
:10394000990B0895FC0140E050E02FEF3FEF14C0C9
:1039500081912827022E2295207F2025032E322FA9
:1039600022952F700226269532272327220F220F19
:10397000220F20254F5F5F4F4617570749F7C901B0
:1039800008951F93CF93DF93DC01EB0183E0FD01EA
:1039900080935700E89507B600FCFDCFF999FECF5C
:1039A00060E070E011E0AD01288133278981229623
:1039B0009927982F8827282B392B0901FA01109372
:1039C0005700E89511246E5F7F4F4E5F5F4F603860
:1039D000710551F785E0FD0180935700E89507B622
:1039E00000FCFDCF81E180935700E895DF91CF91F6
:1039F0001F910895EF92FF920F931F93CF93DF9340
:103A00008C017B01C0E0D0E008C00E945A1C97FDE9
:103A100007C0F80181938F012196CE15DF05A9F724
:103A2000CE01DF91CF911F910F91FF90EF900895FC
:103A3000EF92FF920F931F93CF93DF938C017B0143
:103A4000C0E0D0E006C0F80181918F010E94701C97
:103A50002196CE15DF05B9F7DF91CF911F910F9118
:103A6000FF90EF900895CF93DF9368E071E086E1D7
:103A700091E00E94FA1CEC0188309105B0F3BC0182
:103A80006250704086E191E00E94A21CCC5EDE4F45
:103A9000288139812817390741F780911601833031
:103AA000E9F1843030F4813069F0823009F058C097
:103AB00012C0853009F444C08530D8F0863009F052
:103AC0004FC06CC080E890E090931D0180931C0172
:103AD000C2E0D0E047C0C0911A01D0911B016091B3
:103AE000180170911901AE018CE191E00E948F1CC8
:103AF00039C080911A0190911B018038910509F01D
:103B00002FC0809118019091190127E38138920705
:103B100038F56CE171E00E94C11C22C0C0911A010D
:103B2000D0911B01A0911801B0911901ECE1F1E0D5
:103B3000CE01019724F00E94291E0192FACF12C0F3
:103B4000A0911801B0911901ECE1F1E080911A0106
:103B500090911B01019724F001900E94311EFACF31
:103B6000C0E0D0E080911601909117019160909390
:103B7000170180931601BE016A5F7F4F86E191E0D5
:103B80000E94A21CFE01E45EFE4F91838083289672
:103B9000BE0186E191E00E94181D67CFDF91CF91B1
:103BA0000895FF920F931F93CF93DF93CDB7DEB7A6
:103BB000A0970FB6F894DEBF0FBECDBF0E94511C78
:103BC00011E00E945A1C809721F0143191F11F5F7F
:103BD000F8CF6AE070E080E091E00E94181D0E943A
:103BE0005A1C0E945A1CFF246FE170E08E010F5F87
:103BF0001F4FC8010E94FA1C282F882361F0F8018A
:103C0000E80FF11D1082B8018BE091E00E94981C32
:103C1000892B39F020E0F39484E1F81629F7222368
:103C200041F064E070E081E191E00E94181D0E9483
:103C3000331D0E94561C80E090E0A0960FB6F894C9
:103C4000DEBF0FBECDBFDF91CF911F910F91FF90CF
:103C50000895F999FECFB2BDA1BDF89A119600B4AE
:103C60000895F999FECFB2BDA1BD00BC11960FB663
:0A3C7000F894FA9AF99A0FBE08952D
:103C7A004F534343414C3D300D0A004D4F4E0D0A00
:063C8A00004F4B0D0A0083
:0400000300003800C1
:00000001FF
