:100000000C9479010C9494010C9494010C94940137
:100010000C9494010C9494010C9494010C9494010C
:100020000C9494010C9494010C94D6050C949401B6
:100030000C9494010C946F0C0C9494010C94940106
:100040000C9494010C9494010C940F0D0C94460D97
:100050000C9494010C9494010C9494010C949401CC
:100060000C9494010C949401AB120200A0009D0129
:10007000AB02640008000000060000000000000061
:10008000000000000000000054523D7878782043C2
:10009000523D7878782043463D7878782050573D17
:1000A0007878782048533D787878782052543D7895
:1000B0007878782046423D78782042413D787878BB
:1000C0002041483D7878782E780D0A006261742DC1
:1000D000616D70732D6C696D006D6F746F722D6F33
:1000E000732D6674006D6F746F722D6F732D74684D
:1000F0000070776D2D66696C746572007274642D82
:10010000706572696F6400632D727200742D707770
:100110006D2D6761696E00742D706F732D67616955
:100120006E00742D6661756C742D726300742D6D94
:1001300061782D726300742D6D696E2D7263006B92
:1001400069006B70006261747465727920616D7012
:1001500020686F7572732072657365740D0A007282
:10016000657365742D6168007265737461727400E3
:1001700041565220787878252069646C650D0A0014
:1001800069646C6500636F6E666967757261746936
:100190006F6E207772697474656E20746F204545A8
:1001A0000D0A007361766500636F6E6669670062B1
:1001B0006174746572795F616D70735F6C696D698C
:1001C000743D7878780D0A006D6F746F725F6F738D
:1001D0005F6674696D653D787878780D0A006D6F9B
:1001E000746F725F6F735F7468726573686F6C644D
:1001F0003D787878780D0A0070776D5F66696C7469
:1002000065723D780D0A007274645F706572696F83
:10021000643D78787878780D0A0063757272656E3F
:10022000745F72616D705F726174653D7878780D8E
:100230000A007468726F74746C655F706F735F67C7
:1002400061696E3D787878207468726F74746C653B
:100250005F70776D5F6761696E3D7878780D0A0031
:100260007468726F74746C655F6661756C745F72CC
:1002700061775F636F756E74733D787878780D0A77
:10028000007468726F74746C655F6D696E5F726123
:10029000775F636F756E74733D78787878207468D3
:1002A000726F74746C655F6D61785F7261775F63A4
:1002B0006F756E74733D787878780D0A004B703DD9
:1002C000787878204B693D7878780D0A00436F750F
:1002D000676172204F5320636F6E74726F6C6C6530
:1002E00072206669726D776172652076312E360DE7
:1002F0000A0011241FBECFEFD4E0DEBFCDBF11E056
:10030000A0E0B1E0E4EEFCE102C005900D92A23065
:10031000B107D9F712E0A2E0B1E001C01D92A93601
:10032000B107E1F70C94340A0C940000FC01882713
:100330009927E89421912223F1F02032D9F3293032
:10034000C9F32A30B9F32C30A9F32D3099F32637AD
:1003500089F32B3219F02D3221F468942191222354
:1003600051F0203344F02A3334F420530E94DD014D
:10037000820F911DF3CF8115910521F01EF4809518
:10038000909501960895FB01DC0102C005900D9245
:1003900041505040D8F70895FB01DC018D91059044
:1003A000801911F40020D1F7990B0895FB01DC01AD
:1003B00005900D920020E1F708957AE0979F902D27
:1003C000879F802D910D11240895DC01892BE9F080
:1003D00020E030E04FEF5FEFFB0181914827042ED2
:1003E0004295407F4025052E542F42954F7004269C
:1003F000469554274527440F440F440F40252F5F4F
:100400003F4FA217B30749F702C04FEF5FEFCA0192
:1004100008959B01542F41504F3FA1F0FC01E50F7F
:10042000F11D3197C9016AE070E00E940B0E805DFA
:1004300080833197C9016AE070E00E940B0E9B0136
:10044000415080F70895242F21502F3FC9F0FC011F
:10045000E40FF11D31970CC0895C808321502F3F40
:1004600079F03197729562956F7067277F70672773
:10047000862F8F708A3080F7805D8083215088F7C7
:100480000895FC01F8946091090170910A01789433
:10049000F8948091090190910A017894861B970B3A
:1004A0008E179F07A0F420E030E040E050E02F5F7F
:1004B0003F4F4F4F5F4FF8948091090190910A018F
:1004C0007894861B970B8E179F0788F304C020E053
:1004D00030E040E050E0CA01B90108956F927F9288
:1004E0008F929F92AF92BF92CF92DF92EF92FF9244
:1004F0000F931F93CF93DF934091890150918A010D
:1005000060909B0170909C01789421E04A395207D9
:1005100028F48091000182608093000120910D01F8
:1005200030910E014217530708F0BCC0C0E0D0E084
:10053000D0931C01C0931B018090190190901A0167
:10054000C4018C1B9D0B5C01CC24B7FCC094DC2C3B
:10055000A092A501B092A601C092A701D092A801D5
:100560008114910409F0B5C01092AD011092AE0152
:100570001092AF011092B001A092A901B092AA010D
:10058000C092AB01D092AC0160E070E0F89470933F
:10059000890060938800789470930C0160930B013C
:1005A0005B01CC24DD248501FF24EE248091C5016C
:1005B000813009F418C1813008F0EFC02091110199
:1005C000309112014091130150911401DA01C901D7
:1005D000880F991FAA1FBB1F880F991FAA1FBB1F37
:1005E000880F991FAA1FBB1F880F991FAA1FBB1F27
:1005F000880F991FAA1FBB1F880F991FAA1FBB1F17
:10060000880F991FAA1FBB1F821B930BA40BB50B4E
:100610009C01AD012E0D3F1D401F511FE7E0569577
:10062000479537952795EA95D1F720931101309397
:1006300012014093130150931401CA01AA27BB274A
:10064000AC019093100180930F01809130018F5F76
:1006500080933001992783709070009709F0BBC098
:100660008091BB019091BC018615970508F0F7C0F9
:1006700080912E0190912F01009709F06DC160913A
:10068000B9017091BA016615770508F448C18091E7
:10069000B7019091B80193016816790608F044C13A
:1006A0009C0142C1421B530BCA01880F991FEC01E8
:1006B000CC0FDD1FCC0FDD1FCC0FDD1FC80FD91FE6
:1006C000C40FD51FD695C795D695C795D695C7950E
:1006D0002FCF20919D0130919E0140919F0150911B
:1006E000A001C601B5010E94EC0D7B018C01609157
:1006F000A1017091A2018091A3019091A401209188
:10070000A9013091AA014091AB015091AC010E9426
:10071000EC0D2091AD013091AE014091AF015091AF
:10072000B001260F371F481F591FE20EF31E041F8A
:10073000151FE092AD01F092AE010093AF0110934E
:10074000B001A092A901B092AA01C092AB01D092CF
:10075000AC0161E0E61660E0F6066EEF060761E0C8
:10076000160774F180E090E0AEEFB1E08093AD0148
:100770009093AE01A093AF01B093B0018091AD0111
:100780009091AE01A091AF01B091B001CD01BB2716
:1007900097FDB095AB2FBC01F9CE823009F4ADC105
:1007A000833009F4F6C020E030E040E050E01092E1
:1007B00011011092120110921301109214013DCFF9
:1007C00017FFD8C01092AD011092AE011092AF0188
:1007D0001092B001D3CF8130910509F40EC1029778
:1007E00009F0D3C153C02091110130911201409101
:1007F000130150911401DA01C901880F991FAA1F32
:10080000BB1F880F991FAA1FBB1F880F991FAA1F04
:10081000BB1F880F991FAA1FBB1F880F991FAA1FF4
:10082000BB1F880F991FAA1FBB1F821B930BA40B12
:10083000B50B9C01AD012E0D3F1D401F511FE6E081
:100840005695479537952795EA95D1F7209311014D
:10085000309312014093130150931401EECE809116
:100860002E0190912F01883C910508F08EC10196D0
:1008700090932F0180932E01883C910508F485C147
:10088000809100018160809300017FC19E01442717
:1008900037FD4095542FC601B5010E94EC0D672F1E
:1008A000782F892F99279B0170931E0160931D015A
:1008B00060FF5BC1369527952F5F3F4F30931E0138
:1008C00020931D0180911D0190911E01AA27BB2735
:1008D00020911F013091200140912101509122016E
:1008E000820F931FA41FB51F80931F0190932001B7
:1008F000A0932101B093220181509842AB46BE4E95
:1009000008F443C180E098E2ABE6BEEE80931F019D
:1009100090932001A0932101B093220136C19B0145
:100920008091B7019091B8017B01E81AF90A621B26
:10093000730B882799272FEF31E040E050E00E94A9
:10094000EC0D00271127A80197010E94320E309369
:1009500018012093170119C1019790932F018093DB
:100960002E016091B9017091BA016615770508F002
:100970008ECED5CFC801BB2797FDB095AB2FBC015C
:10098000C70180709078892B09F400CE6F5F7F4F8C
:10099000FDCD209111013091120140911301509130
:1009A0001401DA01C901880F991FAA1FBB1F880F04
:1009B000991FAA1FBB1F880F991FAA1FBB1F880F53
:1009C000991FAA1FBB1F821B930BA40BB50B9C0185
:1009D000AD012E0D3F1D401F511F14E05695479548
:1009E000379527951A95D1F720931101309312016D
:1009F000409313015093140120CE8091BD0190913A
:100A0000BE012091170130911801B901869F900114
:100A1000879F300D969F300D11243695279536957A
:100A20002795369527958091BF019091C001BC0113
:100A3000469FC001479F900D569F900D112496959B
:100A4000879596958795969587958217930708F0D1
:100A500093C0281B390BC901209115013091160153
:100A60002817390708F48DC0881999092091C10108
:100A70003091C201281739074CF066277727621B8F
:100A8000730B9C01861797070CF479C0E901C80D18
:100A9000D91DD0931A01C09319018091CB01909177
:100AA000CC01892B01F141155105E9F0CA019C01E6
:100AB00044275527609123017091240180912501DD
:100AC000909126010E94320E2F3F91E0390790E06D
:100AD000490790E0590738F42C173D0720F430936C
:100AE0001A012093190180910001882309F44DC057
:100AF00010921A011092190148C0209111013091F1
:100B000012014091130150911401DA01C901880FBB
:100B1000991FAA1FBB1F880F991FAA1FBB1F880FF1
:100B2000991FAA1FBB1F880F991FAA1FBB1F880FE1
:100B3000991FAA1FBB1F821B930BA40BB50B9C0113
:100B4000AD012E0D3F1D401F511FE5E05695479505
:100B500037952795EA95D1F720931101309312012B
:100B6000409313015093140168CD36952795309327
:100B70001E0120931D01A6CE80E090E075CF9B0161
:100B800085CFC9018819990971CF80910801DF913A
:100B9000CF911F910F91FF90EF90DF90CF90BF907A
:100BA000AF909F908F907F906F9008951F920F92BB
:100BB0000FB60F9211248F939F938091090190910A
:100BC0000A01019690930A01809309019F918F91E8
:100BD0000F900FBE0F901F90189540E020E030E07E
:100BE00062E457EC60937C0080917C0080937C00F1
:100BF00050937A0080917A0086FDFCCF8091780036
:100C000090917900280F391F4F5F403159F7C90182
:100C1000929582958F7089279F70892790930E01F6
:100C200080930D0120E08E5C91408536910508F09F
:100C300021E081E02827822F99270895CF93DF9321
:100C4000CDB7DEB728970FB6F894DEBF0FBECDBF85
:100C50008091B3019091B401AA2797FDA095BA2F76
:100C60003AE0880F991FAA1FBB1F3A95D1F78983D5
:100C70009A83AB83BC8329813A814B815C818091CB
:100C8000B5019091B601AA2797FDA095BA2F821BB6
:100C9000930BA40BB50B8D839E83AF83B887F89419
:100CA00089819A81AB81BC8180939D0190939E0143
:100CB000A0939F01B093A0018D819E81AF81B885E3
:100CC0008093A1019093A201A093A301B093A401EA
:100CD000789428960FB6F894DEBF0FBECDBFDF9193
:100CE000CF910895F89480911701909118019093F5
:100CF0008C0180938B0178940000000000000000BC
:100D0000F8948091190190911A0190938E0180932B
:100D10008D0178940000000000000000F89480919C
:100D20001B0190911C019093900180938F01789406
:100D30000000000000000000F8948091870190916D
:100D400088019093920180939101789400000000B3
:100D500000000000F89480919B0190919C01909379
:100D6000940180939301789400000000000000003B
:100D7000F89480911D0190911E01909396018093AB
:100D8000950178940000000000000000F894809124
:100D90001F0190912001A0912101B0912201809327
:100DA000970190939801A0939901B0939A01789438
:100DB00000000000000000000895809191019091D2
:100DC000920122E08F39920720F19C012E59324086
:100DD00036952795369527953695279527303105F1
:100DE000A8F487E090E0821B930B2FEF31E0AC0179
:100DF000429FC001439F900D529F900D11249695E4
:100E00008795969587959695879505C080E090E0A3
:100E100002C08FEF91E0F894909316018093150132
:100E200078940895EF92FF920F931F9303E311E0DC
:100E30006DEB72E0C8010E94D6016091B301709120
:100E4000B40143E0C80103960E9409026091B50114
:100E50007091B60143E0C8010A960E9409020E94FF
:100E6000CC0D61E872E0C8010E94D6016091B70123
:100E70007091B80144E0C80148960E94090260914F
:100E8000B9017091BA0144E0C801C5960E940902F7
:100E90000E94CC0D60E672E0C8010E94D60160910C
:100EA000BB017091BC0144E0C8014A960E9409024E
:100EB0000E94CC0D62E372E0C8010E94D6016091ED
:100EC000BD017091BE01A2E1EA2EF12CE00EF11EEF
:100ED00043E0C7010E9409026091BF017091C00107
:100EE00043E0C80188960E9409020E94CC0D6AE185
:100EF00072E0C8010E94D6016091C1017091C201E7
:100F000043E0C7010E9409020E94CC0D67E072E035
:100F1000C8010E94D6016091C3017091C401FBE039
:100F2000EF2EF12CE00EF11E45E0C7010E940902F0
:100F30000E94CC0D68EF71E0C8010E94D60160915B
:100F4000C5017091C60141E0C7010E9409020E94DB
:100F5000CC0D6EED71E0C8010E94D6016091C70111
:100F60007091C801E3E1EE2EF12CE00EF11E44E099
:100F7000C7010E9409020E94CC0D68EC71E0C80113
:100F80000E94D6016091C9017091CA0144E0C80174
:100F90000F960E9409020E94CC0D6FEA71E0C80111
:100FA0000E94D6016091CB017091CC0143E0C70152
:100FB0000E9409020E94CC0D1F910F91FF90EF90AB
:100FC00008956DEC72E083E391E00E94D6010E94E7
:100FD000CC0D0895CF93DF93C1EBD1E0BE018EE13C
:100FE00090E00E94E5019093D0018093CF0120E032
:100FF00030E0A89580E2D901FE01182E0E94590E1A
:10100000205E3F4F20383105A1F7DF91CF91089541
:101010000F931F93CF93DF93EC018B0168EA71E08C
:101020000E94CC01892B09F456C063EA71E0CE011D
:101030000E94CC01892B09F451C060E871E0CE0117
:101040000E94CC01892B09F054C060E771E083E372
:1010500091E00E94D60184E690E00E94410224E6DD
:1010600030E040E050E00E94EC0D2091830130918F
:10107000840140918501509186010E94320ECA017F
:10108000B90143E087E391E00E9409020E94CC0D80
:1010900067C16CEC70E0CE010E94CC01892B09F095
:1010A0005FC182E00030180708F05AC11093CC01EC
:1010B0000093CB01B801882799272EEF31E040E05B
:1010C00050E00E94EC0D6093230170932401809303
:1010D0002501909326010E94120742C10E94EA074F
:1010E00065E871E083E391E00E94D6010E94CC0D97
:1010F00037C168E671E0CE010E94CC01892B61F412
:1011000088E190E028E00FB6F894A89580936000FD
:101110000FBE20936000FFCF6FE571E0CE010E940B
:10112000CC01892B99F4F89410921F0110922001A0
:101130001092210110922201789465E471E083E31A
:1011400091E00E94D6010E94CC0D0AC162E471E0D8
:10115000CE010E94CC01892B71F481E0053F180774
:1011600008F0FEC01093B4010093B3010E941E0664
:101170000E941207F5C06FE371E0CE010E94CC011E
:10118000892B71F481E0053F180708F0E9C010933E
:10119000B6010093B5010E941E060E941207E0C02E
:1011A00066E371E0CE010E94CC01892B71F484E0EA
:1011B0000030180708F0D4C0F8941093B8010093D9
:1011C000B70178940E941207CBC06DE271E0CE01A6
:1011D0000E94CC01892B71F484E00030180708F0DC
:1011E000BFC0F8941093BA010093B90178940E949B
:1011F0001207B6C062E271E0CE010E94CC01892BD9
:1012000071F484E00030180708F0AAC0F894109335
:10121000BC010093BB0178940E941207A1C067E152
:1012200071E0CE010E94CC01892B69F401381105CF
:1012300008F096C0F8941093BE010093BD01789415
:101240000E9412078DC06CE071E0CE010E94CC01BB
:10125000892B69F40138110508F082C0F8941093C5
:10126000C0010093BF0178940E94120779C067E023
:1012700071E0CE010E94CC01892B69F4053611057D
:1012800008F06EC0F8941093C2010093C1017894E5
:101290000E94120765C06CEF70E0CE010E94CC0185
:1012A000892BA1F48DE70130180708F059C010937D
:1012B000C4010093C301F8948091090190910A013F
:1012C000789490933201809331014AC061EF70E0CD
:1012D000CE010E94CC01892B69F40430110508F07D
:1012E0003FC0F8941093C6010093C50178940E9402
:1012F000120736C065EE70E0CE010E94CC01892B4A
:10130000E9F487E20031180758F51093C8010093FB
:10131000C701C801AA27BB271AE0880F991FAA1F77
:10132000BB1F1A95D1F78093270190932801A093B2
:101330002901B0932A010E94120712C069ED70E0E2
:10134000CE010E94CC01892B09F0A3CE87E20031A7
:10135000180730F41093CA010093C9010E941207C4
:10136000DF91CF911F910F910895DF92EF92FF923D
:101370000F931F93CF93DF93CDB7DEB7A0970FB630
:10138000F894DEBF0FBECDBFDD2400E010E07E018B
:101390000894E11CF11CA895DD0C80E2D801F7014E
:1013A000182E0E94540E005E1F4F89819A818B5A1D
:1013B0009241D1F00038110571F7DD2009F43EC0EB
:1013C00020E030E002C0205E3F4FA895DD0CD4FC49
:1013D00007C080E2E1EBF1E0D901182E0E94590E1E
:1013E0002036310581F732C0B7018EE190E00E94CE
:1013F000E5012F8D38A182179307E1F621E0D22A6B
:10140000A1EBB1E0F70180E201900D928150E1F78C
:101410008091C7019091C801AA27BB272AE0880FB5
:10142000991FAA1FBB1F2A95D1F78093270190937C
:101430002801A0932901B0932A01BCCF40E250E0DB
:1014400068E670E081EB91E00E94C301A0960FB6C0
:10145000F894DEBF0FBECDBFDF91CF911F910F91EA
:10146000FF90EF90DF9008959F92AF92BF92CF923E
:10147000DF92EF92FF920F931F93CF93DF93CDB73D
:10148000DEB7A0970FB6F894DEBF0FBECDBF88E1E0
:1014900090E02EE00FB6F894A895809360000FBE00
:1014A000209360008FE38BB980EC8AB988EF88B90C
:1014B0008DEF85B986E084B987E080937E0080E473
:1014C00080937C0087E880937A0082E480937C009C
:1014D00080917C0080937C0087EC80937A008091DF
:1014E0007A0086FDFCCF109285001092840089E07E
:1014F00090E490938700809386001092800089E1A9
:101500008093810080E280936F000E94B5090E9461
:101510001E0684E690E00E9441026093830170936E
:1015200084018093850190938601A8950E94ED0522
:10153000882329F4809100018260809300012A9819
:1015400000000000000000002A9A10926F00109224
:1015500081001092850010928400109289001092F0
:10156000880082E88093800081E08093810010925F
:1015700089001092880080936F000E94E00D0E9405
:10158000E107F894E0900901F0900A017894F09254
:101590003201E09231016E010894C11CD11C80E23D
:1015A000F60111928A95E9F757019924A8950E94AE
:1015B0007D0D8C0197FD12C08D30910509F482C01C
:1015C0000E94A10DFEE1F91548F0F601E90DF11DAB
:1015D00000839394F601E90DF11D10820E947206BA
:1015E000F8940091090110910A017894E016F1062F
:1015F00011F18091C7019091C801892B09F460C055
:101600008091000186FF8EC080912B0190912C016A
:10161000009709F455C0019790932C0180932B01FA
:10162000892B09F04DC0F894809100018F7B809345
:101630000001789478010E94DD062091C301309169
:10164000C4012115310581F04091310150913201E1
:10165000F8948091090190910A017894841B950B6C
:101660008217930708F091C0F89480910901909136
:101670000A0178948A199B098436910508F496CF5B
:10168000E4E6F0E0AE0EBF1E80910001882309F46D
:1016900044C08BB190E489278BB98091000187FF0A
:1016A00085CF80918B0190918C0103970CF07ECFB8
:1016B000F894809100018F7780930001789476CF21
:1016C0007801B9CF8AE00E94A10D8DE00E94A10DA2
:1016D000992029F1292D3327C901019718161906D8
:1016E000A4F48981803209F4F6C0A0E0B0E007C01C
:1016F000F601EA0FFB1F8081803209F4C7C0119602
:10170000C90101978A179B0799F76FEF7FEFC60111
:101710000E9408081982992461CF5E9A47CF0E94DF
:10172000E107F8CFF89460910B0170910C01789467
:1017300020918F0130919001121613060CF0C6C053
:10174000442737FD4095542F882777FD8095982FA3
:10175000CB01772766270E94320E80912701909156
:101760002801A0912901B0912A0182179307A407AB
:10177000B50708F094C080912D01853008F093C022
:101780008F5F80932D01780156CF240F351F309342
:1017900032012093310168E870E083E391E00E9418
:1017A000D60160918B0170918C0143E086E391E05A
:1017B0000E94090260918D0170918E0143E08DE3DA
:1017C00091E00E94090260918F017091900143E0C5
:1017D00084E491E00E940902F89460910B017091F9
:1017E0000C01789443E08BE491E00E94090260913F
:1017F00091017091920144E082E591E00E9409021A
:10180000609193017091940144E08AE591E00E9417
:10181000090260910001772742E082E691E00E9490
:101820002302609195017091960143E088E691E072
:101830000E9409026091970170919801809199012D
:1018400090919A012AE43DE545E050E00E94320E75
:1018500089012051374214F00FE017E2C8016AE015
:1018600070E00E941F0E43E08FE691E00E940902A3
:10187000C8016AE070E00E941F0E41E0BC0183E7EE
:1018800091E00E9409020E94CC0DEECECF01AC0D7A
:10189000BD1D1C9201960E949601BC0138CF10928A
:1018A0002D017801C8CEF894809100018064809366
:1018B0000001789410922D018091C9019091CA0184
:1018C00090932C0180932B017801B5CE21E030E07C
:1018D00040E050E039CFA0E0B0E0C601D8CF1F9281
:1018E0000F920FB60F9211242F933F934F935F9354
:1018F0006F937F938F939F93AF93BF93EF93FF93D8
:10190000809102018F5F8093020180FF77C08091F8
:1019100003018F5F8093030180FD22C080917800D6
:101920009091790090938A018093890180910501BB
:101930008F5F80930501823018F080E010920501DE
:10194000806480937C0080917C0080937C0087EC95
:1019500080937A0080910701882309F04FC042C02C
:10196000209178003091790082E480937C0080910E
:101970007C0080937C0087EC80937A008091050145
:10198000882349F530939C0120939B0180910401A9
:101990008F5F80930401992783709070892B49F49D
:1019A0008091090190910A01019690930A01809318
:1019B0000901189B20C0809106018F5F809306016A
:1019C0008430E0F0109206012A9800000000000028
:1019D00000002A9A13C08130C9F630938801209301
:1019E0008701D4CF81E0809307010E946E02F894B2
:1019F0001092070103C080910601E2CFFF91EF91A1
:101A0000BF91AF919F918F917F916F915F914F9116
:101A10003F912F910F900FBE0F901F9018951F921E
:101A20000F920FB60F9211242F933F934F938F93E2
:101A30009F93EF93FF934091C600209161023091F4
:101A400062022F5F3F4F2031310510F020E030E07F
:101A500080916302909164022817390759F0E09150
:101A60006102F0916202EF52FE4F408330936202B6
:101A700020936102FF91EF919F918F914F913F9140
:101A80002F910F900FBE0F901F9018951F920F92DD
:101A90000FB60F9211242F933F938F939F93EF9341
:101AA000FF932091670230916802809165029091C6
:101AB00066022817390799F0F901EF52FE4F808925
:101AC0008093C600F9013196E038F10528F4F093CF
:101AD0006802E093670206C0E0E0F0E0F8CF88E932
:101AE0008093C100FF91EF919F918F913F912F9132
:101AF0000F900FBE0F901F901895209163023091A8
:101B00006402F8948091610290916202789428179F
:101B10003907A1F0F901EF52FE4F8081F9013196AA
:101B2000E031F10540F4F894F0936402E09363022D
:101B3000789499270895E0E0F0E0F5CF8FEF9FEFDC
:101B40000895482F20916502309166022F5F3F4F24
:101B50002038310510F020E030E0F89480916702E1
:101B60009091680278942817390799F0E0916502FE
:101B7000F0916602EF52FE4F408BF894309366026C
:101B800020936502789488EB8093C10080E090E018
:101B9000089581E090E008951F93CF93DF93C3E30E
:101BA000D1E01991112341F0812F0E94A10D8823CA
:101BB000D9F719911123C1F7DF91CF911F910895A2
:101BC00083E38093C4001092C50086E08093C20036
:101BD00088E98093C1000895629FD001739FF0014E
:101BE000829FE00DF11D649FE00DF11D929FF00DAD
:101BF000839FF00D749FF00D659FF00D9927729FE4
:101C0000B00DE11DF91F639FB00DE11DF91FBD016E
:101C1000CF0111240895AA1BBB1B51E107C0AA1FC5
:101C2000BB1FA617B70710F0A61BB70B881F991F7D
:101C30005A95A9F780959095BC01CD01089597FB21
:101C4000092E07260AD077FD04D0E5DF06D0002054
:101C50001AF4709561957F4F0895F6F790958195E8
:101C60009F4F0895A1E21A2EAA1BBB1BFD010DC0B8
:101C7000AA1FBB1FEE1FFF1FA217B307E407F5073C
:101C800020F0A21BB30BE40BF50B661F771F881F18
:101C9000991F1A9469F760957095809590959B01AE
:101CA000AC01BD01CF01089509D001921A94E1F76A
:101CB000089501900BD01A94E1F70895F999FECF99
:101CC000B2BDA1BDF89A119600B40895F999FECF5E
:101CD000B2BDA1BD00BC11960FB6F894FA9AF99A5C
:041CE0000FBE089596
:021CE40080007E
:00000001FF
